{
  "address": "0xfC16ce1682F5c135590F894650bd1cDDD0c56221",
  "abi": [
    {
      "inputs": [
        {
          "internalType": "uint16",
          "name": "_chainId",
          "type": "uint16"
        }
      ],
      "stateMutability": "nonpayable",
      "type": "constructor"
    },
    {
      "anonymous": false,
      "inputs": [
        {
          "indexed": false,
          "internalType": "uint16",
          "name": "version",
          "type": "uint16"
        }
      ],
      "name": "DefaultReceiveVersionSet",
      "type": "event"
    },
    {
      "anonymous": false,
      "inputs": [
        {
          "indexed": false,
          "internalType": "uint16",
          "name": "version",
          "type": "uint16"
        }
      ],
      "name": "DefaultSendVersionSet",
      "type": "event"
    },
    {
      "anonymous": false,
      "inputs": [
        {
          "indexed": false,
          "internalType": "uint16",
          "name": "version",
          "type": "uint16"
        }
      ],
      "name": "NewLibraryVersionAdded",
      "type": "event"
    },
    {
      "anonymous": false,
      "inputs": [
        {
          "indexed": true,
          "internalType": "address",
          "name": "previousOwner",
          "type": "address"
        },
        {
          "indexed": true,
          "internalType": "address",
          "name": "newOwner",
          "type": "address"
        }
      ],
      "name": "OwnershipTransferred",
      "type": "event"
    },
    {
      "anonymous": false,
      "inputs": [
        {
          "indexed": false,
          "internalType": "uint16",
          "name": "srcChainId",
          "type": "uint16"
        },
        {
          "indexed": false,
          "internalType": "bytes",
          "name": "srcAddress",
          "type": "bytes"
        },
        {
          "indexed": false,
          "internalType": "uint64",
          "name": "nonce",
          "type": "uint64"
        },
        {
          "indexed": false,
          "internalType": "address",
          "name": "dstAddress",
          "type": "address"
        }
      ],
      "name": "PayloadCleared",
      "type": "event"
    },
    {
      "anonymous": false,
      "inputs": [
        {
          "indexed": false,
          "internalType": "uint16",
          "name": "srcChainId",
          "type": "uint16"
        },
        {
          "indexed": false,
          "internalType": "bytes",
          "name": "srcAddress",
          "type": "bytes"
        },
        {
          "indexed": false,
          "internalType": "address",
          "name": "dstAddress",
          "type": "address"
        },
        {
          "indexed": false,
          "internalType": "uint64",
          "name": "nonce",
          "type": "uint64"
        },
        {
          "indexed": false,
          "internalType": "bytes",
          "name": "payload",
          "type": "bytes"
        },
        {
          "indexed": false,
          "internalType": "bytes",
          "name": "reason",
          "type": "bytes"
        }
      ],
      "name": "PayloadStored",
      "type": "event"
    },
    {
      "anonymous": false,
      "inputs": [
        {
          "indexed": false,
          "internalType": "uint16",
          "name": "chainId",
          "type": "uint16"
        },
        {
          "indexed": false,
          "internalType": "bytes",
          "name": "srcAddress",
          "type": "bytes"
        }
      ],
      "name": "UaForceResumeReceive",
      "type": "event"
    },
    {
      "anonymous": false,
      "inputs": [
        {
          "indexed": false,
          "internalType": "address",
          "name": "ua",
          "type": "address"
        },
        {
          "indexed": false,
          "internalType": "uint16",
          "name": "version",
          "type": "uint16"
        }
      ],
      "name": "UaReceiveVersionSet",
      "type": "event"
    },
    {
      "anonymous": false,
      "inputs": [
        {
          "indexed": false,
          "internalType": "address",
          "name": "ua",
          "type": "address"
        },
        {
          "indexed": false,
          "internalType": "uint16",
          "name": "version",
          "type": "uint16"
        }
      ],
      "name": "UaSendVersionSet",
      "type": "event"
    },
    {
      "inputs": [],
      "name": "BLOCK_VERSION",
      "outputs": [
        {
          "internalType": "uint16",
          "name": "",
          "type": "uint16"
        }
      ],
      "stateMutability": "view",
      "type": "function"
    },
    {
      "inputs": [],
      "name": "DEFAULT_VERSION",
      "outputs": [
        {
          "internalType": "uint16",
          "name": "",
          "type": "uint16"
        }
      ],
      "stateMutability": "view",
      "type": "function"
    },
    {
      "inputs": [],
      "name": "chainId",
      "outputs": [
        {
          "internalType": "uint16",
          "name": "",
          "type": "uint16"
        }
      ],
      "stateMutability": "view",
      "type": "function"
    },
    {
      "inputs": [],
      "name": "defaultReceiveLibraryAddress",
      "outputs": [
        {
          "internalType": "address",
          "name": "",
          "type": "address"
        }
      ],
      "stateMutability": "view",
      "type": "function"
    },
    {
      "inputs": [],
      "name": "defaultReceiveVersion",
      "outputs": [
        {
          "internalType": "uint16",
          "name": "",
          "type": "uint16"
        }
      ],
      "stateMutability": "view",
      "type": "function"
    },
    {
      "inputs": [],
      "name": "defaultSendLibrary",
      "outputs": [
        {
          "internalType": "contract ILayerZeroMessagingLibrary",
          "name": "",
          "type": "address"
        }
      ],
      "stateMutability": "view",
      "type": "function"
    },
    {
      "inputs": [],
      "name": "defaultSendVersion",
      "outputs": [
        {
          "internalType": "uint16",
          "name": "",
          "type": "uint16"
        }
      ],
      "stateMutability": "view",
      "type": "function"
    },
    {
      "inputs": [
        {
          "internalType": "uint16",
          "name": "_dstChainId",
          "type": "uint16"
        },
        {
          "internalType": "address",
          "name": "_userApplication",
          "type": "address"
        },
        {
          "internalType": "bytes",
          "name": "_payload",
          "type": "bytes"
        },
        {
          "internalType": "bool",
          "name": "_payInZRO",
          "type": "bool"
        },
        {
          "internalType": "bytes",
          "name": "_adapterParams",
          "type": "bytes"
        }
      ],
      "name": "estimateFees",
      "outputs": [
        {
          "internalType": "uint256",
          "name": "nativeFee",
          "type": "uint256"
        },
        {
          "internalType": "uint256",
          "name": "zroFee",
          "type": "uint256"
        }
      ],
      "stateMutability": "view",
      "type": "function"
    },
    {
      "inputs": [
        {
          "internalType": "uint16",
          "name": "_srcChainId",
          "type": "uint16"
        },
        {
          "internalType": "bytes",
          "name": "_srcAddress",
          "type": "bytes"
        }
      ],
      "name": "forceResumeReceive",
      "outputs": [],
      "stateMutability": "nonpayable",
      "type": "function"
    },
    {
      "inputs": [],
      "name": "getChainId",
      "outputs": [
        {
          "internalType": "uint16",
          "name": "",
          "type": "uint16"
        }
      ],
      "stateMutability": "view",
      "type": "function"
    },
    {
      "inputs": [
        {
          "internalType": "uint16",
          "name": "_version",
          "type": "uint16"
        },
        {
          "internalType": "uint16",
          "name": "_chainId",
          "type": "uint16"
        },
        {
          "internalType": "address",
          "name": "_userApplication",
          "type": "address"
        },
        {
          "internalType": "uint256",
          "name": "_configType",
          "type": "uint256"
        }
      ],
      "name": "getConfig",
      "outputs": [
        {
          "internalType": "bytes",
          "name": "",
          "type": "bytes"
        }
      ],
      "stateMutability": "view",
      "type": "function"
    },
    {
      "inputs": [
        {
          "internalType": "uint16",
          "name": "_srcChainId",
          "type": "uint16"
        },
        {
          "internalType": "bytes",
          "name": "_srcAddress",
          "type": "bytes"
        }
      ],
      "name": "getInboundNonce",
      "outputs": [
        {
          "internalType": "uint64",
          "name": "",
          "type": "uint64"
        }
      ],
      "stateMutability": "view",
      "type": "function"
    },
    {
      "inputs": [
        {
          "internalType": "uint16",
          "name": "_dstChainId",
          "type": "uint16"
        },
        {
          "internalType": "address",
          "name": "_srcAddress",
          "type": "address"
        }
      ],
      "name": "getOutboundNonce",
      "outputs": [
        {
          "internalType": "uint64",
          "name": "",
          "type": "uint64"
        }
      ],
      "stateMutability": "view",
      "type": "function"
    },
    {
      "inputs": [
        {
          "internalType": "address",
          "name": "_userApplication",
          "type": "address"
        }
      ],
      "name": "getReceiveLibraryAddress",
      "outputs": [
        {
          "internalType": "address",
          "name": "receiveLibraryAddress",
          "type": "address"
        }
      ],
      "stateMutability": "view",
      "type": "function"
    },
    {
      "inputs": [
        {
          "internalType": "address",
          "name": "_userApplication",
          "type": "address"
        }
      ],
      "name": "getReceiveVersion",
      "outputs": [
        {
          "internalType": "uint16",
          "name": "",
          "type": "uint16"
        }
      ],
      "stateMutability": "view",
      "type": "function"
    },
    {
      "inputs": [
        {
          "internalType": "address",
          "name": "_userApplication",
          "type": "address"
        }
      ],
      "name": "getSendLibraryAddress",
      "outputs": [
        {
          "internalType": "address",
          "name": "sendLibraryAddress",
          "type": "address"
        }
      ],
      "stateMutability": "view",
      "type": "function"
    },
    {
      "inputs": [
        {
          "internalType": "address",
          "name": "_userApplication",
          "type": "address"
        }
      ],
      "name": "getSendVersion",
      "outputs": [
        {
          "internalType": "uint16",
          "name": "",
          "type": "uint16"
        }
      ],
      "stateMutability": "view",
      "type": "function"
    },
    {
      "inputs": [
        {
          "internalType": "uint16",
          "name": "_srcChainId",
          "type": "uint16"
        },
        {
          "internalType": "bytes",
          "name": "_srcAddress",
          "type": "bytes"
        }
      ],
      "name": "hasStoredPayload",
      "outputs": [
        {
          "internalType": "bool",
          "name": "",
          "type": "bool"
        }
      ],
      "stateMutability": "view",
      "type": "function"
    },
    {
      "inputs": [
        {
          "internalType": "uint16",
          "name": "",
          "type": "uint16"
        },
        {
          "internalType": "bytes",
          "name": "",
          "type": "bytes"
        }
      ],
      "name": "inboundNonce",
      "outputs": [
        {
          "internalType": "uint64",
          "name": "",
          "type": "uint64"
        }
      ],
      "stateMutability": "view",
      "type": "function"
    },
    {
      "inputs": [],
      "name": "isReceivingPayload",
      "outputs": [
        {
          "internalType": "bool",
          "name": "",
          "type": "bool"
        }
      ],
      "stateMutability": "view",
      "type": "function"
    },
    {
      "inputs": [],
      "name": "isSendingPayload",
      "outputs": [
        {
          "internalType": "bool",
          "name": "",
          "type": "bool"
        }
      ],
      "stateMutability": "view",
      "type": "function"
    },
    {
      "inputs": [],
      "name": "latestVersion",
      "outputs": [
        {
          "internalType": "uint16",
          "name": "",
          "type": "uint16"
        }
      ],
      "stateMutability": "view",
      "type": "function"
    },
    {
      "inputs": [
        {
          "internalType": "uint16",
          "name": "",
          "type": "uint16"
        }
      ],
      "name": "libraryLookup",
      "outputs": [
        {
          "internalType": "contract ILayerZeroMessagingLibrary",
          "name": "",
          "type": "address"
        }
      ],
      "stateMutability": "view",
      "type": "function"
    },
    {
      "inputs": [
        {
          "internalType": "address",
          "name": "_newLayerZeroLibraryAddress",
          "type": "address"
        }
      ],
      "name": "newVersion",
      "outputs": [],
      "stateMutability": "nonpayable",
      "type": "function"
    },
    {
      "inputs": [
        {
          "internalType": "uint16",
          "name": "",
          "type": "uint16"
        },
        {
          "internalType": "address",
          "name": "",
          "type": "address"
        }
      ],
      "name": "outboundNonce",
      "outputs": [
        {
          "internalType": "uint64",
          "name": "",
          "type": "uint64"
        }
      ],
      "stateMutability": "view",
      "type": "function"
    },
    {
      "inputs": [],
      "name": "owner",
      "outputs": [
        {
          "internalType": "address",
          "name": "",
          "type": "address"
        }
      ],
      "stateMutability": "view",
      "type": "function"
    },
    {
      "inputs": [
        {
          "internalType": "uint16",
          "name": "_srcChainId",
          "type": "uint16"
        },
        {
          "internalType": "bytes",
          "name": "_srcAddress",
          "type": "bytes"
        },
        {
          "internalType": "address",
          "name": "_dstAddress",
          "type": "address"
        },
        {
          "internalType": "uint64",
          "name": "_nonce",
          "type": "uint64"
        },
        {
          "internalType": "uint256",
          "name": "_gasLimit",
          "type": "uint256"
        },
        {
          "internalType": "bytes",
          "name": "_payload",
          "type": "bytes"
        }
      ],
      "name": "receivePayload",
      "outputs": [],
      "stateMutability": "nonpayable",
      "type": "function"
    },
    {
      "inputs": [],
      "name": "renounceOwnership",
      "outputs": [],
      "stateMutability": "nonpayable",
      "type": "function"
    },
    {
      "inputs": [
        {
          "internalType": "uint16",
          "name": "_srcChainId",
          "type": "uint16"
        },
        {
          "internalType": "bytes",
          "name": "_srcAddress",
          "type": "bytes"
        },
        {
          "internalType": "bytes",
          "name": "_payload",
          "type": "bytes"
        }
      ],
      "name": "retryPayload",
      "outputs": [],
      "stateMutability": "nonpayable",
      "type": "function"
    },
    {
      "inputs": [
        {
          "internalType": "uint16",
          "name": "_dstChainId",
          "type": "uint16"
        },
        {
          "internalType": "bytes",
          "name": "_destination",
          "type": "bytes"
        },
        {
          "internalType": "bytes",
          "name": "_payload",
          "type": "bytes"
        },
        {
          "internalType": "address payable",
          "name": "_refundAddress",
          "type": "address"
        },
        {
          "internalType": "address",
          "name": "_zroPaymentAddress",
          "type": "address"
        },
        {
          "internalType": "bytes",
          "name": "_adapterParams",
          "type": "bytes"
        }
      ],
      "name": "send",
      "outputs": [],
      "stateMutability": "payable",
      "type": "function"
    },
    {
      "inputs": [
        {
          "internalType": "uint16",
          "name": "_version",
          "type": "uint16"
        },
        {
          "internalType": "uint16",
          "name": "_chainId",
          "type": "uint16"
        },
        {
          "internalType": "uint256",
          "name": "_configType",
          "type": "uint256"
        },
        {
          "internalType": "bytes",
          "name": "_config",
          "type": "bytes"
        }
      ],
      "name": "setConfig",
      "outputs": [],
      "stateMutability": "nonpayable",
      "type": "function"
    },
    {
      "inputs": [
        {
          "internalType": "uint16",
          "name": "_newDefaultReceiveVersion",
          "type": "uint16"
        }
      ],
      "name": "setDefaultReceiveVersion",
      "outputs": [],
      "stateMutability": "nonpayable",
      "type": "function"
    },
    {
      "inputs": [
        {
          "internalType": "uint16",
          "name": "_newDefaultSendVersion",
          "type": "uint16"
        }
      ],
      "name": "setDefaultSendVersion",
      "outputs": [],
      "stateMutability": "nonpayable",
      "type": "function"
    },
    {
      "inputs": [
        {
          "internalType": "uint16",
          "name": "_newVersion",
          "type": "uint16"
        }
      ],
      "name": "setReceiveVersion",
      "outputs": [],
      "stateMutability": "nonpayable",
      "type": "function"
    },
    {
      "inputs": [
        {
          "internalType": "uint16",
          "name": "_newVersion",
          "type": "uint16"
        }
      ],
      "name": "setSendVersion",
      "outputs": [],
      "stateMutability": "nonpayable",
      "type": "function"
    },
    {
      "inputs": [
        {
          "internalType": "uint16",
          "name": "",
          "type": "uint16"
        },
        {
          "internalType": "bytes",
          "name": "",
          "type": "bytes"
        }
      ],
      "name": "storedPayload",
      "outputs": [
        {
          "internalType": "uint64",
          "name": "payloadLength",
          "type": "uint64"
        },
        {
          "internalType": "address",
          "name": "dstAddress",
          "type": "address"
        },
        {
          "internalType": "bytes32",
          "name": "payloadHash",
          "type": "bytes32"
        }
      ],
      "stateMutability": "view",
      "type": "function"
    },
    {
      "inputs": [
        {
          "internalType": "address",
          "name": "newOwner",
          "type": "address"
        }
      ],
      "name": "transferOwnership",
      "outputs": [],
      "stateMutability": "nonpayable",
      "type": "function"
    },
    {
      "inputs": [
        {
          "internalType": "address",
          "name": "",
          "type": "address"
        }
      ],
      "name": "uaConfigLookup",
      "outputs": [
        {
          "internalType": "uint16",
          "name": "sendVersion",
          "type": "uint16"
        },
        {
          "internalType": "uint16",
          "name": "receiveVersion",
          "type": "uint16"
        },
        {
          "internalType": "address",
          "name": "receiveLibraryAddress",
          "type": "address"
        },
        {
          "internalType": "contract ILayerZeroMessagingLibrary",
          "name": "sendLibrary",
          "type": "address"
        }
      ],
      "stateMutability": "view",
      "type": "function"
    }
  ],
  "transactionHash": "0x5af968507736c218c3a0f23705db60d9f816e4b867e596c566d7c55c2f16726a",
  "args": [
    10012
  ],
  "numDeployments": 1,
  "solcInputHash": "60a2e1528995229eb7e48199df10dca9",
  "bytecode": "0x60a06040526008805461ffff19166101011790553480156200002057600080fd5b5060405162003109380380620031098339810160408190526200004391620000ab565b6200004e336200005b565b61ffff16608052620000d8565b600080546001600160a01b038381166001600160a01b0319831681178455604051919092169283917f8be0079c531659141344cd1fd0a4f28419497f9722a3daafe3b4186f6b6457e09190a35050565b600060208284031215620000be57600080fd5b815161ffff81168114620000d157600080fd5b9392505050565b60805161300e620000fb600039600081816103980152610630015261300e6000f3fe6080604052600436106102855760003560e01c80639c729da111610153578063ca066b35116100cb578063f2fde38b1161007f578063f5ecbdbc11610064578063f5ecbdbc146108e1578063faee093f1461090e578063fdc07c701461092f57600080fd5b8063f2fde38b14610832578063f4abee4b1461085257600080fd5b8063da1a7c9a116100b0578063da1a7c9a146107d6578063e97a448a146107f6578063ebfea6e01461081257600080fd5b8063ca066b3514610795578063cbed8b9c146107b657600080fd5b8063bd42a71311610122578063c2fa481311610107578063c2fa48131461072c578063c58031001461074c578063c7e371171461075f57600080fd5b8063bd42a713146106ea578063c07f47d41461070a57600080fd5b80639c729da114610652578063a91606df14610672578063aaff5f1614610688578063b2086499146106a857600080fd5b806342d65a8d1161020157806376a386dc116101b55780638da5cb5b1161019a5780638da5cb5b146105ad5780639924d33b146105cb5780639a8a05921461061e57600080fd5b806376a386dc146104a15780637a1457481461054157600080fd5b80635d9ef01a116101e65780635d9ef01a14610451578063715018a61461046c57806371ba2fd61461048157600080fd5b806342d65a8d146103f15780634afb422b1461041157600080fd5b806310ddb1371161025857806324ba3f2c1161023d57806324ba3f2c146103745780633408e4701461038957806340a7bb10146103bc57600080fd5b806310ddb13714610334578063158c81ad1461035457600080fd5b806307e0db171461028a578063096568f6146102ac5780630b837bb5146102e45780630eaf6ea614610304575b600080fd5b34801561029657600080fd5b506102aa6102a536600461269a565b61094f565b005b3480156102b857600080fd5b506102cc6102c73660046126ca565b610a6a565b60405161ffff90911681526020015b60405180910390f35b3480156102f057600080fd5b506102aa6102ff36600461269a565b610aa7565b34801561031057600080fd5b5061032461031f366004612730565b610c98565b60405190151581526020016102db565b34801561034057600080fd5b506102aa61034f36600461269a565b610cdd565b34801561036057600080fd5b506102aa61036f3660046126ca565b610e2f565b34801561038057600080fd5b506102cc600081565b34801561039557600080fd5b507f00000000000000000000000000000000000000000000000000000000000000006102cc565b3480156103c857600080fd5b506103dc6103d7366004612783565b611030565b604080519283526020830191909152016102db565b3480156103fd57600080fd5b506102aa61040c366004612730565b61110d565b34801561041d57600080fd5b506002546104399064010000000090046001600160a01b031681565b6040516001600160a01b0390911681526020016102db565b34801561045d57600080fd5b506002546102cc9061ffff1681565b34801561047857600080fd5b506102aa61124f565b34801561048d57600080fd5b5061043961049c3660046126ca565b6112b5565b3480156104ad57600080fd5b506105136104bc36600461289f565b600760209081526000928352604090922081518083018401805192815290840192909301919091209152805460019091015467ffffffffffffffff8216916801000000000000000090046001600160a01b03169083565b6040805167ffffffffffffffff90941684526001600160a01b039092166020840152908201526060016102db565b34801561054d57600080fd5b5061059461055c366004612930565b61ffff821660009081526006602090815260408083206001600160a01b038516845290915290205467ffffffffffffffff1692915050565b60405167ffffffffffffffff90911681526020016102db565b3480156105b957600080fd5b506000546001600160a01b0316610439565b3480156105d757600080fd5b506105946105e636600461289f565b6005602090815260009283526040909220815180830184018051928152908401929093019190912091525467ffffffffffffffff1681565b34801561062a57600080fd5b506102cc7f000000000000000000000000000000000000000000000000000000000000000081565b34801561065e57600080fd5b5061043961066d3660046126ca565b61140d565b34801561067e57600080fd5b506102cc61ffff81565b34801561069457600080fd5b506102aa6106a3366004612967565b611558565b3480156106b457600080fd5b506105946106c3366004612930565b600660209081526000928352604080842090915290825290205467ffffffffffffffff1681565b3480156106f657600080fd5b506102aa61070536600461269a565b6117ed565b34801561071657600080fd5b506000546102cc90600160a01b900461ffff1681565b34801561073857600080fd5b506102aa6107473660046129e8565b6119ca565b6102aa61075a366004612aa0565b611e3a565b34801561076b57600080fd5b5061043961077a36600461269a565b6001602052600090815260409020546001600160a01b031681565b3480156107a157600080fd5b50610324600854610100900460ff1660021490565b3480156107c257600080fd5b506102aa6107d1366004612b76565b611f98565b3480156107e257600080fd5b506102cc6107f13660046126ca565b6121a5565b34801561080257600080fd5b5061032460085460ff1660021490565b34801561081e57600080fd5b50600354610439906001600160a01b031681565b34801561083e57600080fd5b506102aa61084d3660046126ca565b6121f3565b34801561085e57600080fd5b506108ac61086d3660046126ca565b6004602052600090815260409020805460019091015461ffff80831692620100008104909116916001600160a01b036401000000009092048216911684565b6040805161ffff95861681529490931660208501526001600160a01b03918216928401929092521660608201526080016102db565b3480156108ed57600080fd5b506109016108fc366004612bd4565b6122d5565b6040516102db9190612c7d565b34801561091a57600080fd5b506002546102cc9062010000900461ffff1681565b34801561093b57600080fd5b5061059461094a366004612730565b6124fd565b600054819061ffff600160a01b9091048116908216111580610974575061ffff818116145b6109da5760405162461bcd60e51b815260206004820152602c60248201527f4c617965725a65726f3a20696e76616c6964206d6573736167696e67206c696260448201526b3930b93c903b32b939b4b7b760a11b60648201526084015b60405180910390fd5b336000818152600460209081526040808320805461ffff881661ffff19909116811782558085526001808552948390205494820180546001600160a01b0319166001600160a01b0390961695909517909455815194855291840192909252917ff2bc255571446a2f9b7cb2f0c75fd6a279bdb469f515d5a5c9910f713aeb32ca91015b60405180910390a1505050565b6001600160a01b0381166000908152600460205260408120805461ffff1615610a9857805461ffff16610aa0565b60025461ffff165b9392505050565b6000546001600160a01b03163314610b015760405162461bcd60e51b815260206004820181905260248201527f4f776e61626c653a2063616c6c6572206973206e6f7420746865206f776e657260448201526064016109d1565b600054819061ffff600160a01b9091048116908216111580610b26575061ffff818116145b610b875760405162461bcd60e51b815260206004820152602c60248201527f4c617965725a65726f3a20696e76616c6964206d6573736167696e67206c696260448201526b3930b93c903b32b939b4b7b760a11b60648201526084016109d1565b61ffff8216610bfe5760405162461bcd60e51b815260206004820152602860248201527f4c617965725a65726f3a2064656661756c742073656e642076657273696f6e2060448201527f6d757374203e203000000000000000000000000000000000000000000000000060648201526084016109d1565b6002805461ffff841661ffff19821681178355600081815260016020908152604091829020546401000000006001600160a01b03909116027fffffffffffffffff0000000000000000000000000000000000000000ffff000090941683179390931790935591519182527feb685c087d38029bbde35299b748c6b80f099c7e5c3f9fe2dbb3ace1099e3b0791015b60405180910390a15050565b61ffff83166000908152600760205260408082209051829190610cbe9086908690612c90565b9081526040519081900360200190206001015415159150509392505050565b600054819061ffff600160a01b9091048116908216111580610d02575061ffff818116145b610d635760405162461bcd60e51b815260206004820152602c60248201527f4c617965725a65726f3a20696e76616c6964206d6573736167696e67206c696260448201526b3930b93c903b32b939b4b7b760a11b60648201526084016109d1565b336000818152600460209081526040808320805463ffff00001981166201000061ffff8a1690810291821784558087526001865295849020547fffffffffffffffff00000000000000000000000000000000000000000000ffff9092167fffffffffffffffff0000000000000000000000000000000000000000ffffffff909116176001600160a01b0390911664010000000002178155815194855291840192909252917f9c199418af68d1547d7b99c71ee6a9eb18b27990dfcfb38982f3e3fb8c7b6bef9101610a5d565b6000546001600160a01b03163314610e895760405162461bcd60e51b815260206004820181905260248201527f4f776e61626c653a2063616c6c6572206973206e6f7420746865206f776e657260448201526064016109d1565b6001600160a01b038116610f055760405162461bcd60e51b815260206004820152602d60248201527f4c617965725a65726f3a206e65772076657273696f6e2063616e6e6f7420626560448201527f207a65726f20616464726573730000000000000000000000000000000000000060648201526084016109d1565b60005461ffff600160a01b909104811610610f885760405162461bcd60e51b815260206004820152602c60248201527f4c617965725a65726f3a2063616e206e6f7420616464206e6577206d6573736160448201527f67696e67206c696272617279000000000000000000000000000000000000000060648201526084016109d1565b60008054600160a01b900461ffff16906014610fa383612cb6565b82546101009290920a61ffff81810219909316918316021790915560008054600160a01b908190048316825260016020908152604080842080546001600160a01b0319166001600160a01b038916179055925492519190920490921682527f18c7402e58a1bec57f4eb75af242f65ababbbe09d9db383e0542f00635e5b8c592500160405180910390a150565b6001600160a01b03861660009081526004602052604081208054829190829061ffff161561106b5760018201546001600160a01b0316611080565b60025464010000000090046001600160a01b03165b60405163040a7bb160e41b81529091506001600160a01b038216906340a7bb10906110bb908e908e908e908e908e908e908e90600401612d01565b6040805180830381865afa1580156110d7573d6000803e3d6000fd5b505050506040513d601f19601f820116820180604052508101906110fb9190612d57565b93509350505097509795505050505050565b61ffff831660009081526007602052604080822090516111309085908590612c90565b90815260405190819003602001902060018101549091506111935760405162461bcd60e51b815260206004820152601c60248201527f4c617965725a65726f3a206e6f2073746f726564207061796c6f61640000000060448201526064016109d1565b80546801000000000000000090046001600160a01b031633146111f85760405162461bcd60e51b815260206004820152601960248201527f4c617965725a65726f3a20696e76616c69642063616c6c65720000000000000060448201526064016109d1565b80546001600160e01b0319168155600060018201556040517f23d2684f396e92a6e2ff2d16f98e6fea00d50cb27a64b531bc0748f730211f989061124190869086908690612d7b565b60405180910390a150505050565b6000546001600160a01b031633146112a95760405162461bcd60e51b815260206004820181905260248201527f4f776e61626c653a2063616c6c6572206973206e6f7420746865206f776e657260448201526064016109d1565b6112b36000612543565b565b6001600160a01b0381166000908152600460205260408120805461ffff620100009091048116908114156113515760405162461bcd60e51b815260206004820152602b60248201527f4c617965725a65726f3a20726563656976652076657273696f6e20697320424c60448201527f4f434b5f56455253494f4e00000000000000000000000000000000000000000060648201526084016109d1565b61ffff81166113f05760025462010000900461ffff90811614156113dd5760405162461bcd60e51b815260206004820152603560248201527f4c617965725a65726f3a20726563656976652076657273696f6e20286465666160448201527f756c742920697320424c4f434b5f56455253494f4e000000000000000000000060648201526084016109d1565b6003546001600160a01b03169250611406565b815464010000000090046001600160a01b031692505b5050919050565b6001600160a01b0381166000908152600460205260408120805461ffff908116908114156114a35760405162461bcd60e51b815260206004820152602860248201527f4c617965725a65726f3a2073656e642076657273696f6e20697320424c4f434b60448201527f5f56455253494f4e00000000000000000000000000000000000000000000000060648201526084016109d1565b61ffff81166115445760025461ffff90811614156115295760405162461bcd60e51b815260206004820152603260248201527f4c617965725a65726f3a2073656e642076657273696f6e202864656661756c7460448201527f2920697320424c4f434b5f56455253494f4e000000000000000000000000000060648201526084016109d1565b60025464010000000090046001600160a01b03169250611406565b50600101546001600160a01b031692915050565b600854610100900460ff166001146115b25760405162461bcd60e51b815260206004820181905260248201527f4c617965725a65726f3a206e6f2072656365697665207265656e7472616e637960448201526064016109d1565b6008805461ff00191661020017905561ffff851660009081526007602052604080822090516115e49087908790612c90565b90815260405190819003602001902060018101549091506116475760405162461bcd60e51b815260206004820152601c60248201527f4c617965725a65726f3a206e6f2073746f726564207061796c6f61640000000060448201526064016109d1565b805467ffffffffffffffff168214801561167b575080600101548383604051611671929190612c90565b6040518091039020145b6116c75760405162461bcd60e51b815260206004820152601a60248201527f4c617965725a65726f3a20696e76616c6964207061796c6f616400000000000060448201526064016109d1565b80546001600160e01b03198116825560006001830181905561ffff88168152600560205260408082209051680100000000000000009093046001600160a01b0316926117169089908990612c90565b90815260405190819003602001812054621d356760e01b825267ffffffffffffffff1691506001600160a01b03831690621d356790611763908b908b908b9087908c908c90600401612da2565b600060405180830381600087803b15801561177d57600080fd5b505af1158015611791573d6000803e3d6000fd5b505050507f612434f39581c8e7d99746c9c20c6eb0ce8c0eb99f007c5719d620841370957d88888884866040516117cc959493929190612df0565b60405180910390a150506008805461ff001916610100179055505050505050565b6000546001600160a01b031633146118475760405162461bcd60e51b815260206004820181905260248201527f4f776e61626c653a2063616c6c6572206973206e6f7420746865206f776e657260448201526064016109d1565b600054819061ffff600160a01b909104811690821611158061186c575061ffff818116145b6118cd5760405162461bcd60e51b815260206004820152602c60248201527f4c617965725a65726f3a20696e76616c6964206d6573736167696e67206c696260448201526b3930b93c903b32b939b4b7b760a11b60648201526084016109d1565b61ffff82166119445760405162461bcd60e51b815260206004820152602b60248201527f4c617965725a65726f3a2064656661756c74207265636569766520766572736960448201527f6f6e206d757374203e203000000000000000000000000000000000000000000060648201526084016109d1565b6002805463ffff000019166201000061ffff8581168281029390931793849055920490911660009081526001602090815260409182902054600380546001600160a01b039092166001600160a01b031990921691909117905590519182527f96874dbe70c8a59e7996847475489a70a1b5096ed92cdc858b63ebabd071f8199101610c8c565b600854610100900460ff16600114611a245760405162461bcd60e51b815260206004820181905260248201527f4c617965725a65726f3a206e6f2072656365697665207265656e7472616e637960448201526064016109d1565b6008805461ff00191661020017905561ffff8816600090815260056020526040908190209051611a579089908990612c90565b9081526040519081900360200190208054600090611a7e9067ffffffffffffffff16612e39565b91906101000a81548167ffffffffffffffff021916908367ffffffffffffffff160217905567ffffffffffffffff168467ffffffffffffffff1614611b055760405162461bcd60e51b815260206004820152601660248201527f4c617965725a65726f3a2077726f6e67206e6f6e63650000000000000000000060448201526064016109d1565b6001600160a01b0385166000908152600460205260409020805462010000900461ffff16611b97576003546001600160a01b03163314611b925760405162461bcd60e51b815260206004820152602260248201527f4c617965725a65726f3a20696e76616c69642064656661756c74206c69627261604482015261727960f01b60648201526084016109d1565b611bf8565b805464010000000090046001600160a01b03163314611bf85760405162461bcd60e51b815260206004820152601a60248201527f4c617965725a65726f3a20696e76616c6964206c69627261727900000000000060448201526064016109d1565b61ffff89166000908152600760205260408082209051611c1b908b908b90612c90565b908152604051908190036020019020600181015490915015611c7f5760405162461bcd60e51b815260206004820152601e60248201527f4c617965725a65726f3a20696e206d65737361676520626c6f636b696e67000060448201526064016109d1565b604051621d356760e01b81526001600160a01b03881690621d3567908790611cb5908e908e908e908d908c908c90600401612da2565b600060405180830381600088803b158015611ccf57600080fd5b5087f193505050508015611ce1575060015b611e1f573d808015611d0f576040519150601f19603f3d011682016040523d82523d6000602084013e611d14565b606091505b5060405180606001604052808686905067ffffffffffffffff168152602001896001600160a01b031681526020018686604051611d52929190612c90565b604080519182900390912090915261ffff8d16600090815260076020528190209051611d81908d908d90612c90565b90815260408051918290036020908101832084518154928601516001600160a01b031668010000000000000000026001600160e01b031990931667ffffffffffffffff909116179190911781559201516001909201919091557f0f9e4d95b62f08222d612b5ab92039cd8fbbbea550a95e8df9f927436bbdf5db90611e15908d908d908d908d908d908c908c908a90612e57565b60405180910390a1505b50506008805461ff0019166101001790555050505050505050565b60085460ff16600114611e8f5760405162461bcd60e51b815260206004820152601d60248201527f4c617965725a65726f3a206e6f2073656e64207265656e7472616e637900000060448201526064016109d1565b6008805460ff1916600217905533600081815260046020908152604080832061ffff8e1684526006835281842094845293909152812080548290611edc9067ffffffffffffffff16612e39565b91906101000a81548167ffffffffffffffff021916908367ffffffffffffffff16021790559050611f0c82612593565b6001600160a01b0316634d3a0f7c3433848f8f8f8f8f8f8f8f8f6040518d63ffffffff1660e01b8152600401611f4c9b9a99989796959493929190612eca565b6000604051808303818588803b158015611f6557600080fd5b505af1158015611f79573d6000803e3d6000fd5b50506008805460ff191660011790555050505050505050505050505050565b600054859061ffff600160a01b9091048116908216111580611fbd575061ffff818116145b61201e5760405162461bcd60e51b815260206004820152602c60248201527f4c617965725a65726f3a20696e76616c6964206d6573736167696e67206c696260448201526b3930b93c903b32b939b4b7b760a11b60648201526084016109d1565b61ffff86166120b55760025461ffff8082166201000090920416146120ab5760405162461bcd60e51b815260206004820152603660248201527f4c617965725a65726f3a2063616e206e6f742073657420436f6e66696720647560448201527f72696e672044454641554c54206d6967726174696f6e0000000000000000000060648201526084016109d1565b60025461ffff1695505b61ffff86811614156121215760405162461bcd60e51b815260206004820152602f60248201527f4c617965725a65726f3a2063616e206e6f742073657420636f6e66696720666f60448201526e3910212627a1a5afab22a929a4a7a760891b60648201526084016109d1565b61ffff861660009081526001602052604090819020549051633e385cd360e21b81526001600160a01b039091169063f8e1734c9061216b9088903390899089908990600401612f55565b600060405180830381600087803b15801561218557600080fd5b505af1158015612199573d6000803e3d6000fd5b50505050505050505050565b6001600160a01b0381166000908152600460205260408120805462010000900461ffff16156121df57805462010000900461ffff16610aa0565b505060025462010000900461ffff16919050565b6000546001600160a01b0316331461224d5760405162461bcd60e51b815260206004820181905260248201527f4f776e61626c653a2063616c6c6572206973206e6f7420746865206f776e657260448201526064016109d1565b6001600160a01b0381166122c95760405162461bcd60e51b815260206004820152602660248201527f4f776e61626c653a206e6577206f776e657220697320746865207a65726f206160448201527f646472657373000000000000000000000000000000000000000000000000000060648201526084016109d1565b6122d281612543565b50565b600054606090859061ffff600160a01b90910481169082161115806122fd575061ffff818116145b61235e5760405162461bcd60e51b815260206004820152602c60248201527f4c617965725a65726f3a20696e76616c6964206d6573736167696e67206c696260448201526b3930b93c903b32b939b4b7b760a11b60648201526084016109d1565b61ffff86166123f55760025461ffff8082166201000090920416146123eb5760405162461bcd60e51b815260206004820152602c60248201527f4c617965725a65726f3a206e6f2044454641554c5420636f6e6669672077686960448201527f6c65206d6967726174696f6e000000000000000000000000000000000000000060648201526084016109d1565b60025461ffff1695505b61ffff86811614156124615760405162461bcd60e51b815260206004820152602f60248201527f4c617965725a65726f3a2063616e206e6f742067657420636f6e66696720666f60448201526e3910212627a1a5afab22a929a4a7a760891b60648201526084016109d1565b61ffff868116600090815260016020526040908190205490516352d2871f60e01b815291871660048301526001600160a01b0386811660248401526044830186905216906352d2871f90606401600060405180830381865afa1580156124cb573d6000803e3d6000fd5b505050506040513d6000823e601f3d908101601f191682016040526124f39190810190612f93565b9695505050505050565b61ffff831660009081526005602052604080822090516125209085908590612c90565b9081526040519081900360200190205467ffffffffffffffff1690509392505050565b600080546001600160a01b038381166001600160a01b0319831681178455604051919092169283917f8be0079c531659141344cd1fd0a4f28419497f9722a3daafe3b4186f6b6457e09190a35050565b805460009061ffff1661261c5760025461ffff90811614156126035760405162461bcd60e51b815260206004820152602360248201527f4c617965725a65726f3a2064656661756c7420696e20424c4f434b5f5645525360448201526224a7a760e91b60648201526084016109d1565b505060025464010000000090046001600160a01b031690565b815461ffff90811614156126725760405162461bcd60e51b815260206004820152601b60248201527f4c617965725a65726f3a20696e20424c4f434b5f56455253494f4e000000000060448201526064016109d1565b50600101546001600160a01b031690565b919050565b803561ffff8116811461268357600080fd5b6000602082840312156126ac57600080fd5b610aa082612688565b6001600160a01b03811681146122d257600080fd5b6000602082840312156126dc57600080fd5b8135610aa0816126b5565b60008083601f8401126126f957600080fd5b50813567ffffffffffffffff81111561271157600080fd5b60208301915083602082850101111561272957600080fd5b9250929050565b60008060006040848603121561274557600080fd5b61274e84612688565b9250602084013567ffffffffffffffff81111561276a57600080fd5b612776868287016126e7565b9497909650939450505050565b600080600080600080600060a0888a03121561279e57600080fd5b6127a788612688565b965060208801356127b7816126b5565b9550604088013567ffffffffffffffff808211156127d457600080fd5b6127e08b838c016126e7565b909750955060608a0135915081151582146127fa57600080fd5b9093506080890135908082111561281057600080fd5b5061281d8a828b016126e7565b989b979a50959850939692959293505050565b634e487b7160e01b600052604160045260246000fd5b604051601f8201601f1916810167ffffffffffffffff8111828210171561286f5761286f612830565b604052919050565b600067ffffffffffffffff82111561289157612891612830565b50601f01601f191660200190565b600080604083850312156128b257600080fd5b6128bb83612688565b9150602083013567ffffffffffffffff8111156128d757600080fd5b8301601f810185136128e857600080fd5b80356128fb6128f682612877565b612846565b81815286602083850101111561291057600080fd5b816020840160208301376000602083830101528093505050509250929050565b6000806040838503121561294357600080fd5b61294c83612688565b9150602083013561295c816126b5565b809150509250929050565b60008060008060006060868803121561297f57600080fd5b61298886612688565b9450602086013567ffffffffffffffff808211156129a557600080fd5b6129b189838a016126e7565b909650945060408801359150808211156129ca57600080fd5b506129d7888289016126e7565b969995985093965092949392505050565b60008060008060008060008060c0898b031215612a0457600080fd5b612a0d89612688565b9750602089013567ffffffffffffffff80821115612a2a57600080fd5b612a368c838d016126e7565b909950975060408b01359150612a4b826126b5565b90955060608a0135908082168214612a6257600080fd5b90945060808a0135935060a08a01359080821115612a7f57600080fd5b50612a8c8b828c016126e7565b999c989b5096995094979396929594505050565b600080600080600080600080600060c08a8c031215612abe57600080fd5b612ac78a612688565b985060208a013567ffffffffffffffff80821115612ae457600080fd5b612af08d838e016126e7565b909a50985060408c0135915080821115612b0957600080fd5b612b158d838e016126e7565b909850965060608c01359150612b2a826126b5565b90945060808b013590612b3c826126b5565b90935060a08b01359080821115612b5257600080fd5b50612b5f8c828d016126e7565b915080935050809150509295985092959850929598565b600080600080600060808688031215612b8e57600080fd5b612b9786612688565b9450612ba560208701612688565b935060408601359250606086013567ffffffffffffffff811115612bc857600080fd5b6129d7888289016126e7565b60008060008060808587031215612bea57600080fd5b612bf385612688565b9350612c0160208601612688565b92506040850135612c11816126b5565b9396929550929360600135925050565b60005b83811015612c3c578181015183820152602001612c24565b83811115612c4b576000848401525b50505050565b60008151808452612c69816020860160208601612c21565b601f01601f19169290920160200192915050565b602081526000610aa06020830184612c51565b8183823760009101908152919050565b634e487b7160e01b600052601160045260246000fd5b600061ffff80831681811415612cce57612cce612ca0565b6001019392505050565b81835281816020850137506000828201602090810191909152601f909101601f19169091010190565b61ffff881681526001600160a01b038716602082015260a060408201526000612d2e60a083018789612cd8565b85151560608401528281036080840152612d49818587612cd8565b9a9950505050505050505050565b60008060408385031215612d6a57600080fd5b505080516020909101519092909150565b61ffff84168152604060208201526000612d99604083018486612cd8565b95945050505050565b61ffff87168152608060208201526000612dc0608083018789612cd8565b67ffffffffffffffff861660408401528281036060840152612de3818587612cd8565b9998505050505050505050565b61ffff86168152608060208201526000612e0e608083018688612cd8565b905067ffffffffffffffff841660408301526001600160a01b03831660608301529695505050505050565b600067ffffffffffffffff80831681811415612cce57612cce612ca0565b61ffff8916815260c060208201526000612e7560c08301898b612cd8565b6001600160a01b038816604084015267ffffffffffffffff871660608401528281036080840152612ea7818688612cd8565b905082810360a0840152612ebb8185612c51565b9b9a5050505050505050505050565b60006101006001600160a01b03808f16845267ffffffffffffffff8e16602085015261ffff8d166040850152816060850152612f098285018c8e612cd8565b91508382036080850152612f1e828a8c612cd8565b88821660a086015290871660c085015283810360e08501529050612f43818587612cd8565b9e9d5050505050505050505050505050565b61ffff861681526001600160a01b0385166020820152836040820152608060608201526000612f88608083018486612cd8565b979650505050505050565b600060208284031215612fa557600080fd5b815167ffffffffffffffff811115612fbc57600080fd5b8201601f81018413612fcd57600080fd5b8051612fdb6128f682612877565b818152856020838501011115612ff057600080fd5b612d99826020830160208601612c2156fea164736f6c634300080a000a",
  "devdoc": {
    "kind": "dev",
    "methods": {
      "owner()": {
        "details": "Returns the address of the current owner."
      },
      "renounceOwnership()": {
        "details": "Leaves the contract without owner. It will not be possible to call `onlyOwner` functions anymore. Can only be called by the current owner. NOTE: Renouncing ownership will leave the contract without an owner, thereby removing any functionality that is only available to the owner."
      },
      "transferOwnership(address)": {
        "details": "Transfers ownership of the contract to a new account (`newOwner`). Can only be called by the current owner."
      }
    },
    "version": 1
  },
  "userdoc": {
    "kind": "user",
    "methods": {},
    "version": 1
  },
  "storageLayout": {
    "storage": [
      {
        "astId": 7,
        "contract": "contracts/Endpoint.sol:Endpoint",
        "label": "_owner",
        "offset": 0,
        "slot": "0",
        "type": "t_address"
      },
      {
        "astId": 2773,
        "contract": "contracts/Endpoint.sol:Endpoint",
        "label": "latestVersion",
        "offset": 20,
        "slot": "0",
        "type": "t_uint16"
      },
      {
        "astId": 2778,
        "contract": "contracts/Endpoint.sol:Endpoint",
        "label": "libraryLookup",
        "offset": 0,
        "slot": "1",
        "type": "t_mapping(t_uint16,t_contract(ILayerZeroMessagingLibrary)5572)"
      },
      {
        "astId": 2780,
        "contract": "contracts/Endpoint.sol:Endpoint",
        "label": "defaultSendVersion",
        "offset": 0,
        "slot": "2",
        "type": "t_uint16"
      },
      {
        "astId": 2782,
        "contract": "contracts/Endpoint.sol:Endpoint",
        "label": "defaultReceiveVersion",
        "offset": 2,
        "slot": "2",
        "type": "t_uint16"
      },
      {
        "astId": 2785,
        "contract": "contracts/Endpoint.sol:Endpoint",
        "label": "defaultSendLibrary",
        "offset": 4,
        "slot": "2",
        "type": "t_contract(ILayerZeroMessagingLibrary)5572"
      },
      {
        "astId": 2787,
        "contract": "contracts/Endpoint.sol:Endpoint",
        "label": "defaultReceiveLibraryAddress",
        "offset": 0,
        "slot": "3",
        "type": "t_address"
      },
      {
        "astId": 2809,
        "contract": "contracts/Endpoint.sol:Endpoint",
        "label": "uaConfigLookup",
        "offset": 0,
        "slot": "4",
        "type": "t_mapping(t_address,t_struct(LibraryConfig)2797_storage)"
      },
      {
        "astId": 2815,
        "contract": "contracts/Endpoint.sol:Endpoint",
        "label": "inboundNonce",
        "offset": 0,
        "slot": "5",
        "type": "t_mapping(t_uint16,t_mapping(t_bytes_memory_ptr,t_uint64))"
      },
      {
        "astId": 2821,
        "contract": "contracts/Endpoint.sol:Endpoint",
        "label": "outboundNonce",
        "offset": 0,
        "slot": "6",
        "type": "t_mapping(t_uint16,t_mapping(t_address,t_uint64))"
      },
      {
        "astId": 2828,
        "contract": "contracts/Endpoint.sol:Endpoint",
        "label": "storedPayload",
        "offset": 0,
        "slot": "7",
        "type": "t_mapping(t_uint16,t_mapping(t_bytes_memory_ptr,t_struct(StoredPayload)2804_storage))"
      },
      {
        "astId": 2901,
        "contract": "contracts/Endpoint.sol:Endpoint",
        "label": "_send_entered_state",
        "offset": 0,
        "slot": "8",
        "type": "t_uint8"
      },
      {
        "astId": 2904,
        "contract": "contracts/Endpoint.sol:Endpoint",
        "label": "_receive_entered_state",
        "offset": 1,
        "slot": "8",
        "type": "t_uint8"
      }
    ],
    "types": {
      "t_address": {
        "encoding": "inplace",
        "label": "address",
        "numberOfBytes": "20"
      },
      "t_bytes32": {
        "encoding": "inplace",
        "label": "bytes32",
        "numberOfBytes": "32"
      },
      "t_bytes_memory_ptr": {
        "encoding": "bytes",
        "label": "bytes",
        "numberOfBytes": "32"
      },
      "t_contract(ILayerZeroMessagingLibrary)5572": {
        "encoding": "inplace",
        "label": "contract ILayerZeroMessagingLibrary",
        "numberOfBytes": "20"
      },
      "t_mapping(t_address,t_struct(LibraryConfig)2797_storage)": {
        "encoding": "mapping",
        "key": "t_address",
        "label": "mapping(address => struct Endpoint.LibraryConfig)",
        "numberOfBytes": "32",
        "value": "t_struct(LibraryConfig)2797_storage"
      },
      "t_mapping(t_address,t_uint64)": {
        "encoding": "mapping",
        "key": "t_address",
        "label": "mapping(address => uint64)",
        "numberOfBytes": "32",
        "value": "t_uint64"
      },
      "t_mapping(t_bytes_memory_ptr,t_struct(StoredPayload)2804_storage)": {
        "encoding": "mapping",
        "key": "t_bytes_memory_ptr",
        "label": "mapping(bytes => struct Endpoint.StoredPayload)",
        "numberOfBytes": "32",
        "value": "t_struct(StoredPayload)2804_storage"
      },
      "t_mapping(t_bytes_memory_ptr,t_uint64)": {
        "encoding": "mapping",
        "key": "t_bytes_memory_ptr",
        "label": "mapping(bytes => uint64)",
        "numberOfBytes": "32",
        "value": "t_uint64"
      },
      "t_mapping(t_uint16,t_contract(ILayerZeroMessagingLibrary)5572)": {
        "encoding": "mapping",
        "key": "t_uint16",
        "label": "mapping(uint16 => contract ILayerZeroMessagingLibrary)",
        "numberOfBytes": "32",
        "value": "t_contract(ILayerZeroMessagingLibrary)5572"
      },
      "t_mapping(t_uint16,t_mapping(t_address,t_uint64))": {
        "encoding": "mapping",
        "key": "t_uint16",
        "label": "mapping(uint16 => mapping(address => uint64))",
        "numberOfBytes": "32",
        "value": "t_mapping(t_address,t_uint64)"
      },
      "t_mapping(t_uint16,t_mapping(t_bytes_memory_ptr,t_struct(StoredPayload)2804_storage))": {
        "encoding": "mapping",
        "key": "t_uint16",
        "label": "mapping(uint16 => mapping(bytes => struct Endpoint.StoredPayload))",
        "numberOfBytes": "32",
        "value": "t_mapping(t_bytes_memory_ptr,t_struct(StoredPayload)2804_storage)"
      },
      "t_mapping(t_uint16,t_mapping(t_bytes_memory_ptr,t_uint64))": {
        "encoding": "mapping",
        "key": "t_uint16",
        "label": "mapping(uint16 => mapping(bytes => uint64))",
        "numberOfBytes": "32",
        "value": "t_mapping(t_bytes_memory_ptr,t_uint64)"
      },
      "t_struct(LibraryConfig)2797_storage": {
        "encoding": "inplace",
        "label": "struct Endpoint.LibraryConfig",
        "members": [
          {
            "astId": 2789,
            "contract": "contracts/Endpoint.sol:Endpoint",
            "label": "sendVersion",
            "offset": 0,
            "slot": "0",
            "type": "t_uint16"
          },
          {
            "astId": 2791,
            "contract": "contracts/Endpoint.sol:Endpoint",
            "label": "receiveVersion",
            "offset": 2,
            "slot": "0",
            "type": "t_uint16"
          },
          {
            "astId": 2793,
            "contract": "contracts/Endpoint.sol:Endpoint",
            "label": "receiveLibraryAddress",
            "offset": 4,
            "slot": "0",
            "type": "t_address"
          },
          {
            "astId": 2796,
            "contract": "contracts/Endpoint.sol:Endpoint",
            "label": "sendLibrary",
            "offset": 0,
            "slot": "1",
            "type": "t_contract(ILayerZeroMessagingLibrary)5572"
          }
        ],
        "numberOfBytes": "64"
      },
      "t_struct(StoredPayload)2804_storage": {
        "encoding": "inplace",
        "label": "struct Endpoint.StoredPayload",
        "members": [
          {
            "astId": 2799,
            "contract": "contracts/Endpoint.sol:Endpoint",
            "label": "payloadLength",
            "offset": 0,
            "slot": "0",
            "type": "t_uint64"
          },
          {
            "astId": 2801,
            "contract": "contracts/Endpoint.sol:Endpoint",
            "label": "dstAddress",
            "offset": 8,
            "slot": "0",
            "type": "t_address"
          },
          {
            "astId": 2803,
            "contract": "contracts/Endpoint.sol:Endpoint",
            "label": "payloadHash",
            "offset": 0,
            "slot": "1",
            "type": "t_bytes32"
          }
        ],
        "numberOfBytes": "64"
      },
      "t_uint16": {
        "encoding": "inplace",
        "label": "uint16",
        "numberOfBytes": "2"
      },
      "t_uint64": {
        "encoding": "inplace",
        "label": "uint64",
        "numberOfBytes": "8"
      },
      "t_uint8": {
        "encoding": "inplace",
        "label": "uint8",
        "numberOfBytes": "1"
      }
    }
  }
}