{
  "address": "0x8B6b4548A4D4B1B8786a590264D63374190fFafa",
  "abi": [
    {
      "inputs": [
        {
          "internalType": "string",
          "name": "_baseURI",
          "type": "string"
        },
        {
          "internalType": "address",
          "name": "_layerZeroEndpoint",
          "type": "address"
        },
        {
          "internalType": "uint256",
          "name": "_startMintId",
          "type": "uint256"
        },
        {
          "internalType": "uint256",
          "name": "_endMintId",
          "type": "uint256"
        },
        {
          "internalType": "address",
          "name": "_usdcAddress",
          "type": "address"
        },
        {
          "internalType": "address",
          "name": "_treasuryAddress",
          "type": "address"
        }
      ],
      "stateMutability": "nonpayable",
      "type": "constructor"
    },
    {
      "anonymous": false,
      "inputs": [
        {
          "indexed": true,
          "internalType": "address",
          "name": "owner",
          "type": "address"
        },
        {
          "indexed": true,
          "internalType": "address",
          "name": "approved",
          "type": "address"
        },
        {
          "indexed": true,
          "internalType": "uint256",
          "name": "tokenId",
          "type": "uint256"
        }
      ],
      "name": "Approval",
      "type": "event"
    },
    {
      "anonymous": false,
      "inputs": [
        {
          "indexed": true,
          "internalType": "address",
          "name": "owner",
          "type": "address"
        },
        {
          "indexed": true,
          "internalType": "address",
          "name": "operator",
          "type": "address"
        },
        {
          "indexed": false,
          "internalType": "bool",
          "name": "approved",
          "type": "bool"
        }
      ],
      "name": "ApprovalForAll",
      "type": "event"
    },
    {
      "anonymous": false,
      "inputs": [
        {
          "indexed": false,
          "internalType": "uint16",
          "name": "_srcChainId",
          "type": "uint16"
        },
        {
          "indexed": false,
          "internalType": "bytes",
          "name": "_srcAddress",
          "type": "bytes"
        },
        {
          "indexed": false,
          "internalType": "uint64",
          "name": "_nonce",
          "type": "uint64"
        },
        {
          "indexed": false,
          "internalType": "bytes",
          "name": "_payload",
          "type": "bytes"
        }
      ],
      "name": "MessageFailed",
      "type": "event"
    },
    {
      "anonymous": false,
      "inputs": [
        {
          "indexed": true,
          "internalType": "address",
          "name": "previousOwner",
          "type": "address"
        },
        {
          "indexed": true,
          "internalType": "address",
          "name": "newOwner",
          "type": "address"
        }
      ],
      "name": "OwnershipTransferred",
      "type": "event"
    },
    {
      "anonymous": false,
      "inputs": [
        {
          "indexed": true,
          "internalType": "uint16",
          "name": "_srcChainId",
          "type": "uint16"
        },
        {
          "indexed": true,
          "internalType": "bytes",
          "name": "_srcAddress",
          "type": "bytes"
        },
        {
          "indexed": true,
          "internalType": "address",
          "name": "_toAddress",
          "type": "address"
        },
        {
          "indexed": false,
          "internalType": "uint256",
          "name": "_tokenId",
          "type": "uint256"
        },
        {
          "indexed": false,
          "internalType": "uint64",
          "name": "_nonce",
          "type": "uint64"
        }
      ],
      "name": "ReceiveFromChain",
      "type": "event"
    },
    {
      "anonymous": false,
      "inputs": [
        {
          "indexed": true,
          "internalType": "address",
          "name": "_sender",
          "type": "address"
        },
        {
          "indexed": true,
          "internalType": "uint16",
          "name": "_dstChainId",
          "type": "uint16"
        },
        {
          "indexed": true,
          "internalType": "bytes",
          "name": "_toAddress",
          "type": "bytes"
        },
        {
          "indexed": false,
          "internalType": "uint256",
          "name": "_tokenId",
          "type": "uint256"
        },
        {
          "indexed": false,
          "internalType": "uint64",
          "name": "_nonce",
          "type": "uint64"
        }
      ],
      "name": "SendToChain",
      "type": "event"
    },
    {
      "anonymous": false,
      "inputs": [
        {
          "indexed": false,
          "internalType": "uint16",
          "name": "_srcChainId",
          "type": "uint16"
        },
        {
          "indexed": false,
          "internalType": "bytes",
          "name": "_srcAddress",
          "type": "bytes"
        }
      ],
      "name": "SetTrustedRemote",
      "type": "event"
    },
    {
      "anonymous": false,
      "inputs": [
        {
          "indexed": true,
          "internalType": "address",
          "name": "from",
          "type": "address"
        },
        {
          "indexed": true,
          "internalType": "address",
          "name": "to",
          "type": "address"
        },
        {
          "indexed": true,
          "internalType": "uint256",
          "name": "tokenId",
          "type": "uint256"
        }
      ],
      "name": "Transfer",
      "type": "event"
    },
    {
      "inputs": [
        {
          "internalType": "address",
          "name": "to",
          "type": "address"
        },
        {
          "internalType": "uint256",
          "name": "tokenId",
          "type": "uint256"
        }
      ],
      "name": "approve",
      "outputs": [],
      "stateMutability": "nonpayable",
      "type": "function"
    },
    {
      "inputs": [
        {
          "internalType": "address",
          "name": "owner",
          "type": "address"
        }
      ],
      "name": "balanceOf",
      "outputs": [
        {
          "internalType": "uint256",
          "name": "",
          "type": "uint256"
        }
      ],
      "stateMutability": "view",
      "type": "function"
    },
    {
      "inputs": [
        {
          "internalType": "address",
          "name": "",
          "type": "address"
        }
      ],
      "name": "countMinted",
      "outputs": [
        {
          "internalType": "uint256",
          "name": "",
          "type": "uint256"
        }
      ],
      "stateMutability": "view",
      "type": "function"
    },
    {
      "inputs": [],
      "name": "currentURI",
      "outputs": [
        {
          "internalType": "string",
          "name": "",
          "type": "string"
        }
      ],
      "stateMutability": "view",
      "type": "function"
    },
    {
      "inputs": [
        {
          "internalType": "uint16",
          "name": "_dstChainId",
          "type": "uint16"
        },
        {
          "internalType": "bytes",
          "name": "_toAddress",
          "type": "bytes"
        },
        {
          "internalType": "uint256",
          "name": "_tokenId",
          "type": "uint256"
        },
        {
          "internalType": "bool",
          "name": "_useZro",
          "type": "bool"
        },
        {
          "internalType": "bytes",
          "name": "_adapterParams",
          "type": "bytes"
        }
      ],
      "name": "estimateSendFee",
      "outputs": [
        {
          "internalType": "uint256",
          "name": "nativeFee",
          "type": "uint256"
        },
        {
          "internalType": "uint256",
          "name": "zroFee",
          "type": "uint256"
        }
      ],
      "stateMutability": "view",
      "type": "function"
    },
    {
      "inputs": [
        {
          "internalType": "uint16",
          "name": "",
          "type": "uint16"
        },
        {
          "internalType": "bytes",
          "name": "",
          "type": "bytes"
        },
        {
          "internalType": "uint64",
          "name": "",
          "type": "uint64"
        }
      ],
      "name": "failedMessages",
      "outputs": [
        {
          "internalType": "bytes32",
          "name": "",
          "type": "bytes32"
        }
      ],
      "stateMutability": "view",
      "type": "function"
    },
    {
      "inputs": [],
      "name": "flMerkleRoot",
      "outputs": [
        {
          "internalType": "bytes32",
          "name": "",
          "type": "bytes32"
        }
      ],
      "stateMutability": "view",
      "type": "function"
    },
    {
      "inputs": [
        {
          "internalType": "uint16",
          "name": "_srcChainId",
          "type": "uint16"
        },
        {
          "internalType": "bytes",
          "name": "_srcAddress",
          "type": "bytes"
        }
      ],
      "name": "forceResumeReceive",
      "outputs": [],
      "stateMutability": "nonpayable",
      "type": "function"
    },
    {
      "inputs": [
        {
          "internalType": "bytes32[]",
          "name": "_merkleProof",
          "type": "bytes32[]"
        }
      ],
      "name": "freeListMint",
      "outputs": [
        {
          "internalType": "uint256",
          "name": "",
          "type": "uint256"
        }
      ],
      "stateMutability": "payable",
      "type": "function"
    },
    {
      "inputs": [
        {
          "internalType": "uint256",
          "name": "tokenId",
          "type": "uint256"
        }
      ],
      "name": "getApproved",
      "outputs": [
        {
          "internalType": "address",
          "name": "",
          "type": "address"
        }
      ],
      "stateMutability": "view",
      "type": "function"
    },
    {
      "inputs": [
        {
          "internalType": "uint16",
          "name": "_version",
          "type": "uint16"
        },
        {
          "internalType": "uint16",
          "name": "_chainId",
          "type": "uint16"
        },
        {
          "internalType": "address",
          "name": "",
          "type": "address"
        },
        {
          "internalType": "uint256",
          "name": "_configType",
          "type": "uint256"
        }
      ],
      "name": "getConfig",
      "outputs": [
        {
          "internalType": "bytes",
          "name": "",
          "type": "bytes"
        }
      ],
      "stateMutability": "view",
      "type": "function"
    },
    {
      "inputs": [],
      "name": "glMerkleRoot",
      "outputs": [
        {
          "internalType": "bytes32",
          "name": "",
          "type": "bytes32"
        }
      ],
      "stateMutability": "view",
      "type": "function"
    },
    {
      "inputs": [
        {
          "internalType": "bytes32[]",
          "name": "_merkleProof",
          "type": "bytes32[]"
        }
      ],
      "name": "greenListMint",
      "outputs": [
        {
          "internalType": "uint256",
          "name": "",
          "type": "uint256"
        }
      ],
      "stateMutability": "payable",
      "type": "function"
    },
    {
      "inputs": [],
      "name": "greenPrice",
      "outputs": [
        {
          "internalType": "uint256",
          "name": "",
          "type": "uint256"
        }
      ],
      "stateMutability": "view",
      "type": "function"
    },
    {
      "inputs": [],
      "name": "initPoz",
      "outputs": [
        {
          "internalType": "uint256",
          "name": "",
          "type": "uint256"
        }
      ],
      "stateMutability": "view",
      "type": "function"
    },
    {
      "inputs": [
        {
          "internalType": "address",
          "name": "owner",
          "type": "address"
        },
        {
          "internalType": "address",
          "name": "operator",
          "type": "address"
        }
      ],
      "name": "isApprovedForAll",
      "outputs": [
        {
          "internalType": "bool",
          "name": "",
          "type": "bool"
        }
      ],
      "stateMutability": "view",
      "type": "function"
    },
    {
      "inputs": [
        {
          "internalType": "address",
          "name": "",
          "type": "address"
        }
      ],
      "name": "isFLClaimed",
      "outputs": [
        {
          "internalType": "bool",
          "name": "",
          "type": "bool"
        }
      ],
      "stateMutability": "view",
      "type": "function"
    },
    {
      "inputs": [
        {
          "internalType": "address",
          "name": "",
          "type": "address"
        }
      ],
      "name": "isGLClaimed",
      "outputs": [
        {
          "internalType": "bool",
          "name": "",
          "type": "bool"
        }
      ],
      "stateMutability": "view",
      "type": "function"
    },
    {
      "inputs": [],
      "name": "isPaused",
      "outputs": [
        {
          "internalType": "bool",
          "name": "",
          "type": "bool"
        }
      ],
      "stateMutability": "view",
      "type": "function"
    },
    {
      "inputs": [
        {
          "internalType": "uint16",
          "name": "_srcChainId",
          "type": "uint16"
        },
        {
          "internalType": "bytes",
          "name": "_srcAddress",
          "type": "bytes"
        }
      ],
      "name": "isTrustedRemote",
      "outputs": [
        {
          "internalType": "bool",
          "name": "",
          "type": "bool"
        }
      ],
      "stateMutability": "view",
      "type": "function"
    },
    {
      "inputs": [],
      "name": "lzEndpoint",
      "outputs": [
        {
          "internalType": "contract ILayerZeroEndpoint",
          "name": "",
          "type": "address"
        }
      ],
      "stateMutability": "view",
      "type": "function"
    },
    {
      "inputs": [
        {
          "internalType": "uint16",
          "name": "_srcChainId",
          "type": "uint16"
        },
        {
          "internalType": "bytes",
          "name": "_srcAddress",
          "type": "bytes"
        },
        {
          "internalType": "uint64",
          "name": "_nonce",
          "type": "uint64"
        },
        {
          "internalType": "bytes",
          "name": "_payload",
          "type": "bytes"
        }
      ],
      "name": "lzReceive",
      "outputs": [],
      "stateMutability": "nonpayable",
      "type": "function"
    },
    {
      "inputs": [],
      "name": "maxMintId",
      "outputs": [
        {
          "internalType": "uint256",
          "name": "",
          "type": "uint256"
        }
      ],
      "stateMutability": "view",
      "type": "function"
    },
    {
      "inputs": [],
      "name": "name",
      "outputs": [
        {
          "internalType": "string",
          "name": "",
          "type": "string"
        }
      ],
      "stateMutability": "view",
      "type": "function"
    },
    {
      "inputs": [],
      "name": "nextMintId",
      "outputs": [
        {
          "internalType": "uint256",
          "name": "",
          "type": "uint256"
        }
      ],
      "stateMutability": "view",
      "type": "function"
    },
    {
      "inputs": [
        {
          "internalType": "uint16",
          "name": "_srcChainId",
          "type": "uint16"
        },
        {
          "internalType": "bytes",
          "name": "_srcAddress",
          "type": "bytes"
        },
        {
          "internalType": "uint64",
          "name": "_nonce",
          "type": "uint64"
        },
        {
          "internalType": "bytes",
          "name": "_payload",
          "type": "bytes"
        }
      ],
      "name": "nonblockingLzReceive",
      "outputs": [],
      "stateMutability": "nonpayable",
      "type": "function"
    },
    {
      "inputs": [],
      "name": "owner",
      "outputs": [
        {
          "internalType": "address",
          "name": "",
          "type": "address"
        }
      ],
      "stateMutability": "view",
      "type": "function"
    },
    {
      "inputs": [
        {
          "internalType": "uint256",
          "name": "tokenId",
          "type": "uint256"
        }
      ],
      "name": "ownerOf",
      "outputs": [
        {
          "internalType": "address",
          "name": "",
          "type": "address"
        }
      ],
      "stateMutability": "view",
      "type": "function"
    },
    {
      "inputs": [],
      "name": "publicDate",
      "outputs": [
        {
          "internalType": "uint256",
          "name": "",
          "type": "uint256"
        }
      ],
      "stateMutability": "view",
      "type": "function"
    },
    {
      "inputs": [
        {
          "internalType": "uint256",
          "name": "_mintCount",
          "type": "uint256"
        }
      ],
      "name": "publicMint",
      "outputs": [
        {
          "internalType": "uint256",
          "name": "",
          "type": "uint256"
        }
      ],
      "stateMutability": "payable",
      "type": "function"
    },
    {
      "inputs": [],
      "name": "publicPrice",
      "outputs": [
        {
          "internalType": "uint256",
          "name": "",
          "type": "uint256"
        }
      ],
      "stateMutability": "view",
      "type": "function"
    },
    {
      "inputs": [],
      "name": "renounceOwnership",
      "outputs": [],
      "stateMutability": "nonpayable",
      "type": "function"
    },
    {
      "inputs": [
        {
          "internalType": "uint16",
          "name": "_srcChainId",
          "type": "uint16"
        },
        {
          "internalType": "bytes",
          "name": "_srcAddress",
          "type": "bytes"
        },
        {
          "internalType": "uint64",
          "name": "_nonce",
          "type": "uint64"
        },
        {
          "internalType": "bytes",
          "name": "_payload",
          "type": "bytes"
        }
      ],
      "name": "retryMessage",
      "outputs": [],
      "stateMutability": "payable",
      "type": "function"
    },
    {
      "inputs": [
        {
          "internalType": "address",
          "name": "from",
          "type": "address"
        },
        {
          "internalType": "address",
          "name": "to",
          "type": "address"
        },
        {
          "internalType": "uint256",
          "name": "tokenId",
          "type": "uint256"
        }
      ],
      "name": "safeTransferFrom",
      "outputs": [],
      "stateMutability": "nonpayable",
      "type": "function"
    },
    {
      "inputs": [
        {
          "internalType": "address",
          "name": "from",
          "type": "address"
        },
        {
          "internalType": "address",
          "name": "to",
          "type": "address"
        },
        {
          "internalType": "uint256",
          "name": "tokenId",
          "type": "uint256"
        },
        {
          "internalType": "bytes",
          "name": "_data",
          "type": "bytes"
        }
      ],
      "name": "safeTransferFrom",
      "outputs": [],
      "stateMutability": "nonpayable",
      "type": "function"
    },
    {
      "inputs": [
        {
          "internalType": "address",
          "name": "_from",
          "type": "address"
        },
        {
          "internalType": "uint16",
          "name": "_dstChainId",
          "type": "uint16"
        },
        {
          "internalType": "bytes",
          "name": "_toAddress",
          "type": "bytes"
        },
        {
          "internalType": "uint256",
          "name": "_tokenId",
          "type": "uint256"
        },
        {
          "internalType": "address payable",
          "name": "_refundAddress",
          "type": "address"
        },
        {
          "internalType": "address",
          "name": "_zroPaymentAddress",
          "type": "address"
        },
        {
          "internalType": "bytes",
          "name": "_adapterParams",
          "type": "bytes"
        }
      ],
      "name": "sendFrom",
      "outputs": [],
      "stateMutability": "payable",
      "type": "function"
    },
    {
      "inputs": [
        {
          "internalType": "address",
          "name": "operator",
          "type": "address"
        },
        {
          "internalType": "bool",
          "name": "approved",
          "type": "bool"
        }
      ],
      "name": "setApprovalForAll",
      "outputs": [],
      "stateMutability": "nonpayable",
      "type": "function"
    },
    {
      "inputs": [
        {
          "internalType": "uint16",
          "name": "_version",
          "type": "uint16"
        },
        {
          "internalType": "uint16",
          "name": "_chainId",
          "type": "uint16"
        },
        {
          "internalType": "uint256",
          "name": "_configType",
          "type": "uint256"
        },
        {
          "internalType": "bytes",
          "name": "_config",
          "type": "bytes"
        }
      ],
      "name": "setConfig",
      "outputs": [],
      "stateMutability": "nonpayable",
      "type": "function"
    },
    {
      "inputs": [
        {
          "internalType": "address",
          "name": "_sender",
          "type": "address"
        },
        {
          "internalType": "uint256",
          "name": "_count",
          "type": "uint256"
        }
      ],
      "name": "setCountMinted",
      "outputs": [],
      "stateMutability": "nonpayable",
      "type": "function"
    },
    {
      "inputs": [
        {
          "internalType": "string",
          "name": "_currentURI",
          "type": "string"
        }
      ],
      "name": "setCurrentURI",
      "outputs": [],
      "stateMutability": "nonpayable",
      "type": "function"
    },
    {
      "inputs": [
        {
          "internalType": "address",
          "name": "_sender",
          "type": "address"
        },
        {
          "internalType": "bool",
          "name": "_isClamed",
          "type": "bool"
        }
      ],
      "name": "setFLClaimed",
      "outputs": [],
      "stateMutability": "nonpayable",
      "type": "function"
    },
    {
      "inputs": [
        {
          "internalType": "bytes32",
          "name": "_merkleRoot",
          "type": "bytes32"
        }
      ],
      "name": "setFLMerkleRoot",
      "outputs": [],
      "stateMutability": "nonpayable",
      "type": "function"
    },
    {
      "inputs": [
        {
          "internalType": "address",
          "name": "_sender",
          "type": "address"
        },
        {
          "internalType": "bool",
          "name": "_isClamed",
          "type": "bool"
        }
      ],
      "name": "setGLClaimed",
      "outputs": [],
      "stateMutability": "nonpayable",
      "type": "function"
    },
    {
      "inputs": [
        {
          "internalType": "bytes32",
          "name": "_merkleRoot",
          "type": "bytes32"
        }
      ],
      "name": "setGLMerkleRoot",
      "outputs": [],
      "stateMutability": "nonpayable",
      "type": "function"
    },
    {
      "inputs": [
        {
          "internalType": "uint256",
          "name": "_publicPrice",
          "type": "uint256"
        },
        {
          "internalType": "uint256",
          "name": "_greenPrice",
          "type": "uint256"
        }
      ],
      "name": "setMintPrice",
      "outputs": [],
      "stateMutability": "nonpayable",
      "type": "function"
    },
    {
      "inputs": [
        {
          "internalType": "bool",
          "name": "_isPaused",
          "type": "bool"
        }
      ],
      "name": "setPaused",
      "outputs": [],
      "stateMutability": "nonpayable",
      "type": "function"
    },
    {
      "inputs": [
        {
          "internalType": "uint256",
          "name": "_publicDate",
          "type": "uint256"
        }
      ],
      "name": "setPublicDate",
      "outputs": [],
      "stateMutability": "nonpayable",
      "type": "function"
    },
    {
      "inputs": [
        {
          "internalType": "uint16",
          "name": "_version",
          "type": "uint16"
        }
      ],
      "name": "setReceiveVersion",
      "outputs": [],
      "stateMutability": "nonpayable",
      "type": "function"
    },
    {
      "inputs": [
        {
          "internalType": "uint16",
          "name": "_version",
          "type": "uint16"
        }
      ],
      "name": "setSendVersion",
      "outputs": [],
      "stateMutability": "nonpayable",
      "type": "function"
    },
    {
      "inputs": [
        {
          "internalType": "uint256",
          "name": "_startMintId",
          "type": "uint256"
        },
        {
          "internalType": "uint256",
          "name": "_maxMintId",
          "type": "uint256"
        },
        {
          "internalType": "string",
          "name": "_newURI",
          "type": "string"
        }
      ],
      "name": "setSpecialPack",
      "outputs": [],
      "stateMutability": "nonpayable",
      "type": "function"
    },
    {
      "inputs": [
        {
          "internalType": "address",
          "name": "treasure",
          "type": "address"
        }
      ],
      "name": "setTreasuryWallet",
      "outputs": [],
      "stateMutability": "nonpayable",
      "type": "function"
    },
    {
      "inputs": [
        {
          "internalType": "uint16",
          "name": "_srcChainId",
          "type": "uint16"
        },
        {
          "internalType": "bytes",
          "name": "_srcAddress",
          "type": "bytes"
        }
      ],
      "name": "setTrustedRemote",
      "outputs": [],
      "stateMutability": "nonpayable",
      "type": "function"
    },
    {
      "inputs": [
        {
          "internalType": "address",
          "name": "_newAddress",
          "type": "address"
        }
      ],
      "name": "setUSDCToken",
      "outputs": [],
      "stateMutability": "nonpayable",
      "type": "function"
    },
    {
      "inputs": [
        {
          "internalType": "bytes4",
          "name": "interfaceId",
          "type": "bytes4"
        }
      ],
      "name": "supportsInterface",
      "outputs": [
        {
          "internalType": "bool",
          "name": "",
          "type": "bool"
        }
      ],
      "stateMutability": "view",
      "type": "function"
    },
    {
      "inputs": [],
      "name": "symbol",
      "outputs": [
        {
          "internalType": "string",
          "name": "",
          "type": "string"
        }
      ],
      "stateMutability": "view",
      "type": "function"
    },
    {
      "inputs": [
        {
          "internalType": "uint256",
          "name": "",
          "type": "uint256"
        }
      ],
      "name": "tokenBalance",
      "outputs": [
        {
          "internalType": "uint256",
          "name": "",
          "type": "uint256"
        }
      ],
      "stateMutability": "view",
      "type": "function"
    },
    {
      "inputs": [
        {
          "internalType": "uint256",
          "name": "tokenId",
          "type": "uint256"
        }
      ],
      "name": "tokenURI",
      "outputs": [
        {
          "internalType": "string",
          "name": "",
          "type": "string"
        }
      ],
      "stateMutability": "view",
      "type": "function"
    },
    {
      "inputs": [
        {
          "internalType": "uint256",
          "name": "",
          "type": "uint256"
        }
      ],
      "name": "tokenURIs",
      "outputs": [
        {
          "internalType": "string",
          "name": "",
          "type": "string"
        }
      ],
      "stateMutability": "view",
      "type": "function"
    },
    {
      "inputs": [
        {
          "internalType": "address",
          "name": "from",
          "type": "address"
        },
        {
          "internalType": "address",
          "name": "to",
          "type": "address"
        },
        {
          "internalType": "uint256",
          "name": "tokenId",
          "type": "uint256"
        }
      ],
      "name": "transferFrom",
      "outputs": [],
      "stateMutability": "nonpayable",
      "type": "function"
    },
    {
      "inputs": [
        {
          "internalType": "address",
          "name": "newOwner",
          "type": "address"
        }
      ],
      "name": "transferOwnership",
      "outputs": [],
      "stateMutability": "nonpayable",
      "type": "function"
    },
    {
      "inputs": [],
      "name": "treasuryWallet",
      "outputs": [
        {
          "internalType": "address",
          "name": "",
          "type": "address"
        }
      ],
      "stateMutability": "view",
      "type": "function"
    },
    {
      "inputs": [
        {
          "internalType": "uint16",
          "name": "",
          "type": "uint16"
        }
      ],
      "name": "trustedRemoteLookup",
      "outputs": [
        {
          "internalType": "bytes",
          "name": "",
          "type": "bytes"
        }
      ],
      "stateMutability": "view",
      "type": "function"
    },
    {
      "inputs": [
        {
          "internalType": "uint256",
          "name": "",
          "type": "uint256"
        }
      ],
      "name": "withdrawTimes",
      "outputs": [
        {
          "internalType": "uint256",
          "name": "",
          "type": "uint256"
        }
      ],
      "stateMutability": "view",
      "type": "function"
    }
  ],
  "transactionHash": "0xc1da0d5b63ca8f1b6608c0ae134754ba7d19acc79ed17efa0afabf83403be79a",
  "args": [
    "https://ipfs.io/ipfs/QmXDPs3xhELtUs1Tzeufn55N3itVyf1S1W2WrGinQ84FSc/",
    "0xfC16ce1682F5c135590F894650bd1cDDD0c56221",
    2022,
    2222,
    "0x463d55d6416a7CCa1f7C005a6AC8f0dD70a6f410",
    "0x3A54802752fEFDc1aF2CD0b6DFA4F24694bDEE33"
  ],
  "numDeployments": 1,
  "solcInputHash": "5faee6f53037e29cc79f2c4a495cf12f",
  "bytecode": "0x60a06040526000600d819055600e55603c600f55426010556012805460ff191690553480156200002e57600080fd5b5060405162004c9138038062004c91833981016040819052620000519162000347565b6040518060400160405280600f81526020016e141bde9e9b195b985d5d1cd3d39195608a1b8152506040518060400160405280600a815260200169141bde9e9b195b985d5d60b21b8152508787878787878787868282828080620000c4620000be6200015b60201b60201c565b6200015f565b60601b6001600160601b03191660805250508151620000eb90600390602085019062000284565b5080516200010190600490602084019062000284565b50506001600a55505050600b85905550600c839055601c80546001600160a01b0319166001600160a01b0383161790556200013c86620001af565b620001478262000217565b5050505050505050505050505050620004bc565b3390565b600080546001600160a01b038381166001600160a01b0319831681178455604051919092169283917f8be0079c531659141344cd1fd0a4f28419497f9722a3daafe3b4186f6b6457e09190a35050565b6000546001600160a01b03163314620001fe5760405162461bcd60e51b8152602060048201819052602482015260008051602062004c7183398151915260448201526064015b60405180910390fd5b80516200021390601190602084019062000284565b5050565b6000546001600160a01b03163314620002625760405162461bcd60e51b8152602060048201819052602482015260008051602062004c718339815191526044820152606401620001f5565b601b80546001600160a01b0319166001600160a01b0392909216919091179055565b828054620002929062000469565b90600052602060002090601f016020900481019282620002b6576000855562000301565b82601f10620002d157805160ff191683800117855562000301565b8280016001018555821562000301579182015b8281111562000301578251825591602001919060010190620002e4565b506200030f92915062000313565b5090565b5b808211156200030f576000815560010162000314565b80516001600160a01b03811681146200034257600080fd5b919050565b60008060008060008060c0878903121562000360578182fd5b86516001600160401b038082111562000377578384fd5b818901915089601f8301126200038b578384fd5b815181811115620003a057620003a0620004a6565b604051601f8201601f19908116603f01168101908382118183101715620003cb57620003cb620004a6565b81604052828152602093508c84848701011115620003e7578687fd5b8691505b828210156200040a5784820184015181830185015290830190620003eb565b828211156200041b57868484830101525b99506200042d9150508982016200032a565b9650505060408701519350606087015192506200044d608088016200032a565b91506200045d60a088016200032a565b90509295509295509295565b600181811c908216806200047e57607f821691505b60208210811415620004a057634e487b7160e01b600052602260045260246000fd5b50919050565b634e487b7160e01b600052604160045260246000fd5b60805160601c6147576200051a600039600081816109ca01528181610bc301528181610e940152818161115a015281816112710152818161157501528181611bd90152818161228901528181612a87015261327e01526147576000f3fe6080604052600436106103b75760003560e01c806370a08231116101f2578063b47317161161010d578063e1d4c870116100a0578063f2fde38b1161006f578063f2fde38b14610b58578063f36bc30d14610b78578063f5ecbdbc14610b8b578063fb0bc9d714610bab57600080fd5b8063e1d4c87014610ae2578063e985e9c514610af8578063ea9d6d2914610b18578063eb8d72b714610b3857600080fd5b8063c87b56dd116100dc578063c87b56dd14610a7c578063cbed8b9c14610a9c578063d1deba1f14610abc578063dd68832314610acf57600080fd5b8063b4731716146109ec578063b88d4fde14610a0c578063bd89cc7114610a2c578063c32e00fe14610a5c57600080fd5b806395d89b4111610185578063a945bf8011610154578063a945bf8014610958578063a966fa331461096e578063b187bd261461099e578063b353aaa7146109b857600080fd5b806395d89b41146108ed578063a22cb46514610902578063a80d71bb14610922578063a8602fea1461093857600080fd5b80637e10ab0d116101c15780637e10ab0d1461086257806387b8ff271461088f5780638da5cb5b146108af5780639511e65c146108cd57600080fd5b806370a08231146107f7578063715018a6146108175780637533d7881461082c57806378624f091461084c57600080fd5b80633d8b38f6116102e257806351d982b41161027557806363b468ce1161024457806363b468ce1461078b57806366ad5c8a146107a15780636aa99da3146107c15780636c8b703f146107d757600080fd5b806351d982b4146106d957806357a73609146106ef5780635b8c41e61461071c5780636352211e1461076b57600080fd5b80634626402b116102b15780634626402b1461066357806349afc6e51461068357806351463d5b146106b057806351905636146106c657600080fd5b80633d8b38f6146105e357806342842e0e1461060357806342d65a8d14610623578063450a32921461064357600080fd5b80630f5a9d011161035a578063197e6cf011610329578063197e6cf01461054d57806323b872dd1461056d5780632a205e3d1461058d5780632db11544146105c257600080fd5b80630f5a9d01146104cd5780630f78a4d5146104ed57806310ddb1371461050d57806316c38b3c1461052d57600080fd5b806306fdde031161039657806306fdde031461043357806307e0db1714610455578063081812fc14610475578063095ea7b3146104ad57600080fd5b80621d3567146103bc57806301ffc9a7146103de5780630442bfa814610413575b600080fd5b3480156103c857600080fd5b506103dc6103d7366004613e01565b610bc0565b005b3480156103ea57600080fd5b506103fe6103f9366004613bc9565b610d67565b60405190151581526020015b60405180910390f35b34801561041f57600080fd5b506103dc61042e366004613f32565b610d8a565b34801561043f57600080fd5b50610448610dbf565b60405161040a91906141a6565b34801561046157600080fd5b506103dc610470366004613ca9565b610e51565b34801561048157600080fd5b50610495610490366004613bb1565b610ef5565b6040516001600160a01b03909116815260200161040a565b3480156104b957600080fd5b506103dc6104c8366004613adf565b610f7d565b3480156104d957600080fd5b506103dc6104e83660046138ff565b611093565b3480156104f957600080fd5b506103dc6105083660046139fc565b6110df565b34801561051957600080fd5b506103dc610528366004613ca9565b611117565b34801561053957600080fd5b506103dc610548366004613b79565b611191565b34801561055957600080fd5b506103dc610568366004613bb1565b6111d1565b34801561057957600080fd5b506103dc610588366004613953565b611200565b34801561059957600080fd5b506105ad6105a8366004613d13565b611232565b6040805192835260208301919091520161040a565b6105d56105d0366004613bb1565b61130c565b60405190815260200161040a565b3480156105ef57600080fd5b506103fe6105fe366004613cc3565b61144d565b34801561060f57600080fd5b506103dc61061e366004613953565b611519565b34801561062f57600080fd5b506103dc61063e366004613cc3565b611534565b34801561064f57600080fd5b506103dc61065e366004613f76565b6115e5565b34801561066f57600080fd5b50601c54610495906001600160a01b031681565b34801561068f57600080fd5b506105d561069e366004613bb1565b60166020526000908152604090205481565b3480156106bc57600080fd5b506105d560105481565b6103dc6106d4366004613a29565b61163c565b3480156106e557600080fd5b506105d5600e5481565b3480156106fb57600080fd5b506105d561070a366004613bb1565b60176020526000908152604090205481565b34801561072857600080fd5b506105d5610737366004613da2565b6002602090815260009384526040808520845180860184018051928152908401958401959095209452929052825290205481565b34801561077757600080fd5b50610495610786366004613bb1565b61164b565b34801561079757600080fd5b506105d560195481565b3480156107ad57600080fd5b506103dc6107bc366004613e01565b6116c2565b3480156107cd57600080fd5b506105d5600b5481565b3480156107e357600080fd5b506104486107f2366004613bb1565b611732565b34801561080357600080fd5b506105d56108123660046138ff565b6117cc565b34801561082357600080fd5b506103dc611853565b34801561083857600080fd5b50610448610847366004613ca9565b611889565b34801561085857600080fd5b506105d5601a5481565b34801561086e57600080fd5b506105d561087d3660046138ff565b60136020526000908152604090205481565b34801561089b57600080fd5b506103dc6108aa3660046139fc565b6118a2565b3480156108bb57600080fd5b506000546001600160a01b0316610495565b3480156108d957600080fd5b506103dc6108e8366004613adf565b6118d6565b3480156108f957600080fd5b5061044861191d565b34801561090e57600080fd5b506103dc61091d3660046139fc565b61192c565b34801561092e57600080fd5b506105d5600f5481565b34801561094457600080fd5b506103dc6109533660046138ff565b611937565b34801561096457600080fd5b506105d5600d5481565b34801561097a57600080fd5b506103fe6109893660046138ff565b60156020526000908152604090205460ff1681565b3480156109aa57600080fd5b506012546103fe9060ff1681565b3480156109c457600080fd5b506104957f000000000000000000000000000000000000000000000000000000000000000081565b3480156109f857600080fd5b506103dc610a07366004613c77565b611983565b348015610a1857600080fd5b506103dc610a27366004613993565b6119c0565b348015610a3857600080fd5b506103fe610a473660046138ff565b60146020526000908152604090205460ff1681565b348015610a6857600080fd5b506103dc610a77366004613bb1565b6119f2565b348015610a8857600080fd5b50610448610a97366004613bb1565b611a21565b348015610aa857600080fd5b506103dc610ab7366004613ec6565b611b98565b6103dc610aca366004613e01565b611c4f565b6105d5610add366004613b0a565b611da1565b348015610aee57600080fd5b506105d5600c5481565b348015610b0457600080fd5b506103fe610b1336600461391b565b611f54565b348015610b2457600080fd5b506103dc610b33366004613bb1565b611f82565b348015610b4457600080fd5b506103dc610b53366004613cc3565b611fb1565b348015610b6457600080fd5b506103dc610b733660046138ff565b61203a565b6105d5610b86366004613b0a565b6120d2565b348015610b9757600080fd5b50610448610ba6366004613e7a565b612258565b348015610bb757600080fd5b5061044861230f565b337f00000000000000000000000000000000000000000000000000000000000000006001600160a01b031614610c3d5760405162461bcd60e51b815260206004820152601e60248201527f4c7a4170703a20696e76616c696420656e64706f696e742063616c6c6572000060448201526064015b60405180910390fd5b61ffff841660009081526001602052604081208054610c5b90614627565b80601f0160208091040260200160405190810160405280929190818152602001828054610c8790614627565b8015610cd45780601f10610ca957610100808354040283529160200191610cd4565b820191906000526020600020905b815481529060010190602001808311610cb757829003601f168201915b5050505050905080518451148015610cf9575080805190602001208480519060200120145b610d545760405162461bcd60e51b815260206004820152602660248201527f4c7a4170703a20696e76616c696420736f757263652073656e64696e6720636f6044820152651b9d1c9858dd60d21b6064820152608401610c34565b610d608585858561231c565b5050505050565b60006001600160e01b031982161580610d845750610d848261240d565b92915050565b6000546001600160a01b03163314610db45760405162461bcd60e51b8152600401610c349061427e565b600d91909155600e55565b606060038054610dce90614627565b80601f0160208091040260200160405190810160405280929190818152602001828054610dfa90614627565b8015610e475780601f10610e1c57610100808354040283529160200191610e47565b820191906000526020600020905b815481529060010190602001808311610e2a57829003601f168201915b5050505050905090565b6000546001600160a01b03163314610e7b5760405162461bcd60e51b8152600401610c349061427e565b6040516307e0db1760e01b815261ffff821660048201527f00000000000000000000000000000000000000000000000000000000000000006001600160a01b0316906307e0db17906024015b600060405180830381600087803b158015610ee157600080fd5b505af1158015610d60573d6000803e3d6000fd5b6000610f008261244d565b610f615760405162461bcd60e51b815260206004820152602c60248201527f4552433732313a20617070726f76656420717565727920666f72206e6f6e657860448201526b34b9ba32b73a103a37b5b2b760a11b6064820152608401610c34565b506000908152600760205260409020546001600160a01b031690565b6000610f888261164b565b9050806001600160a01b0316836001600160a01b03161415610ff65760405162461bcd60e51b815260206004820152602160248201527f4552433732313a20617070726f76616c20746f2063757272656e74206f776e656044820152603960f91b6064820152608401610c34565b336001600160a01b038216148061101257506110128133611f54565b6110845760405162461bcd60e51b815260206004820152603860248201527f4552433732313a20617070726f76652063616c6c6572206973206e6f74206f7760448201527f6e6572206e6f7220617070726f76656420666f7220616c6c00000000000000006064820152608401610c34565b61108e838361246a565b505050565b6000546001600160a01b031633146110bd5760405162461bcd60e51b8152600401610c349061427e565b601b80546001600160a01b0319166001600160a01b0392909216919091179055565b6000546001600160a01b031633146111095760405162461bcd60e51b8152600401610c349061427e565b61111382826124d8565b5050565b6000546001600160a01b031633146111415760405162461bcd60e51b8152600401610c349061427e565b6040516310ddb13760e01b815261ffff821660048201527f00000000000000000000000000000000000000000000000000000000000000006001600160a01b0316906310ddb13790602401610ec7565b6000546001600160a01b031633146111bb5760405162461bcd60e51b8152600401610c349061427e565b6012805482151560ff1990911617905550565b50565b6000546001600160a01b031633146111fb5760405162461bcd60e51b8152600401610c349061427e565b601955565b61120b335b82612503565b6112275760405162461bcd60e51b8152600401610c34906142b3565b61108e8383836125cc565b6000806000868660405160200161124a9291906141b9565b60408051601f198184030181529082905263040a7bb160e41b825291506001600160a01b037f000000000000000000000000000000000000000000000000000000000000000016906340a7bb10906112ae908b90309086908b908b90600401614304565b604080518083038186803b1580156112c557600080fd5b505afa1580156112d9573d6000803e3d6000fd5b505050506040513d601f19601f820116820180604052508101906112fd9190613f53565b92509250509550959350505050565b60006010544210156113795760405162461bcd60e51b815260206004820152603060248201527f556e6976657273616c4f4e46543732313a205075626c6963206d696e7420697360448201526f206e6f74206f70656e6564207965742160801b6064820152608401610c34565b336000908152601360205260409020546003906113979084906144ab565b11156113f15760405162461bcd60e51b8152602060048201526024808201527f556e6976657273616c4f4e46543732313a204d696e7420636f756e74206c696d6044820152631a5d195960e21b6064820152608401610c34565b6113fd82600d54612768565b33600081815260136020526040902054611439919061141d9085906144ab565b6001600160a01b03909116600090815260136020526040902055565b6001600b54610d8491906145e4565b919050565b61ffff83166000908152600160205260408120805482919061146e90614627565b80601f016020809104026020016040519081016040528092919081815260200182805461149a90614627565b80156114e75780601f106114bc576101008083540402835291602001916114e7565b820191906000526020600020905b8154815290600101906020018083116114ca57829003601f168201915b5050505050905083836040516114fe929190614071565b60405180910390208180519060200120149150509392505050565b61108e838383604051806020016040528060008152506119c0565b6000546001600160a01b0316331461155e5760405162461bcd60e51b8152600401610c349061427e565b6040516342d65a8d60e01b81526001600160a01b037f000000000000000000000000000000000000000000000000000000000000000016906342d65a8d906115ae90869086908690600401614358565b600060405180830381600087803b1580156115c857600080fd5b505af11580156115dc573d6000803e3d6000fd5b50505050505050565b6000546001600160a01b0316331461160f5760405162461bcd60e51b8152600401610c349061427e565b600b839055600c829055805161162c9060119060208401906136d0565b506012805460ff19169055505050565b6115dc87878787878787612a26565b6000818152600560205260408120546001600160a01b031680610d845760405162461bcd60e51b815260206004820152602960248201527f4552433732313a206f776e657220717565727920666f72206e6f6e657869737460448201526832b73a103a37b5b2b760b91b6064820152608401610c34565b3330146117205760405162461bcd60e51b815260206004820152602660248201527f4e6f6e626c6f636b696e674c7a4170703a2063616c6c6572206d7573742062656044820152650204c7a4170760d41b6064820152608401610c34565b61172c84848484612b7d565b50505050565b6018602052600090815260409020805461174b90614627565b80601f016020809104026020016040519081016040528092919081815260200182805461177790614627565b80156117c45780601f10611799576101008083540402835291602001916117c4565b820191906000526020600020905b8154815290600101906020018083116117a757829003601f168201915b505050505081565b60006001600160a01b0382166118375760405162461bcd60e51b815260206004820152602a60248201527f4552433732313a2062616c616e636520717565727920666f7220746865207a65604482015269726f206164647265737360b01b6064820152608401610c34565b506001600160a01b031660009081526006602052604090205490565b6000546001600160a01b0316331461187d5760405162461bcd60e51b8152600401610c349061427e565b6118876000612c18565b565b6001602052600090815260409020805461174b90614627565b6000546001600160a01b031633146118cc5760405162461bcd60e51b8152600401610c349061427e565b6111138282612c68565b6000546001600160a01b031633146119005760405162461bcd60e51b8152600401610c349061427e565b6001600160a01b0391909116600090815260136020526040902055565b606060048054610dce90614627565b611113338383612c93565b6000546001600160a01b031633146119615760405162461bcd60e51b8152600401610c349061427e565b601c80546001600160a01b0319166001600160a01b0392909216919091179055565b6000546001600160a01b031633146119ad5760405162461bcd60e51b8152600401610c349061427e565b80516111139060119060208401906136d0565b6119ca3383612503565b6119e65760405162461bcd60e51b8152600401610c34906142b3565b61172c84848484612d62565b6000546001600160a01b03163314611a1c5760405162461bcd60e51b8152600401610c349061427e565b601a55565b6060611a2c8261244d565b611a925760405162461bcd60e51b815260206004820152603160248201527f45524337323155524953746f726167653a2055524920717565727920666f72206044820152703737b732bc34b9ba32b73a103a37b5b2b760791b6064820152608401610c34565b60008281526009602052604081208054611aab90614627565b80601f0160208091040260200160405190810160405280929190818152602001828054611ad790614627565b8015611b245780601f10611af957610100808354040283529160200191611b24565b820191906000526020600020905b815481529060010190602001808311611b0757829003601f168201915b505050505090506000611b4260408051602081019091526000815290565b9050805160001415611b55575092915050565b815115611b87578082604051602001611b6f92919061409d565b60405160208183030381529060405292505050919050565b611b9084612d95565b949350505050565b6000546001600160a01b03163314611bc25760405162461bcd60e51b8152600401610c349061427e565b6040516332fb62e760e21b81526001600160a01b037f0000000000000000000000000000000000000000000000000000000000000000169063cbed8b9c90611c169088908890889088908890600401614426565b600060405180830381600087803b158015611c3057600080fd5b505af1158015611c44573d6000803e3d6000fd5b505050505050505050565b61ffff84166000908152600260205260408082209051611c70908690614081565b90815260408051602092819003830190206001600160401b03861660009081529252902054905080611cf05760405162461bcd60e51b815260206004820152602360248201527f4e6f6e626c6f636b696e674c7a4170703a206e6f2073746f726564206d65737360448201526261676560e81b6064820152608401610c34565b815160208301208114611d4f5760405162461bcd60e51b815260206004820152602160248201527f4e6f6e626c6f636b696e674c7a4170703a20696e76616c6964207061796c6f616044820152601960fa1b6064820152608401610c34565b61ffff85166000908152600260205260408082209051611d70908790614081565b90815260408051602092819003830190206001600160401b03871660009081529252902055610d6085858585612b7d565b600062015180601054611db491906145e4565b421015611dd35760405162461bcd60e51b8152600401610c349061422d565b8282611e4b82828080602002602001604051908101604052809392919081815260200183836020028082843760009201919091525050601a546040516bffffffffffffffffffffffff193360601b16602082015290925060340190505b60405160208183030381529060405280519060200120612e6d565b611eb05760405162461bcd60e51b815260206004820152603060248201527f556e6976657273616c4f4e46543732313a2041646472657373206973204e4f5460448201526f20467265656c6973746564207965742160801b6064820152608401610c34565b3360009081526015602052604090205460ff1615611f255760405162461bcd60e51b815260206004820152602c60248201527f556e6976657273616c4f4e46543732313a20467265656e6c69737420616c726560448201526b61647920636c61696d65642160a01b6064820152608401610c34565b611f3160016000612768565b611f3c336001612c68565b6001600b54611f4b91906145e4565b95945050505050565b6001600160a01b03918216600090815260086020908152604080832093909416825291909152205460ff1690565b6000546001600160a01b03163314611fac5760405162461bcd60e51b8152600401610c349061427e565b601055565b6000546001600160a01b03163314611fdb5760405162461bcd60e51b8152600401610c349061427e565b61ffff83166000908152600160205260409020611ff9908383613754565b507ffa41487ad5d6728f0b19276fa1eddc16558578f5109fc39d2dc33c3230470dab83838360405161202d93929190614358565b60405180910390a1505050565b6000546001600160a01b031633146120645760405162461bcd60e51b8152600401610c349061427e565b6001600160a01b0381166120c95760405162461bcd60e51b815260206004820152602660248201527f4f776e61626c653a206e6577206f776e657220697320746865207a65726f206160448201526564647265737360d01b6064820152608401610c34565b6111ce81612c18565b6000620151806010546120e591906145e4565b4210156121045760405162461bcd60e51b8152600401610c349061422d565b8282612165828280806020026020016040519081016040528093929190818152602001838360200280828437600092019190915250506019546040516bffffffffffffffffffffffff193360601b1660208201529092506034019050611e30565b6121cb5760405162461bcd60e51b815260206004820152603160248201527f556e6976657273616c4f4e46543732313a2041646472657373206973204e4f5460448201527020477265656e6c6973746564207965742160781b6064820152608401610c34565b3360009081526014602052604090205460ff16156122405760405162461bcd60e51b815260206004820152602c60248201527f556e6976657273616c4f4e46543732313a20477265656e6c69737420616c726560448201526b61647920636c61696d65642160a01b6064820152608401610c34565b61224d6001600e54612768565b611f3c3360016124d8565b604051633d7b2f6f60e21b815261ffff808616600483015284166024820152306044820152606481018290526060907f00000000000000000000000000000000000000000000000000000000000000006001600160a01b03169063f5ecbdbc9060840160006040518083038186803b1580156122d357600080fd5b505afa1580156122e7573d6000803e3d6000fd5b505050506040513d6000823e601f3d908101601f19168201604052611f4b9190810190613c01565b6011805461174b90614627565b604051633356ae4560e11b815230906366ad5c8a906123459087908790879087906004016143dd565b600060405180830381600087803b15801561235f57600080fd5b505af1925050508015612370575060015b61172c578080519060200120600260008661ffff1661ffff168152602001908152602001600020846040516123a59190614081565b9081526040805191829003602090810183206001600160401b0387166000908152915220919091557fe6f254030bcb01ffd20558175c13fcaed6d1520be7becee4c961b65f79243b0d906124009086908690869086906143dd565b60405180910390a161172c565b60006001600160e01b031982166380ac58cd60e01b148061243e57506001600160e01b03198216635b5e139f60e01b145b80610d845750610d8482612e83565b6000908152600560205260409020546001600160a01b0316151590565b600081815260076020526040902080546001600160a01b0319166001600160a01b038416908117909155819061249f8261164b565b6001600160a01b03167f8c5be1e5ebec7d5bd14f71427d1e84f3dd0314c0f7b2291e5b200ac8c7c3b92560405160405180910390a45050565b6001600160a01b03919091166000908152601460205260409020805460ff1916911515919091179055565b600061250e8261244d565b61256f5760405162461bcd60e51b815260206004820152602c60248201527f4552433732313a206f70657261746f7220717565727920666f72206e6f6e657860448201526b34b9ba32b73a103a37b5b2b760a11b6064820152608401610c34565b600061257a8361164b565b9050806001600160a01b0316846001600160a01b031614806125a157506125a18185611f54565b80611b905750836001600160a01b03166125ba84610ef5565b6001600160a01b031614949350505050565b826001600160a01b03166125df8261164b565b6001600160a01b0316146126435760405162461bcd60e51b815260206004820152602560248201527f4552433732313a207472616e736665722066726f6d20696e636f72726563742060448201526437bbb732b960d91b6064820152608401610c34565b6001600160a01b0382166126a55760405162461bcd60e51b8152602060048201526024808201527f4552433732313a207472616e7366657220746f20746865207a65726f206164646044820152637265737360e01b6064820152608401610c34565b6126b060008261246a565b6001600160a01b03831660009081526006602052604081208054600192906126d99084906145e4565b90915550506001600160a01b03821660009081526006602052604081208054600192906127079084906144ab565b909155505060008181526005602052604080822080546001600160a01b0319166001600160a01b0386811691821790925591518493918716917fddf252ad1be2c89b69c2b068fc378daa952ba7f163c4a11628f55a4df523b3ef91a4505050565b600c54600183600b5461277b91906144ab565b61278591906145e4565b11156127e45760405162461bcd60e51b815260206004820152602860248201527f556e6976657273616c4f4e46543732313a206d6178206d696e74206c696d6974604482015267081c995858da195960c21b6064820152608401610c34565b60125460ff16156128375760405162461bcd60e51b815260206004820181905260248201527f556e6976657273616c4f4e46543732313a204d696e74206973205061757365646044820152606401610c34565b801561297157601b54601c546040805163313ce56760e01b815290516001600160a01b03938416936323b872dd933393911691859163313ce567916004808301926020929190829003018186803b15801561289157600080fd5b505afa1580156128a5573d6000803e3d6000fd5b505050506040513d601f19601f820116820180604052508101906128c99190613fdf565b6128d490600a61451a565b6128de86886145c5565b6128e891906145c5565b6040516001600160e01b031960e086901b1681526001600160a01b0393841660048201529290911660248301526044820152606401602060405180830381600087803b15801561293757600080fd5b505af115801561294b573d6000803e3d6000fd5b505050506040513d601f19601f8201168201806040525081019061296f9190613b95565b505b60005b828110156129fd57600f54600b8054600090815260166020526040902091909155546129a03382612eb8565b6129d48160116129af84612ed2565b6040516020016129c09291906140cc565b604051602081830303815290604052612feb565b600b80549060006129e483614662565b91905055505080806129f590614662565b915050612974565b50600c54612a0c9060016144ab565b600b541415611113576012805460ff191660011790555050565b612a3287878787613076565b60008585604051602001612a479291906141b9565b6040516020818303038152906040529050612a65878286868661315f565b604051630f428ae960e31b815261ffff881660048201523060248201526000907f00000000000000000000000000000000000000000000000000000000000000006001600160a01b031690637a1457489060440160206040518083038186803b158015612ad157600080fd5b505afa158015612ae5573d6000803e3d6000fd5b505050506040513d601f19601f82011682018060405250810190612b099190613fc3565b905086604051612b199190614081565b604080519182900382208883526001600160401b03841660208401529161ffff8b16916001600160a01b038d16917f024797cc77ce15dc717112d54fb1df125fdfd8c81344fb046c5e074427ce1543910160405180910390a4505050505050505050565b60008082806020019051810190612b949190613c33565b60148201519193509150612ba98782846132f9565b806001600160a01b031686604051612bc19190614081565b604080519182900382208583526001600160401b03891660208401529161ffff8b16917f64e10c37f404d128982dce114f5d233c14c5c7f6d8db93099e3d99dacb9e27ba910160405180910390a450505050505050565b600080546001600160a01b038381166001600160a01b0319831681178455604051919092169283917f8be0079c531659141344cd1fd0a4f28419497f9722a3daafe3b4186f6b6457e09190a35050565b6001600160a01b03919091166000908152601560205260409020805460ff1916911515919091179055565b816001600160a01b0316836001600160a01b03161415612cf55760405162461bcd60e51b815260206004820152601960248201527f4552433732313a20617070726f766520746f2063616c6c6572000000000000006044820152606401610c34565b6001600160a01b03838116600081815260086020908152604080832094871680845294825291829020805460ff191686151590811790915591519182527f17307eab39ab6107e8899845ad3d59bd9653f200f220920489ca2b5937696c31910160405180910390a3505050565b612d6d8484846125cc565b612d7984848484613303565b61172c5760405162461bcd60e51b8152600401610c34906141db565b6060612da08261244d565b612e045760405162461bcd60e51b815260206004820152602f60248201527f4552433732314d657461646174613a2055524920717565727920666f72206e6f60448201526e3732bc34b9ba32b73a103a37b5b2b760891b6064820152608401610c34565b6000612e1b60408051602081019091526000815290565b90506000815111612e3b5760405180602001604052806000815250612e66565b80612e4584612ed2565b604051602001612e5692919061409d565b6040516020818303038152906040525b9392505050565b600082612e7a858461340d565b14949350505050565b60006001600160e01b03198216637bb0080b60e01b1480610d8457506301ffc9a760e01b6001600160e01b0319831614610d84565b61111382826040518060200160405280600081525061348f565b606081612ef65750506040805180820190915260018152600360fc1b602082015290565b8160005b8115612f205780612f0a81614662565b9150612f199050600a836144c3565b9150612efa565b6000816001600160401b03811115612f4857634e487b7160e01b600052604160045260246000fd5b6040519080825280601f01601f191660200182016040528015612f72576020820181803683370190505b5090505b8415611b9057612f876001836145e4565b9150612f94600a8661467d565b612f9f9060306144ab565b60f81b818381518110612fc257634e487b7160e01b600052603260045260246000fd5b60200101906001600160f81b031916908160001a905350612fe4600a866144c3565b9450612f76565b612ff48261244d565b6130575760405162461bcd60e51b815260206004820152602e60248201527f45524337323155524953746f726167653a2055524920736574206f66206e6f6e60448201526d32bc34b9ba32b73a103a37b5b2b760911b6064820152608401610c34565b6000828152600960209081526040909120825161108e928401906136d0565b61307f33611205565b6130e25760405162461bcd60e51b815260206004820152602e60248201527f4f4e46543732313a2073656e642063616c6c6572206973206e6f74206f776e6560448201526d1c881b9bdc88185c1c1c9bdd995960921b6064820152608401610c34565b836001600160a01b03166130f58261164b565b6001600160a01b0316146131565760405162461bcd60e51b815260206004820152602260248201527f4f4e46543732313a2073656e642066726f6d20696e636f7272656374206f776e60448201526132b960f11b6064820152608401610c34565b61172c816134c2565b61ffff85166000908152600160205260408120805461317d90614627565b80601f01602080910402602001604051908101604052809291908181526020018280546131a990614627565b80156131f65780601f106131cb576101008083540402835291602001916131f6565b820191906000526020600020905b8154815290600101906020018083116131d957829003601f168201915b505050505090508051600014156132685760405162461bcd60e51b815260206004820152603060248201527f4c7a4170703a2064657374696e6174696f6e20636861696e206973206e6f742060448201526f61207472757374656420736f7572636560801b6064820152608401610c34565b60405162c5803160e81b81526001600160a01b037f0000000000000000000000000000000000000000000000000000000000000000169063c58031009034906132bf908a9086908b908b908b908b90600401614376565b6000604051808303818588803b1580156132d857600080fd5b505af11580156132ec573d6000803e3d6000fd5b5050505050505050505050565b61108e8282612eb8565b60006001600160a01b0384163b1561340557604051630a85bd0160e11b81526001600160a01b0385169063150b7a0290613347903390899088908890600401614169565b602060405180830381600087803b15801561336157600080fd5b505af1925050508015613391575060408051601f3d908101601f1916820190925261338e91810190613be5565b60015b6133eb573d8080156133bf576040519150601f19603f3d011682016040523d82523d6000602084013e6133c4565b606091505b5080516133e35760405162461bcd60e51b8152600401610c34906141db565b805181602001fd5b6001600160e01b031916630a85bd0160e11b149050611b90565b506001611b90565b600081815b845181101561348757600085828151811061343d57634e487b7160e01b600052603260045260246000fd5b602002602001015190508083116134635760008381526020829052604090209250613474565b600081815260208490526040902092505b508061347f81614662565b915050613412565b509392505050565b6134998383613502565b6134a66000848484613303565b61108e5760405162461bcd60e51b8152600401610c34906141db565b6134cb81613635565b600081815260096020526040902080546134e490614627565b1590506111ce5760008181526009602052604081206111ce916137c8565b6001600160a01b0382166135585760405162461bcd60e51b815260206004820181905260248201527f4552433732313a206d696e7420746f20746865207a65726f20616464726573736044820152606401610c34565b6135618161244d565b156135ae5760405162461bcd60e51b815260206004820152601c60248201527f4552433732313a20746f6b656e20616c7265616479206d696e746564000000006044820152606401610c34565b6001600160a01b03821660009081526006602052604081208054600192906135d79084906144ab565b909155505060008181526005602052604080822080546001600160a01b0319166001600160a01b03861690811790915590518392907fddf252ad1be2c89b69c2b068fc378daa952ba7f163c4a11628f55a4df523b3ef908290a45050565b60006136408261164b565b905061364d60008361246a565b6001600160a01b03811660009081526006602052604081208054600192906136769084906145e4565b909155505060008281526005602052604080822080546001600160a01b0319169055518391906001600160a01b038416907fddf252ad1be2c89b69c2b068fc378daa952ba7f163c4a11628f55a4df523b3ef908390a45050565b8280546136dc90614627565b90600052602060002090601f0160209004810192826136fe5760008555613744565b82601f1061371757805160ff1916838001178555613744565b82800160010185558215613744579182015b82811115613744578251825591602001919060010190613729565b506137509291506137fe565b5090565b82805461376090614627565b90600052602060002090601f0160209004810192826137825760008555613744565b82601f1061379b5782800160ff19823516178555613744565b82800160010185558215613744579182015b828111156137445782358255916020019190600101906137ad565b5080546137d490614627565b6000825580601f106137e4575050565b601f0160209004906000526020600020908101906111ce91905b5b8082111561375057600081556001016137ff565b60008083601f840112613824578182fd5b5081356001600160401b0381111561383a578182fd5b60208301915083602082850101111561385257600080fd5b9250929050565b600082601f830112613869578081fd5b813561387c61387782614484565b614454565b818152846020838601011115613890578283fd5b816020850160208301379081016020019190915292915050565b600082601f8301126138ba578081fd5b81516138c861387782614484565b8181528460208386010111156138dc578283fd5b611b908260208301602087016145fb565b803561ffff8116811461144857600080fd5b600060208284031215613910578081fd5b8135612e66816146d3565b6000806040838503121561392d578081fd5b8235613938816146d3565b91506020830135613948816146d3565b809150509250929050565b600080600060608486031215613967578081fd5b8335613972816146d3565b92506020840135613982816146d3565b929592945050506040919091013590565b600080600080608085870312156139a8578081fd5b84356139b3816146d3565b935060208501356139c3816146d3565b92506040850135915060608501356001600160401b038111156139e4578182fd5b6139f087828801613859565b91505092959194509250565b60008060408385031215613a0e578182fd5b8235613a19816146d3565b91506020830135613948816146e8565b600080600080600080600060e0888a031215613a43578283fd5b8735613a4e816146d3565b9650613a5c602089016138ed565b955060408801356001600160401b0380821115613a77578485fd5b613a838b838c01613859565b965060608a0135955060808a01359150613a9c826146d3565b90935060a089013590613aae826146d3565b90925060c08901359080821115613ac3578283fd5b50613ad08a828b01613859565b91505092959891949750929550565b60008060408385031215613af1578182fd5b8235613afc816146d3565b946020939093013593505050565b60008060208385031215613b1c578182fd5b82356001600160401b0380821115613b32578384fd5b818501915085601f830112613b45578384fd5b813581811115613b53578485fd5b8660208260051b8501011115613b67578485fd5b60209290920196919550909350505050565b600060208284031215613b8a578081fd5b8135612e66816146e8565b600060208284031215613ba6578081fd5b8151612e66816146e8565b600060208284031215613bc2578081fd5b5035919050565b600060208284031215613bda578081fd5b8135612e66816146f6565b600060208284031215613bf6578081fd5b8151612e66816146f6565b600060208284031215613c12578081fd5b81516001600160401b03811115613c27578182fd5b611b90848285016138aa565b60008060408385031215613c45578182fd5b82516001600160401b03811115613c5a578283fd5b613c66858286016138aa565b925050602083015190509250929050565b600060208284031215613c88578081fd5b81356001600160401b03811115613c9d578182fd5b611b9084828501613859565b600060208284031215613cba578081fd5b612e66826138ed565b600080600060408486031215613cd7578081fd5b613ce0846138ed565b925060208401356001600160401b03811115613cfa578182fd5b613d0686828701613813565b9497909650939450505050565b600080600080600060a08688031215613d2a578283fd5b613d33866138ed565b945060208601356001600160401b0380821115613d4e578485fd5b613d5a89838a01613859565b95506040880135945060608801359150613d73826146e8565b90925060808701359080821115613d88578283fd5b50613d9588828901613859565b9150509295509295909350565b600080600060608486031215613db6578081fd5b613dbf846138ed565b925060208401356001600160401b03811115613dd9578182fd5b613de586828701613859565b9250506040840135613df68161470c565b809150509250925092565b60008060008060808587031215613e16578182fd5b613e1f856138ed565b935060208501356001600160401b0380821115613e3a578384fd5b613e4688838901613859565b945060408701359150613e588261470c565b90925060608601359080821115613e6d578283fd5b506139f087828801613859565b60008060008060808587031215613e8f578182fd5b613e98856138ed565b9350613ea6602086016138ed565b92506040850135613eb6816146d3565b9396929550929360600135925050565b600080600080600060808688031215613edd578283fd5b613ee6866138ed565b9450613ef4602087016138ed565b93506040860135925060608601356001600160401b03811115613f15578182fd5b613f2188828901613813565b969995985093965092949392505050565b60008060408385031215613f44578182fd5b50508035926020909101359150565b60008060408385031215613f65578182fd5b505080516020909101519092909150565b600080600060608486031215613f8a578081fd5b833592506020840135915060408401356001600160401b03811115613fad578182fd5b613fb986828701613859565b9150509250925092565b600060208284031215613fd4578081fd5b8151612e668161470c565b600060208284031215613ff0578081fd5b815160ff81168114612e66578182fd5b81835281816020850137506000828201602090810191909152601f909101601f19169091010190565b600081518084526140418160208601602086016145fb565b601f01601f19169290920160200192915050565b600081516140678185602086016145fb565b9290920192915050565b8183823760009101908152919050565b600082516140938184602087016145fb565b9190910192915050565b600083516140af8184602088016145fb565b8351908301906140c38183602088016145fb565b01949350505050565b600080845482600182811c9150808316806140e857607f831692505b602080841082141561410857634e487b7160e01b87526022600452602487fd5b81801561411c576001811461412d57614159565b60ff19861689528489019650614159565b60008b815260209020885b868110156141515781548b820152908501908301614138565b505084890196505b505050505050611f4b8185614055565b6001600160a01b038581168252841660208201526040810183905260806060820181905260009061419c90830184614029565b9695505050505050565b602081526000612e666020830184614029565b6040815260006141cc6040830185614029565b90508260208301529392505050565b60208082526032908201527f4552433732313a207472616e7366657220746f206e6f6e20455243373231526560408201527131b2b4bb32b91034b6b83632b6b2b73a32b960711b606082015260800190565b60208082526031908201527f556e6976657273616c4f4e46543732313a205370656369616c206d696e74206960408201527073206e6f74206f70656e6564207965742160781b606082015260800190565b6020808252818101527f4f776e61626c653a2063616c6c6572206973206e6f7420746865206f776e6572604082015260600190565b60208082526031908201527f4552433732313a207472616e736665722063616c6c6572206973206e6f74206f6040820152701ddb995c881b9bdc88185c1c1c9bdd9959607a1b606082015260800190565b61ffff861681526001600160a01b038516602082015260a06040820181905260009061433290830186614029565b8415156060840152828103608084015261434c8185614029565b98975050505050505050565b61ffff84168152604060208201526000611f4b604083018486614000565b61ffff8716815260c06020820152600061439360c0830188614029565b82810360408401526143a58188614029565b6001600160a01b0387811660608601528616608085015283810360a085015290506143d08185614029565b9998505050505050505050565b61ffff851681526080602082015260006143fa6080830186614029565b6001600160401b0385166040840152828103606084015261441b8185614029565b979650505050505050565b600061ffff80881683528087166020840152508460408301526080606083015261441b608083018486614000565b604051601f8201601f191681016001600160401b038111828210171561447c5761447c6146bd565b604052919050565b60006001600160401b0382111561449d5761449d6146bd565b50601f01601f191660200190565b600082198211156144be576144be614691565b500190565b6000826144d2576144d26146a7565b500490565b600181815b808511156145125781600019048211156144f8576144f8614691565b8085161561450557918102915b93841c93908002906144dc565b509250929050565b6000612e6660ff84168360008261453357506001610d84565b8161454057506000610d84565b816001811461455657600281146145605761457c565b6001915050610d84565b60ff84111561457157614571614691565b50506001821b610d84565b5060208310610133831016604e8410600b841016171561459f575081810a610d84565b6145a983836144d7565b80600019048211156145bd576145bd614691565b029392505050565b60008160001904831182151516156145df576145df614691565b500290565b6000828210156145f6576145f6614691565b500390565b60005b838110156146165781810151838201526020016145fe565b8381111561172c5750506000910152565b600181811c9082168061463b57607f821691505b6020821081141561465c57634e487b7160e01b600052602260045260246000fd5b50919050565b600060001982141561467657614676614691565b5060010190565b60008261468c5761468c6146a7565b500690565b634e487b7160e01b600052601160045260246000fd5b634e487b7160e01b600052601260045260246000fd5b634e487b7160e01b600052604160045260246000fd5b6001600160a01b03811681146111ce57600080fd5b80151581146111ce57600080fd5b6001600160e01b0319811681146111ce57600080fd5b6001600160401b03811681146111ce57600080fdfea2646970667358221220219f8947f8da1caf7d94df3e2cfe6a5ebe3bccc32f2b0d69a032954fea31c37064736f6c634300080400334f776e61626c653a2063616c6c6572206973206e6f7420746865206f776e6572",
  "devdoc": {
    "kind": "dev",
    "methods": {
      "approve(address,uint256)": {
        "details": "See {IERC721-approve}."
      },
      "balanceOf(address)": {
        "details": "See {IERC721-balanceOf}."
      },
      "estimateSendFee(uint16,bytes,uint256,bool,bytes)": {
        "details": "estimate send token `_tokenId` to (`_dstChainId`, `_toAddress`) _dstChainId - L0 defined chain id to send tokens too _toAddress - dynamic bytes array which contains the address to whom you are sending tokens to on the dstChain _tokenId - token Id to transfer _useZro - indicates to use zro to pay L0 fees _adapterParams - flexible bytes array to indicate messaging adapter services in L0"
      },
      "getApproved(uint256)": {
        "details": "See {IERC721-getApproved}."
      },
      "isApprovedForAll(address,address)": {
        "details": "See {IERC721-isApprovedForAll}."
      },
      "name()": {
        "details": "See {IERC721Metadata-name}."
      },
      "owner()": {
        "details": "Returns the address of the current owner."
      },
      "ownerOf(uint256)": {
        "details": "See {IERC721-ownerOf}."
      },
      "renounceOwnership()": {
        "details": "Leaves the contract without owner. It will not be possible to call `onlyOwner` functions anymore. Can only be called by the current owner. NOTE: Renouncing ownership will leave the contract without an owner, thereby removing any functionality that is only available to the owner."
      },
      "safeTransferFrom(address,address,uint256)": {
        "details": "See {IERC721-safeTransferFrom}."
      },
      "safeTransferFrom(address,address,uint256,bytes)": {
        "details": "See {IERC721-safeTransferFrom}."
      },
      "sendFrom(address,uint16,bytes,uint256,address,address,bytes)": {
        "details": "send token `_tokenId` to (`_dstChainId`, `_toAddress`) from `_from` `_toAddress` can be any size depending on the `dstChainId`. `_zroPaymentAddress` set to address(0x0) if not paying in ZRO (LayerZero Token) `_adapterParams` is a flexible bytes array to indicate messaging adapter services"
      },
      "setApprovalForAll(address,bool)": {
        "details": "See {IERC721-setApprovalForAll}."
      },
      "symbol()": {
        "details": "See {IERC721Metadata-symbol}."
      },
      "tokenURI(uint256)": {
        "details": "See {IERC721Metadata-tokenURI}."
      },
      "transferFrom(address,address,uint256)": {
        "details": "See {IERC721-transferFrom}."
      },
      "transferOwnership(address)": {
        "details": "Transfers ownership of the contract to a new account (`newOwner`). Can only be called by the current owner."
      }
    },
    "version": 1
  },
  "userdoc": {
    "kind": "user",
    "methods": {},
    "version": 1
  },
  "storageLayout": {
    "storage": [
      {
        "astId": 7,
        "contract": "contracts/PozzlenautsONFT.sol:PozzlenautsONFT",
        "label": "_owner",
        "offset": 0,
        "slot": "0",
        "type": "t_address"
      },
      {
        "astId": 2302,
        "contract": "contracts/PozzlenautsONFT.sol:PozzlenautsONFT",
        "label": "trustedRemoteLookup",
        "offset": 0,
        "slot": "1",
        "type": "t_mapping(t_uint16,t_bytes_storage)"
      },
      {
        "astId": 2592,
        "contract": "contracts/PozzlenautsONFT.sol:PozzlenautsONFT",
        "label": "failedMessages",
        "offset": 0,
        "slot": "2",
        "type": "t_mapping(t_uint16,t_mapping(t_bytes_memory_ptr,t_mapping(t_uint64,t_bytes32)))"
      },
      {
        "astId": 248,
        "contract": "contracts/PozzlenautsONFT.sol:PozzlenautsONFT",
        "label": "_name",
        "offset": 0,
        "slot": "3",
        "type": "t_string_storage"
      },
      {
        "astId": 250,
        "contract": "contracts/PozzlenautsONFT.sol:PozzlenautsONFT",
        "label": "_symbol",
        "offset": 0,
        "slot": "4",
        "type": "t_string_storage"
      },
      {
        "astId": 254,
        "contract": "contracts/PozzlenautsONFT.sol:PozzlenautsONFT",
        "label": "_owners",
        "offset": 0,
        "slot": "5",
        "type": "t_mapping(t_uint256,t_address)"
      },
      {
        "astId": 258,
        "contract": "contracts/PozzlenautsONFT.sol:PozzlenautsONFT",
        "label": "_balances",
        "offset": 0,
        "slot": "6",
        "type": "t_mapping(t_address,t_uint256)"
      },
      {
        "astId": 262,
        "contract": "contracts/PozzlenautsONFT.sol:PozzlenautsONFT",
        "label": "_tokenApprovals",
        "offset": 0,
        "slot": "7",
        "type": "t_mapping(t_uint256,t_address)"
      },
      {
        "astId": 268,
        "contract": "contracts/PozzlenautsONFT.sol:PozzlenautsONFT",
        "label": "_operatorApprovals",
        "offset": 0,
        "slot": "8",
        "type": "t_mapping(t_address,t_mapping(t_address,t_bool))"
      },
      {
        "astId": 1235,
        "contract": "contracts/PozzlenautsONFT.sol:PozzlenautsONFT",
        "label": "_tokenURIs",
        "offset": 0,
        "slot": "9",
        "type": "t_mapping(t_uint256,t_string_storage)"
      },
      {
        "astId": 115,
        "contract": "contracts/PozzlenautsONFT.sol:PozzlenautsONFT",
        "label": "_status",
        "offset": 0,
        "slot": "10",
        "type": "t_uint256"
      },
      {
        "astId": 3195,
        "contract": "contracts/PozzlenautsONFT.sol:PozzlenautsONFT",
        "label": "nextMintId",
        "offset": 0,
        "slot": "11",
        "type": "t_uint256"
      },
      {
        "astId": 3197,
        "contract": "contracts/PozzlenautsONFT.sol:PozzlenautsONFT",
        "label": "maxMintId",
        "offset": 0,
        "slot": "12",
        "type": "t_uint256"
      },
      {
        "astId": 3200,
        "contract": "contracts/PozzlenautsONFT.sol:PozzlenautsONFT",
        "label": "publicPrice",
        "offset": 0,
        "slot": "13",
        "type": "t_uint256"
      },
      {
        "astId": 3203,
        "contract": "contracts/PozzlenautsONFT.sol:PozzlenautsONFT",
        "label": "greenPrice",
        "offset": 0,
        "slot": "14",
        "type": "t_uint256"
      },
      {
        "astId": 3206,
        "contract": "contracts/PozzlenautsONFT.sol:PozzlenautsONFT",
        "label": "initPoz",
        "offset": 0,
        "slot": "15",
        "type": "t_uint256"
      },
      {
        "astId": 3210,
        "contract": "contracts/PozzlenautsONFT.sol:PozzlenautsONFT",
        "label": "publicDate",
        "offset": 0,
        "slot": "16",
        "type": "t_uint256"
      },
      {
        "astId": 3212,
        "contract": "contracts/PozzlenautsONFT.sol:PozzlenautsONFT",
        "label": "currentURI",
        "offset": 0,
        "slot": "17",
        "type": "t_string_storage"
      },
      {
        "astId": 3215,
        "contract": "contracts/PozzlenautsONFT.sol:PozzlenautsONFT",
        "label": "isPaused",
        "offset": 0,
        "slot": "18",
        "type": "t_bool"
      },
      {
        "astId": 3219,
        "contract": "contracts/PozzlenautsONFT.sol:PozzlenautsONFT",
        "label": "countMinted",
        "offset": 0,
        "slot": "19",
        "type": "t_mapping(t_address,t_uint256)"
      },
      {
        "astId": 3223,
        "contract": "contracts/PozzlenautsONFT.sol:PozzlenautsONFT",
        "label": "isGLClaimed",
        "offset": 0,
        "slot": "20",
        "type": "t_mapping(t_address,t_bool)"
      },
      {
        "astId": 3227,
        "contract": "contracts/PozzlenautsONFT.sol:PozzlenautsONFT",
        "label": "isFLClaimed",
        "offset": 0,
        "slot": "21",
        "type": "t_mapping(t_address,t_bool)"
      },
      {
        "astId": 3231,
        "contract": "contracts/PozzlenautsONFT.sol:PozzlenautsONFT",
        "label": "tokenBalance",
        "offset": 0,
        "slot": "22",
        "type": "t_mapping(t_uint256,t_uint256)"
      },
      {
        "astId": 3235,
        "contract": "contracts/PozzlenautsONFT.sol:PozzlenautsONFT",
        "label": "withdrawTimes",
        "offset": 0,
        "slot": "23",
        "type": "t_mapping(t_uint256,t_uint256)"
      },
      {
        "astId": 3239,
        "contract": "contracts/PozzlenautsONFT.sol:PozzlenautsONFT",
        "label": "tokenURIs",
        "offset": 0,
        "slot": "24",
        "type": "t_mapping(t_uint256,t_string_storage)"
      },
      {
        "astId": 3241,
        "contract": "contracts/PozzlenautsONFT.sol:PozzlenautsONFT",
        "label": "glMerkleRoot",
        "offset": 0,
        "slot": "25",
        "type": "t_bytes32"
      },
      {
        "astId": 3243,
        "contract": "contracts/PozzlenautsONFT.sol:PozzlenautsONFT",
        "label": "flMerkleRoot",
        "offset": 0,
        "slot": "26",
        "type": "t_bytes32"
      },
      {
        "astId": 3246,
        "contract": "contracts/PozzlenautsONFT.sol:PozzlenautsONFT",
        "label": "usdcToken",
        "offset": 0,
        "slot": "27",
        "type": "t_contract(IERC20Extented)3186"
      },
      {
        "astId": 3248,
        "contract": "contracts/PozzlenautsONFT.sol:PozzlenautsONFT",
        "label": "treasuryWallet",
        "offset": 0,
        "slot": "28",
        "type": "t_address"
      }
    ],
    "types": {
      "t_address": {
        "encoding": "inplace",
        "label": "address",
        "numberOfBytes": "20"
      },
      "t_bool": {
        "encoding": "inplace",
        "label": "bool",
        "numberOfBytes": "1"
      },
      "t_bytes32": {
        "encoding": "inplace",
        "label": "bytes32",
        "numberOfBytes": "32"
      },
      "t_bytes_memory_ptr": {
        "encoding": "bytes",
        "label": "bytes",
        "numberOfBytes": "32"
      },
      "t_bytes_storage": {
        "encoding": "bytes",
        "label": "bytes",
        "numberOfBytes": "32"
      },
      "t_contract(IERC20Extented)3186": {
        "encoding": "inplace",
        "label": "contract IERC20Extented",
        "numberOfBytes": "20"
      },
      "t_mapping(t_address,t_bool)": {
        "encoding": "mapping",
        "key": "t_address",
        "label": "mapping(address => bool)",
        "numberOfBytes": "32",
        "value": "t_bool"
      },
      "t_mapping(t_address,t_mapping(t_address,t_bool))": {
        "encoding": "mapping",
        "key": "t_address",
        "label": "mapping(address => mapping(address => bool))",
        "numberOfBytes": "32",
        "value": "t_mapping(t_address,t_bool)"
      },
      "t_mapping(t_address,t_uint256)": {
        "encoding": "mapping",
        "key": "t_address",
        "label": "mapping(address => uint256)",
        "numberOfBytes": "32",
        "value": "t_uint256"
      },
      "t_mapping(t_bytes_memory_ptr,t_mapping(t_uint64,t_bytes32))": {
        "encoding": "mapping",
        "key": "t_bytes_memory_ptr",
        "label": "mapping(bytes => mapping(uint64 => bytes32))",
        "numberOfBytes": "32",
        "value": "t_mapping(t_uint64,t_bytes32)"
      },
      "t_mapping(t_uint16,t_bytes_storage)": {
        "encoding": "mapping",
        "key": "t_uint16",
        "label": "mapping(uint16 => bytes)",
        "numberOfBytes": "32",
        "value": "t_bytes_storage"
      },
      "t_mapping(t_uint16,t_mapping(t_bytes_memory_ptr,t_mapping(t_uint64,t_bytes32)))": {
        "encoding": "mapping",
        "key": "t_uint16",
        "label": "mapping(uint16 => mapping(bytes => mapping(uint64 => bytes32)))",
        "numberOfBytes": "32",
        "value": "t_mapping(t_bytes_memory_ptr,t_mapping(t_uint64,t_bytes32))"
      },
      "t_mapping(t_uint256,t_address)": {
        "encoding": "mapping",
        "key": "t_uint256",
        "label": "mapping(uint256 => address)",
        "numberOfBytes": "32",
        "value": "t_address"
      },
      "t_mapping(t_uint256,t_string_storage)": {
        "encoding": "mapping",
        "key": "t_uint256",
        "label": "mapping(uint256 => string)",
        "numberOfBytes": "32",
        "value": "t_string_storage"
      },
      "t_mapping(t_uint256,t_uint256)": {
        "encoding": "mapping",
        "key": "t_uint256",
        "label": "mapping(uint256 => uint256)",
        "numberOfBytes": "32",
        "value": "t_uint256"
      },
      "t_mapping(t_uint64,t_bytes32)": {
        "encoding": "mapping",
        "key": "t_uint64",
        "label": "mapping(uint64 => bytes32)",
        "numberOfBytes": "32",
        "value": "t_bytes32"
      },
      "t_string_storage": {
        "encoding": "bytes",
        "label": "string",
        "numberOfBytes": "32"
      },
      "t_uint16": {
        "encoding": "inplace",
        "label": "uint16",
        "numberOfBytes": "2"
      },
      "t_uint256": {
        "encoding": "inplace",
        "label": "uint256",
        "numberOfBytes": "32"
      },
      "t_uint64": {
        "encoding": "inplace",
        "label": "uint64",
        "numberOfBytes": "8"
      }
    }
  }
}