{
  "address": "0x3256fa73eeA19913da8810d267e4612e67948FB7",
  "abi": [
    {
      "inputs": [
        {
          "internalType": "string",
          "name": "_baseURI",
          "type": "string"
        },
        {
          "internalType": "address",
          "name": "_layerZeroEndpoint",
          "type": "address"
        },
        {
          "internalType": "uint256",
          "name": "_startMintId",
          "type": "uint256"
        },
        {
          "internalType": "uint256",
          "name": "_endMintId",
          "type": "uint256"
        },
        {
          "internalType": "address",
          "name": "_usdcAddress",
          "type": "address"
        },
        {
          "internalType": "address",
          "name": "_pozAdderss",
          "type": "address"
        },
        {
          "internalType": "address",
          "name": "_treasuryAddress",
          "type": "address"
        }
      ],
      "stateMutability": "nonpayable",
      "type": "constructor"
    },
    {
      "anonymous": false,
      "inputs": [
        {
          "indexed": true,
          "internalType": "address",
          "name": "owner",
          "type": "address"
        },
        {
          "indexed": true,
          "internalType": "address",
          "name": "approved",
          "type": "address"
        },
        {
          "indexed": true,
          "internalType": "uint256",
          "name": "tokenId",
          "type": "uint256"
        }
      ],
      "name": "Approval",
      "type": "event"
    },
    {
      "anonymous": false,
      "inputs": [
        {
          "indexed": true,
          "internalType": "address",
          "name": "owner",
          "type": "address"
        },
        {
          "indexed": true,
          "internalType": "address",
          "name": "operator",
          "type": "address"
        },
        {
          "indexed": false,
          "internalType": "bool",
          "name": "approved",
          "type": "bool"
        }
      ],
      "name": "ApprovalForAll",
      "type": "event"
    },
    {
      "anonymous": false,
      "inputs": [
        {
          "indexed": false,
          "internalType": "uint16",
          "name": "_srcChainId",
          "type": "uint16"
        },
        {
          "indexed": false,
          "internalType": "bytes",
          "name": "_srcAddress",
          "type": "bytes"
        },
        {
          "indexed": false,
          "internalType": "uint64",
          "name": "_nonce",
          "type": "uint64"
        },
        {
          "indexed": false,
          "internalType": "bytes",
          "name": "_payload",
          "type": "bytes"
        }
      ],
      "name": "MessageFailed",
      "type": "event"
    },
    {
      "anonymous": false,
      "inputs": [
        {
          "indexed": true,
          "internalType": "address",
          "name": "previousOwner",
          "type": "address"
        },
        {
          "indexed": true,
          "internalType": "address",
          "name": "newOwner",
          "type": "address"
        }
      ],
      "name": "OwnershipTransferred",
      "type": "event"
    },
    {
      "anonymous": false,
      "inputs": [
        {
          "indexed": true,
          "internalType": "uint16",
          "name": "_srcChainId",
          "type": "uint16"
        },
        {
          "indexed": true,
          "internalType": "bytes",
          "name": "_srcAddress",
          "type": "bytes"
        },
        {
          "indexed": true,
          "internalType": "address",
          "name": "_toAddress",
          "type": "address"
        },
        {
          "indexed": false,
          "internalType": "uint256",
          "name": "_tokenId",
          "type": "uint256"
        },
        {
          "indexed": false,
          "internalType": "uint64",
          "name": "_nonce",
          "type": "uint64"
        }
      ],
      "name": "ReceiveFromChain",
      "type": "event"
    },
    {
      "anonymous": false,
      "inputs": [
        {
          "indexed": true,
          "internalType": "address",
          "name": "_sender",
          "type": "address"
        },
        {
          "indexed": true,
          "internalType": "uint16",
          "name": "_dstChainId",
          "type": "uint16"
        },
        {
          "indexed": true,
          "internalType": "bytes",
          "name": "_toAddress",
          "type": "bytes"
        },
        {
          "indexed": false,
          "internalType": "uint256",
          "name": "_tokenId",
          "type": "uint256"
        },
        {
          "indexed": false,
          "internalType": "uint64",
          "name": "_nonce",
          "type": "uint64"
        }
      ],
      "name": "SendToChain",
      "type": "event"
    },
    {
      "anonymous": false,
      "inputs": [
        {
          "indexed": false,
          "internalType": "uint16",
          "name": "_srcChainId",
          "type": "uint16"
        },
        {
          "indexed": false,
          "internalType": "bytes",
          "name": "_srcAddress",
          "type": "bytes"
        }
      ],
      "name": "SetTrustedRemote",
      "type": "event"
    },
    {
      "anonymous": false,
      "inputs": [
        {
          "indexed": true,
          "internalType": "address",
          "name": "from",
          "type": "address"
        },
        {
          "indexed": true,
          "internalType": "address",
          "name": "to",
          "type": "address"
        },
        {
          "indexed": true,
          "internalType": "uint256",
          "name": "tokenId",
          "type": "uint256"
        }
      ],
      "name": "Transfer",
      "type": "event"
    },
    {
      "inputs": [
        {
          "internalType": "address",
          "name": "to",
          "type": "address"
        },
        {
          "internalType": "uint256",
          "name": "tokenId",
          "type": "uint256"
        }
      ],
      "name": "approve",
      "outputs": [],
      "stateMutability": "nonpayable",
      "type": "function"
    },
    {
      "inputs": [
        {
          "internalType": "address",
          "name": "owner",
          "type": "address"
        }
      ],
      "name": "balanceOf",
      "outputs": [
        {
          "internalType": "uint256",
          "name": "",
          "type": "uint256"
        }
      ],
      "stateMutability": "view",
      "type": "function"
    },
    {
      "inputs": [
        {
          "internalType": "address",
          "name": "",
          "type": "address"
        }
      ],
      "name": "countMinted",
      "outputs": [
        {
          "internalType": "uint256",
          "name": "",
          "type": "uint256"
        }
      ],
      "stateMutability": "view",
      "type": "function"
    },
    {
      "inputs": [],
      "name": "currentURI",
      "outputs": [
        {
          "internalType": "string",
          "name": "",
          "type": "string"
        }
      ],
      "stateMutability": "view",
      "type": "function"
    },
    {
      "inputs": [
        {
          "internalType": "uint16",
          "name": "_dstChainId",
          "type": "uint16"
        },
        {
          "internalType": "bytes",
          "name": "_toAddress",
          "type": "bytes"
        },
        {
          "internalType": "uint256",
          "name": "_tokenId",
          "type": "uint256"
        },
        {
          "internalType": "bool",
          "name": "_useZro",
          "type": "bool"
        },
        {
          "internalType": "bytes",
          "name": "_adapterParams",
          "type": "bytes"
        }
      ],
      "name": "estimateSendFee",
      "outputs": [
        {
          "internalType": "uint256",
          "name": "nativeFee",
          "type": "uint256"
        },
        {
          "internalType": "uint256",
          "name": "zroFee",
          "type": "uint256"
        }
      ],
      "stateMutability": "view",
      "type": "function"
    },
    {
      "inputs": [
        {
          "internalType": "uint16",
          "name": "",
          "type": "uint16"
        },
        {
          "internalType": "bytes",
          "name": "",
          "type": "bytes"
        },
        {
          "internalType": "uint64",
          "name": "",
          "type": "uint64"
        }
      ],
      "name": "failedMessages",
      "outputs": [
        {
          "internalType": "bytes32",
          "name": "",
          "type": "bytes32"
        }
      ],
      "stateMutability": "view",
      "type": "function"
    },
    {
      "inputs": [],
      "name": "flMerkleRoot",
      "outputs": [
        {
          "internalType": "bytes32",
          "name": "",
          "type": "bytes32"
        }
      ],
      "stateMutability": "view",
      "type": "function"
    },
    {
      "inputs": [
        {
          "internalType": "uint16",
          "name": "_srcChainId",
          "type": "uint16"
        },
        {
          "internalType": "bytes",
          "name": "_srcAddress",
          "type": "bytes"
        }
      ],
      "name": "forceResumeReceive",
      "outputs": [],
      "stateMutability": "nonpayable",
      "type": "function"
    },
    {
      "inputs": [
        {
          "internalType": "bytes32[]",
          "name": "_merkleProof",
          "type": "bytes32[]"
        }
      ],
      "name": "freeListMint",
      "outputs": [
        {
          "internalType": "uint256",
          "name": "",
          "type": "uint256"
        }
      ],
      "stateMutability": "payable",
      "type": "function"
    },
    {
      "inputs": [
        {
          "internalType": "uint256",
          "name": "tokenId",
          "type": "uint256"
        }
      ],
      "name": "getApproved",
      "outputs": [
        {
          "internalType": "address",
          "name": "",
          "type": "address"
        }
      ],
      "stateMutability": "view",
      "type": "function"
    },
    {
      "inputs": [
        {
          "internalType": "uint16",
          "name": "_version",
          "type": "uint16"
        },
        {
          "internalType": "uint16",
          "name": "_chainId",
          "type": "uint16"
        },
        {
          "internalType": "address",
          "name": "",
          "type": "address"
        },
        {
          "internalType": "uint256",
          "name": "_configType",
          "type": "uint256"
        }
      ],
      "name": "getConfig",
      "outputs": [
        {
          "internalType": "bytes",
          "name": "",
          "type": "bytes"
        }
      ],
      "stateMutability": "view",
      "type": "function"
    },
    {
      "inputs": [],
      "name": "glMerkleRoot",
      "outputs": [
        {
          "internalType": "bytes32",
          "name": "",
          "type": "bytes32"
        }
      ],
      "stateMutability": "view",
      "type": "function"
    },
    {
      "inputs": [
        {
          "internalType": "bytes32[]",
          "name": "_merkleProof",
          "type": "bytes32[]"
        }
      ],
      "name": "greenListMint",
      "outputs": [
        {
          "internalType": "uint256",
          "name": "",
          "type": "uint256"
        }
      ],
      "stateMutability": "payable",
      "type": "function"
    },
    {
      "inputs": [],
      "name": "greenPrice",
      "outputs": [
        {
          "internalType": "uint256",
          "name": "",
          "type": "uint256"
        }
      ],
      "stateMutability": "view",
      "type": "function"
    },
    {
      "inputs": [],
      "name": "initPoz",
      "outputs": [
        {
          "internalType": "uint256",
          "name": "",
          "type": "uint256"
        }
      ],
      "stateMutability": "view",
      "type": "function"
    },
    {
      "inputs": [
        {
          "internalType": "address",
          "name": "owner",
          "type": "address"
        },
        {
          "internalType": "address",
          "name": "operator",
          "type": "address"
        }
      ],
      "name": "isApprovedForAll",
      "outputs": [
        {
          "internalType": "bool",
          "name": "",
          "type": "bool"
        }
      ],
      "stateMutability": "view",
      "type": "function"
    },
    {
      "inputs": [
        {
          "internalType": "address",
          "name": "",
          "type": "address"
        }
      ],
      "name": "isFLClaimed",
      "outputs": [
        {
          "internalType": "bool",
          "name": "",
          "type": "bool"
        }
      ],
      "stateMutability": "view",
      "type": "function"
    },
    {
      "inputs": [
        {
          "internalType": "address",
          "name": "",
          "type": "address"
        }
      ],
      "name": "isGLClaimed",
      "outputs": [
        {
          "internalType": "bool",
          "name": "",
          "type": "bool"
        }
      ],
      "stateMutability": "view",
      "type": "function"
    },
    {
      "inputs": [],
      "name": "isPaused",
      "outputs": [
        {
          "internalType": "bool",
          "name": "",
          "type": "bool"
        }
      ],
      "stateMutability": "view",
      "type": "function"
    },
    {
      "inputs": [
        {
          "internalType": "uint16",
          "name": "_srcChainId",
          "type": "uint16"
        },
        {
          "internalType": "bytes",
          "name": "_srcAddress",
          "type": "bytes"
        }
      ],
      "name": "isTrustedRemote",
      "outputs": [
        {
          "internalType": "bool",
          "name": "",
          "type": "bool"
        }
      ],
      "stateMutability": "view",
      "type": "function"
    },
    {
      "inputs": [],
      "name": "lzEndpoint",
      "outputs": [
        {
          "internalType": "contract ILayerZeroEndpoint",
          "name": "",
          "type": "address"
        }
      ],
      "stateMutability": "view",
      "type": "function"
    },
    {
      "inputs": [
        {
          "internalType": "uint16",
          "name": "_srcChainId",
          "type": "uint16"
        },
        {
          "internalType": "bytes",
          "name": "_srcAddress",
          "type": "bytes"
        },
        {
          "internalType": "uint64",
          "name": "_nonce",
          "type": "uint64"
        },
        {
          "internalType": "bytes",
          "name": "_payload",
          "type": "bytes"
        }
      ],
      "name": "lzReceive",
      "outputs": [],
      "stateMutability": "nonpayable",
      "type": "function"
    },
    {
      "inputs": [],
      "name": "maxMintId",
      "outputs": [
        {
          "internalType": "uint256",
          "name": "",
          "type": "uint256"
        }
      ],
      "stateMutability": "view",
      "type": "function"
    },
    {
      "inputs": [],
      "name": "name",
      "outputs": [
        {
          "internalType": "string",
          "name": "",
          "type": "string"
        }
      ],
      "stateMutability": "view",
      "type": "function"
    },
    {
      "inputs": [],
      "name": "nextMintId",
      "outputs": [
        {
          "internalType": "uint256",
          "name": "",
          "type": "uint256"
        }
      ],
      "stateMutability": "view",
      "type": "function"
    },
    {
      "inputs": [
        {
          "internalType": "uint16",
          "name": "_srcChainId",
          "type": "uint16"
        },
        {
          "internalType": "bytes",
          "name": "_srcAddress",
          "type": "bytes"
        },
        {
          "internalType": "uint64",
          "name": "_nonce",
          "type": "uint64"
        },
        {
          "internalType": "bytes",
          "name": "_payload",
          "type": "bytes"
        }
      ],
      "name": "nonblockingLzReceive",
      "outputs": [],
      "stateMutability": "nonpayable",
      "type": "function"
    },
    {
      "inputs": [],
      "name": "owner",
      "outputs": [
        {
          "internalType": "address",
          "name": "",
          "type": "address"
        }
      ],
      "stateMutability": "view",
      "type": "function"
    },
    {
      "inputs": [
        {
          "internalType": "uint256",
          "name": "tokenId",
          "type": "uint256"
        }
      ],
      "name": "ownerOf",
      "outputs": [
        {
          "internalType": "address",
          "name": "",
          "type": "address"
        }
      ],
      "stateMutability": "view",
      "type": "function"
    },
    {
      "inputs": [],
      "name": "publicDate",
      "outputs": [
        {
          "internalType": "uint256",
          "name": "",
          "type": "uint256"
        }
      ],
      "stateMutability": "view",
      "type": "function"
    },
    {
      "inputs": [
        {
          "internalType": "uint256",
          "name": "_mintCount",
          "type": "uint256"
        }
      ],
      "name": "publicMint",
      "outputs": [
        {
          "internalType": "uint256",
          "name": "",
          "type": "uint256"
        }
      ],
      "stateMutability": "payable",
      "type": "function"
    },
    {
      "inputs": [],
      "name": "publicPrice",
      "outputs": [
        {
          "internalType": "uint256",
          "name": "",
          "type": "uint256"
        }
      ],
      "stateMutability": "view",
      "type": "function"
    },
    {
      "inputs": [],
      "name": "renounceOwnership",
      "outputs": [],
      "stateMutability": "nonpayable",
      "type": "function"
    },
    {
      "inputs": [
        {
          "internalType": "uint16",
          "name": "_srcChainId",
          "type": "uint16"
        },
        {
          "internalType": "bytes",
          "name": "_srcAddress",
          "type": "bytes"
        },
        {
          "internalType": "uint64",
          "name": "_nonce",
          "type": "uint64"
        },
        {
          "internalType": "bytes",
          "name": "_payload",
          "type": "bytes"
        }
      ],
      "name": "retryMessage",
      "outputs": [],
      "stateMutability": "payable",
      "type": "function"
    },
    {
      "inputs": [
        {
          "internalType": "address",
          "name": "from",
          "type": "address"
        },
        {
          "internalType": "address",
          "name": "to",
          "type": "address"
        },
        {
          "internalType": "uint256",
          "name": "tokenId",
          "type": "uint256"
        }
      ],
      "name": "safeTransferFrom",
      "outputs": [],
      "stateMutability": "nonpayable",
      "type": "function"
    },
    {
      "inputs": [
        {
          "internalType": "address",
          "name": "from",
          "type": "address"
        },
        {
          "internalType": "address",
          "name": "to",
          "type": "address"
        },
        {
          "internalType": "uint256",
          "name": "tokenId",
          "type": "uint256"
        },
        {
          "internalType": "bytes",
          "name": "_data",
          "type": "bytes"
        }
      ],
      "name": "safeTransferFrom",
      "outputs": [],
      "stateMutability": "nonpayable",
      "type": "function"
    },
    {
      "inputs": [
        {
          "internalType": "address",
          "name": "_from",
          "type": "address"
        },
        {
          "internalType": "uint16",
          "name": "_dstChainId",
          "type": "uint16"
        },
        {
          "internalType": "bytes",
          "name": "_toAddress",
          "type": "bytes"
        },
        {
          "internalType": "uint256",
          "name": "_tokenId",
          "type": "uint256"
        },
        {
          "internalType": "address payable",
          "name": "_refundAddress",
          "type": "address"
        },
        {
          "internalType": "address",
          "name": "_zroPaymentAddress",
          "type": "address"
        },
        {
          "internalType": "bytes",
          "name": "_adapterParams",
          "type": "bytes"
        }
      ],
      "name": "sendFrom",
      "outputs": [],
      "stateMutability": "payable",
      "type": "function"
    },
    {
      "inputs": [
        {
          "internalType": "address",
          "name": "operator",
          "type": "address"
        },
        {
          "internalType": "bool",
          "name": "approved",
          "type": "bool"
        }
      ],
      "name": "setApprovalForAll",
      "outputs": [],
      "stateMutability": "nonpayable",
      "type": "function"
    },
    {
      "inputs": [
        {
          "internalType": "uint16",
          "name": "_version",
          "type": "uint16"
        },
        {
          "internalType": "uint16",
          "name": "_chainId",
          "type": "uint16"
        },
        {
          "internalType": "uint256",
          "name": "_configType",
          "type": "uint256"
        },
        {
          "internalType": "bytes",
          "name": "_config",
          "type": "bytes"
        }
      ],
      "name": "setConfig",
      "outputs": [],
      "stateMutability": "nonpayable",
      "type": "function"
    },
    {
      "inputs": [
        {
          "internalType": "address",
          "name": "_sender",
          "type": "address"
        },
        {
          "internalType": "uint256",
          "name": "_count",
          "type": "uint256"
        }
      ],
      "name": "setCountMinted",
      "outputs": [],
      "stateMutability": "nonpayable",
      "type": "function"
    },
    {
      "inputs": [
        {
          "internalType": "string",
          "name": "_currentURI",
          "type": "string"
        }
      ],
      "name": "setCurrentURI",
      "outputs": [],
      "stateMutability": "nonpayable",
      "type": "function"
    },
    {
      "inputs": [
        {
          "internalType": "address",
          "name": "_sender",
          "type": "address"
        },
        {
          "internalType": "bool",
          "name": "_isClamed",
          "type": "bool"
        }
      ],
      "name": "setFLClaimed",
      "outputs": [],
      "stateMutability": "nonpayable",
      "type": "function"
    },
    {
      "inputs": [
        {
          "internalType": "bytes32",
          "name": "_merkleRoot",
          "type": "bytes32"
        }
      ],
      "name": "setFLMerkleRoot",
      "outputs": [],
      "stateMutability": "nonpayable",
      "type": "function"
    },
    {
      "inputs": [
        {
          "internalType": "address",
          "name": "_sender",
          "type": "address"
        },
        {
          "internalType": "bool",
          "name": "_isClamed",
          "type": "bool"
        }
      ],
      "name": "setGLClaimed",
      "outputs": [],
      "stateMutability": "nonpayable",
      "type": "function"
    },
    {
      "inputs": [
        {
          "internalType": "bytes32",
          "name": "_merkleRoot",
          "type": "bytes32"
        }
      ],
      "name": "setGLMerkleRoot",
      "outputs": [],
      "stateMutability": "nonpayable",
      "type": "function"
    },
    {
      "inputs": [
        {
          "internalType": "uint256",
          "name": "_publicPrice",
          "type": "uint256"
        },
        {
          "internalType": "uint256",
          "name": "_greenPrice",
          "type": "uint256"
        }
      ],
      "name": "setMintPrice",
      "outputs": [],
      "stateMutability": "nonpayable",
      "type": "function"
    },
    {
      "inputs": [
        {
          "internalType": "bool",
          "name": "_isPaused",
          "type": "bool"
        }
      ],
      "name": "setPaused",
      "outputs": [],
      "stateMutability": "nonpayable",
      "type": "function"
    },
    {
      "inputs": [
        {
          "internalType": "address",
          "name": "_newAddress",
          "type": "address"
        }
      ],
      "name": "setPozToken",
      "outputs": [],
      "stateMutability": "nonpayable",
      "type": "function"
    },
    {
      "inputs": [
        {
          "internalType": "uint256",
          "name": "_publicDate",
          "type": "uint256"
        }
      ],
      "name": "setPublicDate",
      "outputs": [],
      "stateMutability": "nonpayable",
      "type": "function"
    },
    {
      "inputs": [
        {
          "internalType": "uint16",
          "name": "_version",
          "type": "uint16"
        }
      ],
      "name": "setReceiveVersion",
      "outputs": [],
      "stateMutability": "nonpayable",
      "type": "function"
    },
    {
      "inputs": [
        {
          "internalType": "uint16",
          "name": "_version",
          "type": "uint16"
        }
      ],
      "name": "setSendVersion",
      "outputs": [],
      "stateMutability": "nonpayable",
      "type": "function"
    },
    {
      "inputs": [
        {
          "internalType": "uint256",
          "name": "_startMintId",
          "type": "uint256"
        },
        {
          "internalType": "uint256",
          "name": "_maxMintId",
          "type": "uint256"
        },
        {
          "internalType": "string",
          "name": "_newURI",
          "type": "string"
        }
      ],
      "name": "setSpecialPack",
      "outputs": [],
      "stateMutability": "nonpayable",
      "type": "function"
    },
    {
      "inputs": [
        {
          "internalType": "address",
          "name": "treasure",
          "type": "address"
        }
      ],
      "name": "setTreasuryWallet",
      "outputs": [],
      "stateMutability": "nonpayable",
      "type": "function"
    },
    {
      "inputs": [
        {
          "internalType": "uint16",
          "name": "_srcChainId",
          "type": "uint16"
        },
        {
          "internalType": "bytes",
          "name": "_srcAddress",
          "type": "bytes"
        }
      ],
      "name": "setTrustedRemote",
      "outputs": [],
      "stateMutability": "nonpayable",
      "type": "function"
    },
    {
      "inputs": [
        {
          "internalType": "address",
          "name": "_newAddress",
          "type": "address"
        }
      ],
      "name": "setUSDCToken",
      "outputs": [],
      "stateMutability": "nonpayable",
      "type": "function"
    },
    {
      "inputs": [
        {
          "internalType": "bytes4",
          "name": "interfaceId",
          "type": "bytes4"
        }
      ],
      "name": "supportsInterface",
      "outputs": [
        {
          "internalType": "bool",
          "name": "",
          "type": "bool"
        }
      ],
      "stateMutability": "view",
      "type": "function"
    },
    {
      "inputs": [],
      "name": "symbol",
      "outputs": [
        {
          "internalType": "string",
          "name": "",
          "type": "string"
        }
      ],
      "stateMutability": "view",
      "type": "function"
    },
    {
      "inputs": [
        {
          "internalType": "uint256",
          "name": "",
          "type": "uint256"
        }
      ],
      "name": "tokenBalance",
      "outputs": [
        {
          "internalType": "uint256",
          "name": "",
          "type": "uint256"
        }
      ],
      "stateMutability": "view",
      "type": "function"
    },
    {
      "inputs": [
        {
          "internalType": "uint256",
          "name": "tokenId",
          "type": "uint256"
        }
      ],
      "name": "tokenURI",
      "outputs": [
        {
          "internalType": "string",
          "name": "",
          "type": "string"
        }
      ],
      "stateMutability": "view",
      "type": "function"
    },
    {
      "inputs": [
        {
          "internalType": "uint256",
          "name": "",
          "type": "uint256"
        }
      ],
      "name": "tokenURIs",
      "outputs": [
        {
          "internalType": "string",
          "name": "",
          "type": "string"
        }
      ],
      "stateMutability": "view",
      "type": "function"
    },
    {
      "inputs": [
        {
          "internalType": "address",
          "name": "from",
          "type": "address"
        },
        {
          "internalType": "address",
          "name": "to",
          "type": "address"
        },
        {
          "internalType": "uint256",
          "name": "tokenId",
          "type": "uint256"
        }
      ],
      "name": "transferFrom",
      "outputs": [],
      "stateMutability": "nonpayable",
      "type": "function"
    },
    {
      "inputs": [
        {
          "internalType": "address",
          "name": "newOwner",
          "type": "address"
        }
      ],
      "name": "transferOwnership",
      "outputs": [],
      "stateMutability": "nonpayable",
      "type": "function"
    },
    {
      "inputs": [],
      "name": "treasuryWallet",
      "outputs": [
        {
          "internalType": "address",
          "name": "",
          "type": "address"
        }
      ],
      "stateMutability": "view",
      "type": "function"
    },
    {
      "inputs": [
        {
          "internalType": "uint16",
          "name": "",
          "type": "uint16"
        }
      ],
      "name": "trustedRemoteLookup",
      "outputs": [
        {
          "internalType": "bytes",
          "name": "",
          "type": "bytes"
        }
      ],
      "stateMutability": "view",
      "type": "function"
    },
    {
      "inputs": [
        {
          "internalType": "uint256",
          "name": "_tokenId",
          "type": "uint256"
        }
      ],
      "name": "withdrawPoz",
      "outputs": [],
      "stateMutability": "nonpayable",
      "type": "function"
    },
    {
      "inputs": [],
      "name": "withdrawPozByOwner",
      "outputs": [],
      "stateMutability": "nonpayable",
      "type": "function"
    },
    {
      "inputs": [
        {
          "internalType": "uint256",
          "name": "",
          "type": "uint256"
        }
      ],
      "name": "withdrawTimes",
      "outputs": [
        {
          "internalType": "uint256",
          "name": "",
          "type": "uint256"
        }
      ],
      "stateMutability": "view",
      "type": "function"
    }
  ],
  "transactionHash": "0x7d004f972ab497a7ef15913df190d70e0cbdcc7458853845048a73ae60cbd94c",
  "args": [
    "https://ipfs.io/ipfs/QmX4nwyt4iuLnaWKMjKAJhkVoLRYLqwW3B35BvZhwR8Z2v/",
    "0xf69186dfBa60DdB133E91E9A4B5673624293d8F8",
    1222,
    1421,
    "0x9561624667eEa5759889Ea413923f81D04752fE8",
    "0x7c4CCfEDCEeEDDB2B71dE2C51A1Dd9f897A3a435",
    "0x3A54802752fEFDc1aF2CD0b6DFA4F24694bDEE33"
  ],
  "numDeployments": 1,
  "solcInputHash": "6e8a38e07cad567bf394b944312e4b71",
  "bytecode": "0x60a060405260c7600d556096600e55603c600f55426010556012805460ff191690553480156200002e57600080fd5b5060405162005312380380620053128339810160408190526200005191620003c2565b6040518060400160405280600f81526020016e141bde9e9b195b985d5d1cd3d39195608a1b8152506040518060400160405280600a815260200169141bde9e9b195b985d5d60b21b815250888888888888888888878282828080620000c5620000bf6200016960201b60201c565b6200016d565b60601b6001600160601b03191660805250508151620000ec906003906020850190620002ff565b50805162000102906004906020840190620002ff565b50506001600a55505050600b86905550600c849055601d80546001600160a01b0319166001600160a01b0383161790556200013d87620001bd565b620001488262000225565b620001538362000292565b505050505050505050505050505050506200054b565b3390565b600080546001600160a01b038381166001600160a01b0319831681178455604051919092169283917f8be0079c531659141344cd1fd0a4f28419497f9722a3daafe3b4186f6b6457e09190a35050565b6000546001600160a01b031633146200020c5760405162461bcd60e51b81526020600482018190526024820152600080516020620052f283398151915260448201526064015b60405180910390fd5b805162000221906011906020840190620002ff565b5050565b6000546001600160a01b03163314620002705760405162461bcd60e51b81526020600482018190526024820152600080516020620052f2833981519152604482015260640162000203565b601c80546001600160a01b0319166001600160a01b0392909216919091179055565b6000546001600160a01b03163314620002dd5760405162461bcd60e51b81526020600482018190526024820152600080516020620052f2833981519152604482015260640162000203565b601b80546001600160a01b0319166001600160a01b0392909216919091179055565b8280546200030d90620004f8565b90600052602060002090601f0160209004810192826200033157600085556200037c565b82601f106200034c57805160ff19168380011785556200037c565b828001600101855582156200037c579182015b828111156200037c5782518255916020019190600101906200035f565b506200038a9291506200038e565b5090565b5b808211156200038a57600081556001016200038f565b80516001600160a01b0381168114620003bd57600080fd5b919050565b600080600080600080600060e0888a031215620003dd578283fd5b87516001600160401b0380821115620003f4578485fd5b818a0191508a601f83011262000408578485fd5b8151818111156200041d576200041d62000535565b604051601f8201601f19908116603f0116810190838211818310171562000448576200044862000535565b81604052828152602093508d8484870101111562000464578788fd5b8791505b8282101562000487578482018401518183018501529083019062000468565b828211156200049857878484830101525b9a50620004aa9150508a8201620003a5565b975050506040880151945060608801519350620004ca60808901620003a5565b9250620004da60a08901620003a5565b9150620004ea60c08901620003a5565b905092959891949750929550565b600181811c908216806200050d57607f821691505b602082108114156200052f57634e487b7160e01b600052602260045260246000fd5b50919050565b634e487b7160e01b600052604160045260246000fd5b60805160601c614d49620005a960003960008181610a0b01528181610c3901528181610f0a015281816111d0015281816113330152818161163701528181611c9b015281816128630152818161306101526138580152614d496000f3fe6080604052600436106103d85760003560e01c8063715018a6116101fd578063b88d4fde11610118578063e1d4c870116100ab578063eb8d72b71161007a578063eb8d72b714610bae578063f2fde38b14610bce578063f36bc30d14610bee578063f5ecbdbc14610c01578063fb0bc9d714610c2157600080fd5b8063e1d4c87014610b38578063e67cf48214610b4e578063e985e9c514610b6e578063ea9d6d2914610b8e57600080fd5b8063cbed8b9c116100e7578063cbed8b9c14610add578063d1deba1f14610afd578063d721161214610b10578063dd68832314610b2557600080fd5b8063b88d4fde14610a4d578063bd89cc7114610a6d578063c32e00fe14610a9d578063c87b56dd14610abd57600080fd5b8063a22cb46511610190578063a966fa331161015f578063a966fa33146109af578063b187bd26146109df578063b353aaa7146109f9578063b473171614610a2d57600080fd5b8063a22cb46514610943578063a80d71bb14610963578063a8602fea14610979578063a945bf801461099957600080fd5b806387b8ff27116101cc57806387b8ff27146108d05780638da5cb5b146108f05780639511e65c1461090e57806395d89b411461092e57600080fd5b8063715018a6146108585780637533d7881461086d57806378624f091461088d5780637e10ab0d146108a357600080fd5b80633d8b38f6116102f857806351d982b41161028b57806363b468ce1161025a57806363b468ce146107cc57806366ad5c8a146107e25780636aa99da3146108025780636c8b703f1461081857806370a082311461083857600080fd5b806351d982b41461071a57806357a73609146107305780635b8c41e61461075d5780636352211e146107ac57600080fd5b80634626402b116102c75780634626402b146106a457806349afc6e5146106c457806351463d5b146106f1578063519056361461070757600080fd5b80633d8b38f61461062457806342842e0e1461064457806342d65a8d14610664578063450a32921461068457600080fd5b80630f78a4d511610370578063197e6cf01161033f578063197e6cf01461058e57806323b872dd146105ae5780632a205e3d146105ce5780632db115441461060357600080fd5b80630f78a4d51461050e57806310ddb1371461052e578063115763311461054e57806316c38b3c1461056e57600080fd5b806307e0db17116103ac57806307e0db1714610476578063081812fc14610496578063095ea7b3146104ce5780630f5a9d01146104ee57600080fd5b80621d3567146103dd57806301ffc9a7146103ff5780630442bfa81461043457806306fdde0314610454575b600080fd5b3480156103e957600080fd5b506103fd6103f83660046143db565b610c36565b005b34801561040b57600080fd5b5061041f61041a3660046141a3565b610ddd565b60405190151581526020015b60405180910390f35b34801561044057600080fd5b506103fd61044f366004614524565b610e00565b34801561046057600080fd5b50610469610e35565b60405161042b9190614798565b34801561048257600080fd5b506103fd610491366004614283565b610ec7565b3480156104a257600080fd5b506104b66104b136600461418b565b610f6b565b6040516001600160a01b03909116815260200161042b565b3480156104da57600080fd5b506103fd6104e93660046140b9565b610ff3565b3480156104fa57600080fd5b506103fd610509366004613ed9565b611109565b34801561051a57600080fd5b506103fd610529366004613fd6565b611155565b34801561053a57600080fd5b506103fd610549366004614283565b61118d565b34801561055a57600080fd5b506103fd610569366004613ed9565b611207565b34801561057a57600080fd5b506103fd610589366004614153565b611253565b34801561059a57600080fd5b506103fd6105a936600461418b565b611293565b3480156105ba57600080fd5b506103fd6105c9366004613f2d565b6112c2565b3480156105da57600080fd5b506105ee6105e93660046142ed565b6112f4565b6040805192835260208301919091520161042b565b61061661061136600461418b565b6113ce565b60405190815260200161042b565b34801561063057600080fd5b5061041f61063f36600461429d565b61150f565b34801561065057600080fd5b506103fd61065f366004613f2d565b6115db565b34801561067057600080fd5b506103fd61067f36600461429d565b6115f6565b34801561069057600080fd5b506103fd61069f366004614568565b6116a7565b3480156106b057600080fd5b50601d546104b6906001600160a01b031681565b3480156106d057600080fd5b506106166106df36600461418b565b60166020526000908152604090205481565b3480156106fd57600080fd5b5061061660105481565b6103fd610715366004614003565b6116fe565b34801561072657600080fd5b50610616600e5481565b34801561073c57600080fd5b5061061661074b36600461418b565b60176020526000908152604090205481565b34801561076957600080fd5b5061061661077836600461437c565b6002602090815260009384526040808520845180860184018051928152908401958401959095209452929052825290205481565b3480156107b857600080fd5b506104b66107c736600461418b565b61170d565b3480156107d857600080fd5b5061061660195481565b3480156107ee57600080fd5b506103fd6107fd3660046143db565b611784565b34801561080e57600080fd5b50610616600b5481565b34801561082457600080fd5b5061046961083336600461418b565b6117f4565b34801561084457600080fd5b50610616610853366004613ed9565b61188e565b34801561086457600080fd5b506103fd611915565b34801561087957600080fd5b50610469610888366004614283565b61194b565b34801561089957600080fd5b50610616601a5481565b3480156108af57600080fd5b506106166108be366004613ed9565b60136020526000908152604090205481565b3480156108dc57600080fd5b506103fd6108eb366004613fd6565b611964565b3480156108fc57600080fd5b506000546001600160a01b03166104b6565b34801561091a57600080fd5b506103fd6109293660046140b9565b611998565b34801561093a57600080fd5b506104696119df565b34801561094f57600080fd5b506103fd61095e366004613fd6565b6119ee565b34801561096f57600080fd5b50610616600f5481565b34801561098557600080fd5b506103fd610994366004613ed9565b6119f9565b3480156109a557600080fd5b50610616600d5481565b3480156109bb57600080fd5b5061041f6109ca366004613ed9565b60156020526000908152604090205460ff1681565b3480156109eb57600080fd5b5060125461041f9060ff1681565b348015610a0557600080fd5b506104b67f000000000000000000000000000000000000000000000000000000000000000081565b348015610a3957600080fd5b506103fd610a48366004614251565b611a45565b348015610a5957600080fd5b506103fd610a68366004613f6d565b611a82565b348015610a7957600080fd5b5061041f610a88366004613ed9565b60146020526000908152604090205460ff1681565b348015610aa957600080fd5b506103fd610ab836600461418b565b611ab4565b348015610ac957600080fd5b50610469610ad836600461418b565b611ae3565b348015610ae957600080fd5b506103fd610af83660046144a0565b611c5a565b6103fd610b0b3660046143db565b611d11565b348015610b1c57600080fd5b506103fd611e63565b610616610b333660046140e4565b611f93565b348015610b4457600080fd5b50610616600c5481565b348015610b5a57600080fd5b506103fd610b6936600461418b565b612146565b348015610b7a57600080fd5b5061041f610b89366004613ef5565b61252e565b348015610b9a57600080fd5b506103fd610ba936600461418b565b61255c565b348015610bba57600080fd5b506103fd610bc936600461429d565b61258b565b348015610bda57600080fd5b506103fd610be9366004613ed9565b612614565b610616610bfc3660046140e4565b6126ac565b348015610c0d57600080fd5b50610469610c1c366004614454565b612832565b348015610c2d57600080fd5b506104696128e9565b337f00000000000000000000000000000000000000000000000000000000000000006001600160a01b031614610cb35760405162461bcd60e51b815260206004820152601e60248201527f4c7a4170703a20696e76616c696420656e64706f696e742063616c6c6572000060448201526064015b60405180910390fd5b61ffff841660009081526001602052604081208054610cd190614c19565b80601f0160208091040260200160405190810160405280929190818152602001828054610cfd90614c19565b8015610d4a5780601f10610d1f57610100808354040283529160200191610d4a565b820191906000526020600020905b815481529060010190602001808311610d2d57829003601f168201915b5050505050905080518451148015610d6f575080805190602001208480519060200120145b610dca5760405162461bcd60e51b815260206004820152602660248201527f4c7a4170703a20696e76616c696420736f757263652073656e64696e6720636f6044820152651b9d1c9858dd60d21b6064820152608401610caa565b610dd6858585856128f6565b5050505050565b60006001600160e01b031982161580610dfa5750610dfa826129e7565b92915050565b6000546001600160a01b03163314610e2a5760405162461bcd60e51b8152600401610caa90614870565b600d91909155600e55565b606060038054610e4490614c19565b80601f0160208091040260200160405190810160405280929190818152602001828054610e7090614c19565b8015610ebd5780601f10610e9257610100808354040283529160200191610ebd565b820191906000526020600020905b815481529060010190602001808311610ea057829003601f168201915b5050505050905090565b6000546001600160a01b03163314610ef15760405162461bcd60e51b8152600401610caa90614870565b6040516307e0db1760e01b815261ffff821660048201527f00000000000000000000000000000000000000000000000000000000000000006001600160a01b0316906307e0db17906024015b600060405180830381600087803b158015610f5757600080fd5b505af1158015610dd6573d6000803e3d6000fd5b6000610f7682612a27565b610fd75760405162461bcd60e51b815260206004820152602c60248201527f4552433732313a20617070726f76656420717565727920666f72206e6f6e657860448201526b34b9ba32b73a103a37b5b2b760a11b6064820152608401610caa565b506000908152600760205260409020546001600160a01b031690565b6000610ffe8261170d565b9050806001600160a01b0316836001600160a01b0316141561106c5760405162461bcd60e51b815260206004820152602160248201527f4552433732313a20617070726f76616c20746f2063757272656e74206f776e656044820152603960f91b6064820152608401610caa565b336001600160a01b03821614806110885750611088813361252e565b6110fa5760405162461bcd60e51b815260206004820152603860248201527f4552433732313a20617070726f76652063616c6c6572206973206e6f74206f7760448201527f6e6572206e6f7220617070726f76656420666f7220616c6c00000000000000006064820152608401610caa565b6111048383612a44565b505050565b6000546001600160a01b031633146111335760405162461bcd60e51b8152600401610caa90614870565b601b80546001600160a01b0319166001600160a01b0392909216919091179055565b6000546001600160a01b0316331461117f5760405162461bcd60e51b8152600401610caa90614870565b6111898282612ab2565b5050565b6000546001600160a01b031633146111b75760405162461bcd60e51b8152600401610caa90614870565b6040516310ddb13760e01b815261ffff821660048201527f00000000000000000000000000000000000000000000000000000000000000006001600160a01b0316906310ddb13790602401610f3d565b6000546001600160a01b031633146112315760405162461bcd60e51b8152600401610caa90614870565b601c80546001600160a01b0319166001600160a01b0392909216919091179055565b6000546001600160a01b0316331461127d5760405162461bcd60e51b8152600401610caa90614870565b6012805482151560ff1990911617905550565b50565b6000546001600160a01b031633146112bd5760405162461bcd60e51b8152600401610caa90614870565b601955565b6112cd335b82612add565b6112e95760405162461bcd60e51b8152600401610caa906148a5565b611104838383612ba6565b6000806000868660405160200161130c9291906147ab565b60408051601f198184030181529082905263040a7bb160e41b825291506001600160a01b037f000000000000000000000000000000000000000000000000000000000000000016906340a7bb1090611370908b90309086908b908b906004016148f6565b604080518083038186803b15801561138757600080fd5b505afa15801561139b573d6000803e3d6000fd5b505050506040513d601f19601f820116820180604052508101906113bf9190614545565b92509250509550959350505050565b600060105442101561143b5760405162461bcd60e51b815260206004820152603060248201527f556e6976657273616c4f4e46543732313a205075626c6963206d696e7420697360448201526f206e6f74206f70656e6564207965742160801b6064820152608401610caa565b33600090815260136020526040902054600390611459908490614a9d565b11156114b35760405162461bcd60e51b8152602060048201526024808201527f556e6976657273616c4f4e46543732313a204d696e7420636f756e74206c696d6044820152631a5d195960e21b6064820152608401610caa565b6114bf82600d54612d42565b336000818152601360205260409020546114fb91906114df908590614a9d565b6001600160a01b03909116600090815260136020526040902055565b6001600b54610dfa9190614bd6565b919050565b61ffff83166000908152600160205260408120805482919061153090614c19565b80601f016020809104026020016040519081016040528092919081815260200182805461155c90614c19565b80156115a95780601f1061157e576101008083540402835291602001916115a9565b820191906000526020600020905b81548152906001019060200180831161158c57829003601f168201915b5050505050905083836040516115c0929190614663565b60405180910390208180519060200120149150509392505050565b61110483838360405180602001604052806000815250611a82565b6000546001600160a01b031633146116205760405162461bcd60e51b8152600401610caa90614870565b6040516342d65a8d60e01b81526001600160a01b037f000000000000000000000000000000000000000000000000000000000000000016906342d65a8d906116709086908690869060040161494a565b600060405180830381600087803b15801561168a57600080fd5b505af115801561169e573d6000803e3d6000fd5b50505050505050565b6000546001600160a01b031633146116d15760405162461bcd60e51b8152600401610caa90614870565b600b839055600c82905580516116ee906011906020840190613caa565b506012805460ff19169055505050565b61169e87878787878787613000565b6000818152600560205260408120546001600160a01b031680610dfa5760405162461bcd60e51b815260206004820152602960248201527f4552433732313a206f776e657220717565727920666f72206e6f6e657869737460448201526832b73a103a37b5b2b760b91b6064820152608401610caa565b3330146117e25760405162461bcd60e51b815260206004820152602660248201527f4e6f6e626c6f636b696e674c7a4170703a2063616c6c6572206d7573742062656044820152650204c7a4170760d41b6064820152608401610caa565b6117ee84848484613157565b50505050565b6018602052600090815260409020805461180d90614c19565b80601f016020809104026020016040519081016040528092919081815260200182805461183990614c19565b80156118865780601f1061185b57610100808354040283529160200191611886565b820191906000526020600020905b81548152906001019060200180831161186957829003601f168201915b505050505081565b60006001600160a01b0382166118f95760405162461bcd60e51b815260206004820152602a60248201527f4552433732313a2062616c616e636520717565727920666f7220746865207a65604482015269726f206164647265737360b01b6064820152608401610caa565b506001600160a01b031660009081526006602052604090205490565b6000546001600160a01b0316331461193f5760405162461bcd60e51b8152600401610caa90614870565b61194960006131f2565b565b6001602052600090815260409020805461180d90614c19565b6000546001600160a01b0316331461198e5760405162461bcd60e51b8152600401610caa90614870565b6111898282613242565b6000546001600160a01b031633146119c25760405162461bcd60e51b8152600401610caa90614870565b6001600160a01b0391909116600090815260136020526040902055565b606060048054610e4490614c19565b61118933838361326d565b6000546001600160a01b03163314611a235760405162461bcd60e51b8152600401610caa90614870565b601d80546001600160a01b0319166001600160a01b0392909216919091179055565b6000546001600160a01b03163314611a6f5760405162461bcd60e51b8152600401610caa90614870565b8051611189906011906020840190613caa565b611a8c3383612add565b611aa85760405162461bcd60e51b8152600401610caa906148a5565b6117ee8484848461333c565b6000546001600160a01b03163314611ade5760405162461bcd60e51b8152600401610caa90614870565b601a55565b6060611aee82612a27565b611b545760405162461bcd60e51b815260206004820152603160248201527f45524337323155524953746f726167653a2055524920717565727920666f72206044820152703737b732bc34b9ba32b73a103a37b5b2b760791b6064820152608401610caa565b60008281526009602052604081208054611b6d90614c19565b80601f0160208091040260200160405190810160405280929190818152602001828054611b9990614c19565b8015611be65780601f10611bbb57610100808354040283529160200191611be6565b820191906000526020600020905b815481529060010190602001808311611bc957829003601f168201915b505050505090506000611c0460408051602081019091526000815290565b9050805160001415611c17575092915050565b815115611c49578082604051602001611c3192919061468f565b60405160208183030381529060405292505050919050565b611c528461336f565b949350505050565b6000546001600160a01b03163314611c845760405162461bcd60e51b8152600401610caa90614870565b6040516332fb62e760e21b81526001600160a01b037f0000000000000000000000000000000000000000000000000000000000000000169063cbed8b9c90611cd89088908890889088908890600401614a18565b600060405180830381600087803b158015611cf257600080fd5b505af1158015611d06573d6000803e3d6000fd5b505050505050505050565b61ffff84166000908152600260205260408082209051611d32908690614673565b90815260408051602092819003830190206001600160401b03861660009081529252902054905080611db25760405162461bcd60e51b815260206004820152602360248201527f4e6f6e626c6f636b696e674c7a4170703a206e6f2073746f726564206d65737360448201526261676560e81b6064820152608401610caa565b815160208301208114611e115760405162461bcd60e51b815260206004820152602160248201527f4e6f6e626c6f636b696e674c7a4170703a20696e76616c6964207061796c6f616044820152601960fa1b6064820152608401610caa565b61ffff85166000908152600260205260408082209051611e32908790614673565b90815260408051602092819003830190206001600160401b03871660009081529252902055610dd685858585613157565b6000546001600160a01b03163314611e8d5760405162461bcd60e51b8152600401610caa90614870565b601c546040516370a0823160e01b81523060048201526000916001600160a01b0316906370a082319060240160206040518083038186803b158015611ed157600080fd5b505afa158015611ee5573d6000803e3d6000fd5b505050506040513d601f19601f82011682018060405250810190611f09919061450c565b601c54601d5460405163a9059cbb60e01b81526001600160a01b03918216600482015260248101849052929350169063a9059cbb90604401602060405180830381600087803b158015611f5b57600080fd5b505af1158015611f6f573d6000803e3d6000fd5b505050506040513d601f19601f82011682018060405250810190611189919061416f565b600062015180601054611fa69190614bd6565b421015611fc55760405162461bcd60e51b8152600401610caa9061481f565b828261203d82828080602002602001604051908101604052809392919081815260200183836020028082843760009201919091525050601a546040516bffffffffffffffffffffffff193360601b16602082015290925060340190505b60405160208183030381529060405280519060200120613447565b6120a25760405162461bcd60e51b815260206004820152603060248201527f556e6976657273616c4f4e46543732313a2041646472657373206973204e4f5460448201526f20467265656c6973746564207965742160801b6064820152608401610caa565b3360009081526015602052604090205460ff16156121175760405162461bcd60e51b815260206004820152602c60248201527f556e6976657273616c4f4e46543732313a20467265656e6c69737420616c726560448201526b61647920636c61696d65642160a01b6064820152608401610caa565b61212360016000612d42565b61212e336001613242565b6001600b5461213d9190614bd6565b95945050505050565b61214f81612a27565b6121ab5760405162461bcd60e51b815260206004820152602760248201527f556e6976657273616c4f4e46543732313a20546f6b656e20646f6573206e6f746044820152662065786973742160c81b6064820152608401610caa565b336121b58261170d565b6001600160a01b03161461220b5760405162461bcd60e51b815260206004820181905260248201527f556e6976657273616c4f4e46543732313a204e6f7420796f757220746f6b656e6044820152606401610caa565b6000818152601660205260409020546122725760405162461bcd60e51b815260206004820152602360248201527f556e6976657273616c4f4e46543732313a20506f7a2062616c616e636520697360448201526220302160e81b6064820152608401610caa565b601054612282906276a700614a9d565b42116122ea5760405162461bcd60e51b815260206004820152603160248201527f556e6976657273616c4f4e46543732313a20506f7a207769746864726177206960448201527073206e6f74206f70656e6564207965742160781b6064820152608401610caa565b60005b600981101561118957426123048262278d00614bb7565b601054612314906276a700614a9d565b61231e9190614a9d565b1115801561235d5750612332816001614a9d565b61233f9062278d00614bb7565b60105461234f906276a700614a9d565b6123599190614a9d565b4211155b1561251c5760008281526017602052604090205481146123d95760405162461bcd60e51b815260206004820152603160248201527f556e6976657273616c4f4e46543732313a20506f7a2077697468647261772074604482015270696d65206973206e6f742072696768742160781b6064820152608401610caa565b6123e4816001614a9d565b60008381526017602090815260409182902092909255601c54815163313ce56760e01b815291516001600160a01b039091169263a9059cbb923392606492869263313ce5679260048083019392829003018186803b15801561244557600080fd5b505afa158015612459573d6000803e3d6000fd5b505050506040513d601f19601f8201168201806040525081019061247d91906145d1565b61248890600a614b0c565b6124949061029a614bb7565b61249e9190614ab5565b6040516001600160e01b031960e085901b1681526001600160a01b0390921660048301526024820152604401602060405180830381600087803b1580156124e457600080fd5b505af11580156124f8573d6000803e3d6000fd5b505050506040513d601f19601f82011682018060405250810190611104919061416f565b8061252681614c54565b9150506122ed565b6001600160a01b03918216600090815260086020908152604080832093909416825291909152205460ff1690565b6000546001600160a01b031633146125865760405162461bcd60e51b8152600401610caa90614870565b601055565b6000546001600160a01b031633146125b55760405162461bcd60e51b8152600401610caa90614870565b61ffff831660009081526001602052604090206125d3908383613d2e565b507ffa41487ad5d6728f0b19276fa1eddc16558578f5109fc39d2dc33c3230470dab8383836040516126079392919061494a565b60405180910390a1505050565b6000546001600160a01b0316331461263e5760405162461bcd60e51b8152600401610caa90614870565b6001600160a01b0381166126a35760405162461bcd60e51b815260206004820152602660248201527f4f776e61626c653a206e6577206f776e657220697320746865207a65726f206160448201526564647265737360d01b6064820152608401610caa565b611290816131f2565b6000620151806010546126bf9190614bd6565b4210156126de5760405162461bcd60e51b8152600401610caa9061481f565b828261273f828280806020026020016040519081016040528093929190818152602001838360200280828437600092019190915250506019546040516bffffffffffffffffffffffff193360601b1660208201529092506034019050612022565b6127a55760405162461bcd60e51b815260206004820152603160248201527f556e6976657273616c4f4e46543732313a2041646472657373206973204e4f5460448201527020477265656e6c6973746564207965742160781b6064820152608401610caa565b3360009081526014602052604090205460ff161561281a5760405162461bcd60e51b815260206004820152602c60248201527f556e6976657273616c4f4e46543732313a20477265656e6c69737420616c726560448201526b61647920636c61696d65642160a01b6064820152608401610caa565b6128276001600e54612d42565b61212e336001612ab2565b604051633d7b2f6f60e21b815261ffff808616600483015284166024820152306044820152606481018290526060907f00000000000000000000000000000000000000000000000000000000000000006001600160a01b03169063f5ecbdbc9060840160006040518083038186803b1580156128ad57600080fd5b505afa1580156128c1573d6000803e3d6000fd5b505050506040513d6000823e601f3d908101601f1916820160405261213d91908101906141db565b6011805461180d90614c19565b604051633356ae4560e11b815230906366ad5c8a9061291f9087908790879087906004016149cf565b600060405180830381600087803b15801561293957600080fd5b505af192505050801561294a575060015b6117ee578080519060200120600260008661ffff1661ffff1681526020019081526020016000208460405161297f9190614673565b9081526040805191829003602090810183206001600160401b0387166000908152915220919091557fe6f254030bcb01ffd20558175c13fcaed6d1520be7becee4c961b65f79243b0d906129da9086908690869086906149cf565b60405180910390a16117ee565b60006001600160e01b031982166380ac58cd60e01b1480612a1857506001600160e01b03198216635b5e139f60e01b145b80610dfa5750610dfa8261345d565b6000908152600560205260409020546001600160a01b0316151590565b600081815260076020526040902080546001600160a01b0319166001600160a01b0384169081179091558190612a798261170d565b6001600160a01b03167f8c5be1e5ebec7d5bd14f71427d1e84f3dd0314c0f7b2291e5b200ac8c7c3b92560405160405180910390a45050565b6001600160a01b03919091166000908152601460205260409020805460ff1916911515919091179055565b6000612ae882612a27565b612b495760405162461bcd60e51b815260206004820152602c60248201527f4552433732313a206f70657261746f7220717565727920666f72206e6f6e657860448201526b34b9ba32b73a103a37b5b2b760a11b6064820152608401610caa565b6000612b548361170d565b9050806001600160a01b0316846001600160a01b03161480612b7b5750612b7b818561252e565b80611c525750836001600160a01b0316612b9484610f6b565b6001600160a01b031614949350505050565b826001600160a01b0316612bb98261170d565b6001600160a01b031614612c1d5760405162461bcd60e51b815260206004820152602560248201527f4552433732313a207472616e736665722066726f6d20696e636f72726563742060448201526437bbb732b960d91b6064820152608401610caa565b6001600160a01b038216612c7f5760405162461bcd60e51b8152602060048201526024808201527f4552433732313a207472616e7366657220746f20746865207a65726f206164646044820152637265737360e01b6064820152608401610caa565b612c8a600082612a44565b6001600160a01b0383166000908152600660205260408120805460019290612cb3908490614bd6565b90915550506001600160a01b0382166000908152600660205260408120805460019290612ce1908490614a9d565b909155505060008181526005602052604080822080546001600160a01b0319166001600160a01b0386811691821790925591518493918716917fddf252ad1be2c89b69c2b068fc378daa952ba7f163c4a11628f55a4df523b3ef91a4505050565b600c54600183600b54612d559190614a9d565b612d5f9190614bd6565b1115612dbe5760405162461bcd60e51b815260206004820152602860248201527f556e6976657273616c4f4e46543732313a206d6178206d696e74206c696d6974604482015267081c995858da195960c21b6064820152608401610caa565b60125460ff1615612e115760405162461bcd60e51b815260206004820181905260248201527f556e6976657273616c4f4e46543732313a204d696e74206973205061757365646044820152606401610caa565b8015612f4b57601b54601d546040805163313ce56760e01b815290516001600160a01b03938416936323b872dd933393911691859163313ce567916004808301926020929190829003018186803b158015612e6b57600080fd5b505afa158015612e7f573d6000803e3d6000fd5b505050506040513d601f19601f82011682018060405250810190612ea391906145d1565b612eae90600a614b0c565b612eb88688614bb7565b612ec29190614bb7565b6040516001600160e01b031960e086901b1681526001600160a01b0393841660048201529290911660248301526044820152606401602060405180830381600087803b158015612f1157600080fd5b505af1158015612f25573d6000803e3d6000fd5b505050506040513d601f19601f82011682018060405250810190612f49919061416f565b505b60005b82811015612fd757600f54600b805460009081526016602052604090209190915554612f7a3382613492565b612fae816011612f89846134ac565b604051602001612f9a9291906146be565b6040516020818303038152906040526135c5565b600b8054906000612fbe83614c54565b9190505550508080612fcf90614c54565b915050612f4e565b50600c54612fe6906001614a9d565b600b541415611189576012805460ff191660011790555050565b61300c87878787613650565b600085856040516020016130219291906147ab565b604051602081830303815290604052905061303f8782868686613739565b604051630f428ae960e31b815261ffff881660048201523060248201526000907f00000000000000000000000000000000000000000000000000000000000000006001600160a01b031690637a1457489060440160206040518083038186803b1580156130ab57600080fd5b505afa1580156130bf573d6000803e3d6000fd5b505050506040513d601f19601f820116820180604052508101906130e391906145b5565b9050866040516130f39190614673565b604080519182900382208883526001600160401b03841660208401529161ffff8b16916001600160a01b038d16917f024797cc77ce15dc717112d54fb1df125fdfd8c81344fb046c5e074427ce1543910160405180910390a4505050505050505050565b6000808280602001905181019061316e919061420d565b601482015191935091506131838782846138d3565b806001600160a01b03168660405161319b9190614673565b604080519182900382208583526001600160401b03891660208401529161ffff8b16917f64e10c37f404d128982dce114f5d233c14c5c7f6d8db93099e3d99dacb9e27ba910160405180910390a450505050505050565b600080546001600160a01b038381166001600160a01b0319831681178455604051919092169283917f8be0079c531659141344cd1fd0a4f28419497f9722a3daafe3b4186f6b6457e09190a35050565b6001600160a01b03919091166000908152601560205260409020805460ff1916911515919091179055565b816001600160a01b0316836001600160a01b031614156132cf5760405162461bcd60e51b815260206004820152601960248201527f4552433732313a20617070726f766520746f2063616c6c6572000000000000006044820152606401610caa565b6001600160a01b03838116600081815260086020908152604080832094871680845294825291829020805460ff191686151590811790915591519182527f17307eab39ab6107e8899845ad3d59bd9653f200f220920489ca2b5937696c31910160405180910390a3505050565b613347848484612ba6565b613353848484846138dd565b6117ee5760405162461bcd60e51b8152600401610caa906147cd565b606061337a82612a27565b6133de5760405162461bcd60e51b815260206004820152602f60248201527f4552433732314d657461646174613a2055524920717565727920666f72206e6f60448201526e3732bc34b9ba32b73a103a37b5b2b760891b6064820152608401610caa565b60006133f560408051602081019091526000815290565b905060008151116134155760405180602001604052806000815250613440565b8061341f846134ac565b60405160200161343092919061468f565b6040516020818303038152906040525b9392505050565b60008261345485846139e7565b14949350505050565b60006001600160e01b03198216637bb0080b60e01b1480610dfa57506301ffc9a760e01b6001600160e01b0319831614610dfa565b611189828260405180602001604052806000815250613a69565b6060816134d05750506040805180820190915260018152600360fc1b602082015290565b8160005b81156134fa57806134e481614c54565b91506134f39050600a83614ab5565b91506134d4565b6000816001600160401b0381111561352257634e487b7160e01b600052604160045260246000fd5b6040519080825280601f01601f19166020018201604052801561354c576020820181803683370190505b5090505b8415611c5257613561600183614bd6565b915061356e600a86614c6f565b613579906030614a9d565b60f81b81838151811061359c57634e487b7160e01b600052603260045260246000fd5b60200101906001600160f81b031916908160001a9053506135be600a86614ab5565b9450613550565b6135ce82612a27565b6136315760405162461bcd60e51b815260206004820152602e60248201527f45524337323155524953746f726167653a2055524920736574206f66206e6f6e60448201526d32bc34b9ba32b73a103a37b5b2b760911b6064820152608401610caa565b6000828152600960209081526040909120825161110492840190613caa565b613659336112c7565b6136bc5760405162461bcd60e51b815260206004820152602e60248201527f4f4e46543732313a2073656e642063616c6c6572206973206e6f74206f776e6560448201526d1c881b9bdc88185c1c1c9bdd995960921b6064820152608401610caa565b836001600160a01b03166136cf8261170d565b6001600160a01b0316146137305760405162461bcd60e51b815260206004820152602260248201527f4f4e46543732313a2073656e642066726f6d20696e636f7272656374206f776e60448201526132b960f11b6064820152608401610caa565b6117ee81613a9c565b61ffff85166000908152600160205260408120805461375790614c19565b80601f016020809104026020016040519081016040528092919081815260200182805461378390614c19565b80156137d05780601f106137a5576101008083540402835291602001916137d0565b820191906000526020600020905b8154815290600101906020018083116137b357829003601f168201915b505050505090508051600014156138425760405162461bcd60e51b815260206004820152603060248201527f4c7a4170703a2064657374696e6174696f6e20636861696e206973206e6f742060448201526f61207472757374656420736f7572636560801b6064820152608401610caa565b60405162c5803160e81b81526001600160a01b037f0000000000000000000000000000000000000000000000000000000000000000169063c5803100903490613899908a9086908b908b908b908b90600401614968565b6000604051808303818588803b1580156138b257600080fd5b505af11580156138c6573d6000803e3d6000fd5b5050505050505050505050565b6111048282613492565b60006001600160a01b0384163b156139df57604051630a85bd0160e11b81526001600160a01b0385169063150b7a029061392190339089908890889060040161475b565b602060405180830381600087803b15801561393b57600080fd5b505af192505050801561396b575060408051601f3d908101601f19168201909252613968918101906141bf565b60015b6139c5573d808015613999576040519150601f19603f3d011682016040523d82523d6000602084013e61399e565b606091505b5080516139bd5760405162461bcd60e51b8152600401610caa906147cd565b805181602001fd5b6001600160e01b031916630a85bd0160e11b149050611c52565b506001611c52565b600081815b8451811015613a61576000858281518110613a1757634e487b7160e01b600052603260045260246000fd5b60200260200101519050808311613a3d5760008381526020829052604090209250613a4e565b600081815260208490526040902092505b5080613a5981614c54565b9150506139ec565b509392505050565b613a738383613adc565b613a8060008484846138dd565b6111045760405162461bcd60e51b8152600401610caa906147cd565b613aa581613c0f565b60008181526009602052604090208054613abe90614c19565b15905061129057600081815260096020526040812061129091613da2565b6001600160a01b038216613b325760405162461bcd60e51b815260206004820181905260248201527f4552433732313a206d696e7420746f20746865207a65726f20616464726573736044820152606401610caa565b613b3b81612a27565b15613b885760405162461bcd60e51b815260206004820152601c60248201527f4552433732313a20746f6b656e20616c7265616479206d696e746564000000006044820152606401610caa565b6001600160a01b0382166000908152600660205260408120805460019290613bb1908490614a9d565b909155505060008181526005602052604080822080546001600160a01b0319166001600160a01b03861690811790915590518392907fddf252ad1be2c89b69c2b068fc378daa952ba7f163c4a11628f55a4df523b3ef908290a45050565b6000613c1a8261170d565b9050613c27600083612a44565b6001600160a01b0381166000908152600660205260408120805460019290613c50908490614bd6565b909155505060008281526005602052604080822080546001600160a01b0319169055518391906001600160a01b038416907fddf252ad1be2c89b69c2b068fc378daa952ba7f163c4a11628f55a4df523b3ef908390a45050565b828054613cb690614c19565b90600052602060002090601f016020900481019282613cd85760008555613d1e565b82601f10613cf157805160ff1916838001178555613d1e565b82800160010185558215613d1e579182015b82811115613d1e578251825591602001919060010190613d03565b50613d2a929150613dd8565b5090565b828054613d3a90614c19565b90600052602060002090601f016020900481019282613d5c5760008555613d1e565b82601f10613d755782800160ff19823516178555613d1e565b82800160010185558215613d1e579182015b82811115613d1e578235825591602001919060010190613d87565b508054613dae90614c19565b6000825580601f10613dbe575050565b601f01602090049060005260206000209081019061129091905b5b80821115613d2a5760008155600101613dd9565b60008083601f840112613dfe578182fd5b5081356001600160401b03811115613e14578182fd5b602083019150836020828501011115613e2c57600080fd5b9250929050565b600082601f830112613e43578081fd5b8135613e56613e5182614a76565b614a46565b818152846020838601011115613e6a578283fd5b816020850160208301379081016020019190915292915050565b600082601f830112613e94578081fd5b8151613ea2613e5182614a76565b818152846020838601011115613eb6578283fd5b611c52826020830160208701614bed565b803561ffff8116811461150a57600080fd5b600060208284031215613eea578081fd5b813561344081614cc5565b60008060408385031215613f07578081fd5b8235613f1281614cc5565b91506020830135613f2281614cc5565b809150509250929050565b600080600060608486031215613f41578081fd5b8335613f4c81614cc5565b92506020840135613f5c81614cc5565b929592945050506040919091013590565b60008060008060808587031215613f82578081fd5b8435613f8d81614cc5565b93506020850135613f9d81614cc5565b92506040850135915060608501356001600160401b03811115613fbe578182fd5b613fca87828801613e33565b91505092959194509250565b60008060408385031215613fe8578182fd5b8235613ff381614cc5565b91506020830135613f2281614cda565b600080600080600080600060e0888a03121561401d578283fd5b873561402881614cc5565b965061403660208901613ec7565b955060408801356001600160401b0380821115614051578485fd5b61405d8b838c01613e33565b965060608a0135955060808a0135915061407682614cc5565b90935060a08901359061408882614cc5565b90925060c0890135908082111561409d578283fd5b506140aa8a828b01613e33565b91505092959891949750929550565b600080604083850312156140cb578182fd5b82356140d681614cc5565b946020939093013593505050565b600080602083850312156140f6578182fd5b82356001600160401b038082111561410c578384fd5b818501915085601f83011261411f578384fd5b81358181111561412d578485fd5b8660208260051b8501011115614141578485fd5b60209290920196919550909350505050565b600060208284031215614164578081fd5b813561344081614cda565b600060208284031215614180578081fd5b815161344081614cda565b60006020828403121561419c578081fd5b5035919050565b6000602082840312156141b4578081fd5b813561344081614ce8565b6000602082840312156141d0578081fd5b815161344081614ce8565b6000602082840312156141ec578081fd5b81516001600160401b03811115614201578182fd5b611c5284828501613e84565b6000806040838503121561421f578182fd5b82516001600160401b03811115614234578283fd5b61424085828601613e84565b925050602083015190509250929050565b600060208284031215614262578081fd5b81356001600160401b03811115614277578182fd5b611c5284828501613e33565b600060208284031215614294578081fd5b61344082613ec7565b6000806000604084860312156142b1578081fd5b6142ba84613ec7565b925060208401356001600160401b038111156142d4578182fd5b6142e086828701613ded565b9497909650939450505050565b600080600080600060a08688031215614304578283fd5b61430d86613ec7565b945060208601356001600160401b0380821115614328578485fd5b61433489838a01613e33565b9550604088013594506060880135915061434d82614cda565b90925060808701359080821115614362578283fd5b5061436f88828901613e33565b9150509295509295909350565b600080600060608486031215614390578081fd5b61439984613ec7565b925060208401356001600160401b038111156143b3578182fd5b6143bf86828701613e33565b92505060408401356143d081614cfe565b809150509250925092565b600080600080608085870312156143f0578182fd5b6143f985613ec7565b935060208501356001600160401b0380821115614414578384fd5b61442088838901613e33565b94506040870135915061443282614cfe565b90925060608601359080821115614447578283fd5b50613fca87828801613e33565b60008060008060808587031215614469578182fd5b61447285613ec7565b935061448060208601613ec7565b9250604085013561449081614cc5565b9396929550929360600135925050565b6000806000806000608086880312156144b7578283fd5b6144c086613ec7565b94506144ce60208701613ec7565b93506040860135925060608601356001600160401b038111156144ef578182fd5b6144fb88828901613ded565b969995985093965092949392505050565b60006020828403121561451d578081fd5b5051919050565b60008060408385031215614536578182fd5b50508035926020909101359150565b60008060408385031215614557578182fd5b505080516020909101519092909150565b60008060006060848603121561457c578081fd5b833592506020840135915060408401356001600160401b0381111561459f578182fd5b6145ab86828701613e33565b9150509250925092565b6000602082840312156145c6578081fd5b815161344081614cfe565b6000602082840312156145e2578081fd5b815160ff81168114613440578182fd5b81835281816020850137506000828201602090810191909152601f909101601f19169091010190565b60008151808452614633816020860160208601614bed565b601f01601f19169290920160200192915050565b60008151614659818560208601614bed565b9290920192915050565b8183823760009101908152919050565b60008251614685818460208701614bed565b9190910192915050565b600083516146a1818460208801614bed565b8351908301906146b5818360208801614bed565b01949350505050565b600080845482600182811c9150808316806146da57607f831692505b60208084108214156146fa57634e487b7160e01b87526022600452602487fd5b81801561470e576001811461471f5761474b565b60ff1986168952848901965061474b565b60008b815260209020885b868110156147435781548b82015290850190830161472a565b505084890196505b50505050505061213d8185614647565b6001600160a01b038581168252841660208201526040810183905260806060820181905260009061478e9083018461461b565b9695505050505050565b602081526000613440602083018461461b565b6040815260006147be604083018561461b565b90508260208301529392505050565b60208082526032908201527f4552433732313a207472616e7366657220746f206e6f6e20455243373231526560408201527131b2b4bb32b91034b6b83632b6b2b73a32b960711b606082015260800190565b60208082526031908201527f556e6976657273616c4f4e46543732313a205370656369616c206d696e74206960408201527073206e6f74206f70656e6564207965742160781b606082015260800190565b6020808252818101527f4f776e61626c653a2063616c6c6572206973206e6f7420746865206f776e6572604082015260600190565b60208082526031908201527f4552433732313a207472616e736665722063616c6c6572206973206e6f74206f6040820152701ddb995c881b9bdc88185c1c1c9bdd9959607a1b606082015260800190565b61ffff861681526001600160a01b038516602082015260a0604082018190526000906149249083018661461b565b8415156060840152828103608084015261493e818561461b565b98975050505050505050565b61ffff8416815260406020820152600061213d6040830184866145f2565b61ffff8716815260c06020820152600061498560c083018861461b565b8281036040840152614997818861461b565b6001600160a01b0387811660608601528616608085015283810360a085015290506149c2818561461b565b9998505050505050505050565b61ffff851681526080602082015260006149ec608083018661461b565b6001600160401b03851660408401528281036060840152614a0d818561461b565b979650505050505050565b600061ffff808816835280871660208401525084604083015260806060830152614a0d6080830184866145f2565b604051601f8201601f191681016001600160401b0381118282101715614a6e57614a6e614caf565b604052919050565b60006001600160401b03821115614a8f57614a8f614caf565b50601f01601f191660200190565b60008219821115614ab057614ab0614c83565b500190565b600082614ac457614ac4614c99565b500490565b600181815b80851115614b04578160001904821115614aea57614aea614c83565b80851615614af757918102915b93841c9390800290614ace565b509250929050565b600061344060ff841683600082614b2557506001610dfa565b81614b3257506000610dfa565b8160018114614b485760028114614b5257614b6e565b6001915050610dfa565b60ff841115614b6357614b63614c83565b50506001821b610dfa565b5060208310610133831016604e8410600b8410161715614b91575081810a610dfa565b614b9b8383614ac9565b8060001904821115614baf57614baf614c83565b029392505050565b6000816000190483118215151615614bd157614bd1614c83565b500290565b600082821015614be857614be8614c83565b500390565b60005b83811015614c08578181015183820152602001614bf0565b838111156117ee5750506000910152565b600181811c90821680614c2d57607f821691505b60208210811415614c4e57634e487b7160e01b600052602260045260246000fd5b50919050565b6000600019821415614c6857614c68614c83565b5060010190565b600082614c7e57614c7e614c99565b500690565b634e487b7160e01b600052601160045260246000fd5b634e487b7160e01b600052601260045260246000fd5b634e487b7160e01b600052604160045260246000fd5b6001600160a01b038116811461129057600080fd5b801515811461129057600080fd5b6001600160e01b03198116811461129057600080fd5b6001600160401b038116811461129057600080fdfea264697066735822122024e201ccaaa7517f7b4986cded493de46c2044ffa99ec0548a1e5532060c701764736f6c634300080400334f776e61626c653a2063616c6c6572206973206e6f7420746865206f776e6572",
  "devdoc": {
    "kind": "dev",
    "methods": {
      "approve(address,uint256)": {
        "details": "See {IERC721-approve}."
      },
      "balanceOf(address)": {
        "details": "See {IERC721-balanceOf}."
      },
      "estimateSendFee(uint16,bytes,uint256,bool,bytes)": {
        "details": "estimate send token `_tokenId` to (`_dstChainId`, `_toAddress`) _dstChainId - L0 defined chain id to send tokens too _toAddress - dynamic bytes array which contains the address to whom you are sending tokens to on the dstChain _tokenId - token Id to transfer _useZro - indicates to use zro to pay L0 fees _adapterParams - flexible bytes array to indicate messaging adapter services in L0"
      },
      "getApproved(uint256)": {
        "details": "See {IERC721-getApproved}."
      },
      "isApprovedForAll(address,address)": {
        "details": "See {IERC721-isApprovedForAll}."
      },
      "name()": {
        "details": "See {IERC721Metadata-name}."
      },
      "owner()": {
        "details": "Returns the address of the current owner."
      },
      "ownerOf(uint256)": {
        "details": "See {IERC721-ownerOf}."
      },
      "renounceOwnership()": {
        "details": "Leaves the contract without owner. It will not be possible to call `onlyOwner` functions anymore. Can only be called by the current owner. NOTE: Renouncing ownership will leave the contract without an owner, thereby removing any functionality that is only available to the owner."
      },
      "safeTransferFrom(address,address,uint256)": {
        "details": "See {IERC721-safeTransferFrom}."
      },
      "safeTransferFrom(address,address,uint256,bytes)": {
        "details": "See {IERC721-safeTransferFrom}."
      },
      "sendFrom(address,uint16,bytes,uint256,address,address,bytes)": {
        "details": "send token `_tokenId` to (`_dstChainId`, `_toAddress`) from `_from` `_toAddress` can be any size depending on the `dstChainId`. `_zroPaymentAddress` set to address(0x0) if not paying in ZRO (LayerZero Token) `_adapterParams` is a flexible bytes array to indicate messaging adapter services"
      },
      "setApprovalForAll(address,bool)": {
        "details": "See {IERC721-setApprovalForAll}."
      },
      "symbol()": {
        "details": "See {IERC721Metadata-symbol}."
      },
      "tokenURI(uint256)": {
        "details": "See {IERC721Metadata-tokenURI}."
      },
      "transferFrom(address,address,uint256)": {
        "details": "See {IERC721-transferFrom}."
      },
      "transferOwnership(address)": {
        "details": "Transfers ownership of the contract to a new account (`newOwner`). Can only be called by the current owner."
      }
    },
    "version": 1
  },
  "userdoc": {
    "kind": "user",
    "methods": {},
    "version": 1
  },
  "storageLayout": {
    "storage": [
      {
        "astId": 7,
        "contract": "contracts/PozzlenautsONFTPoz.sol:PozzlenautsONFTPoz",
        "label": "_owner",
        "offset": 0,
        "slot": "0",
        "type": "t_address"
      },
      {
        "astId": 2302,
        "contract": "contracts/PozzlenautsONFTPoz.sol:PozzlenautsONFTPoz",
        "label": "trustedRemoteLookup",
        "offset": 0,
        "slot": "1",
        "type": "t_mapping(t_uint16,t_bytes_storage)"
      },
      {
        "astId": 2592,
        "contract": "contracts/PozzlenautsONFTPoz.sol:PozzlenautsONFTPoz",
        "label": "failedMessages",
        "offset": 0,
        "slot": "2",
        "type": "t_mapping(t_uint16,t_mapping(t_bytes_memory_ptr,t_mapping(t_uint64,t_bytes32)))"
      },
      {
        "astId": 248,
        "contract": "contracts/PozzlenautsONFTPoz.sol:PozzlenautsONFTPoz",
        "label": "_name",
        "offset": 0,
        "slot": "3",
        "type": "t_string_storage"
      },
      {
        "astId": 250,
        "contract": "contracts/PozzlenautsONFTPoz.sol:PozzlenautsONFTPoz",
        "label": "_symbol",
        "offset": 0,
        "slot": "4",
        "type": "t_string_storage"
      },
      {
        "astId": 254,
        "contract": "contracts/PozzlenautsONFTPoz.sol:PozzlenautsONFTPoz",
        "label": "_owners",
        "offset": 0,
        "slot": "5",
        "type": "t_mapping(t_uint256,t_address)"
      },
      {
        "astId": 258,
        "contract": "contracts/PozzlenautsONFTPoz.sol:PozzlenautsONFTPoz",
        "label": "_balances",
        "offset": 0,
        "slot": "6",
        "type": "t_mapping(t_address,t_uint256)"
      },
      {
        "astId": 262,
        "contract": "contracts/PozzlenautsONFTPoz.sol:PozzlenautsONFTPoz",
        "label": "_tokenApprovals",
        "offset": 0,
        "slot": "7",
        "type": "t_mapping(t_uint256,t_address)"
      },
      {
        "astId": 268,
        "contract": "contracts/PozzlenautsONFTPoz.sol:PozzlenautsONFTPoz",
        "label": "_operatorApprovals",
        "offset": 0,
        "slot": "8",
        "type": "t_mapping(t_address,t_mapping(t_address,t_bool))"
      },
      {
        "astId": 1235,
        "contract": "contracts/PozzlenautsONFTPoz.sol:PozzlenautsONFTPoz",
        "label": "_tokenURIs",
        "offset": 0,
        "slot": "9",
        "type": "t_mapping(t_uint256,t_string_storage)"
      },
      {
        "astId": 115,
        "contract": "contracts/PozzlenautsONFTPoz.sol:PozzlenautsONFTPoz",
        "label": "_status",
        "offset": 0,
        "slot": "10",
        "type": "t_uint256"
      },
      {
        "astId": 3855,
        "contract": "contracts/PozzlenautsONFTPoz.sol:PozzlenautsONFTPoz",
        "label": "nextMintId",
        "offset": 0,
        "slot": "11",
        "type": "t_uint256"
      },
      {
        "astId": 3857,
        "contract": "contracts/PozzlenautsONFTPoz.sol:PozzlenautsONFTPoz",
        "label": "maxMintId",
        "offset": 0,
        "slot": "12",
        "type": "t_uint256"
      },
      {
        "astId": 3860,
        "contract": "contracts/PozzlenautsONFTPoz.sol:PozzlenautsONFTPoz",
        "label": "publicPrice",
        "offset": 0,
        "slot": "13",
        "type": "t_uint256"
      },
      {
        "astId": 3863,
        "contract": "contracts/PozzlenautsONFTPoz.sol:PozzlenautsONFTPoz",
        "label": "greenPrice",
        "offset": 0,
        "slot": "14",
        "type": "t_uint256"
      },
      {
        "astId": 3866,
        "contract": "contracts/PozzlenautsONFTPoz.sol:PozzlenautsONFTPoz",
        "label": "initPoz",
        "offset": 0,
        "slot": "15",
        "type": "t_uint256"
      },
      {
        "astId": 3870,
        "contract": "contracts/PozzlenautsONFTPoz.sol:PozzlenautsONFTPoz",
        "label": "publicDate",
        "offset": 0,
        "slot": "16",
        "type": "t_uint256"
      },
      {
        "astId": 3872,
        "contract": "contracts/PozzlenautsONFTPoz.sol:PozzlenautsONFTPoz",
        "label": "currentURI",
        "offset": 0,
        "slot": "17",
        "type": "t_string_storage"
      },
      {
        "astId": 3875,
        "contract": "contracts/PozzlenautsONFTPoz.sol:PozzlenautsONFTPoz",
        "label": "isPaused",
        "offset": 0,
        "slot": "18",
        "type": "t_bool"
      },
      {
        "astId": 3879,
        "contract": "contracts/PozzlenautsONFTPoz.sol:PozzlenautsONFTPoz",
        "label": "countMinted",
        "offset": 0,
        "slot": "19",
        "type": "t_mapping(t_address,t_uint256)"
      },
      {
        "astId": 3883,
        "contract": "contracts/PozzlenautsONFTPoz.sol:PozzlenautsONFTPoz",
        "label": "isGLClaimed",
        "offset": 0,
        "slot": "20",
        "type": "t_mapping(t_address,t_bool)"
      },
      {
        "astId": 3887,
        "contract": "contracts/PozzlenautsONFTPoz.sol:PozzlenautsONFTPoz",
        "label": "isFLClaimed",
        "offset": 0,
        "slot": "21",
        "type": "t_mapping(t_address,t_bool)"
      },
      {
        "astId": 3891,
        "contract": "contracts/PozzlenautsONFTPoz.sol:PozzlenautsONFTPoz",
        "label": "tokenBalance",
        "offset": 0,
        "slot": "22",
        "type": "t_mapping(t_uint256,t_uint256)"
      },
      {
        "astId": 3895,
        "contract": "contracts/PozzlenautsONFTPoz.sol:PozzlenautsONFTPoz",
        "label": "withdrawTimes",
        "offset": 0,
        "slot": "23",
        "type": "t_mapping(t_uint256,t_uint256)"
      },
      {
        "astId": 3899,
        "contract": "contracts/PozzlenautsONFTPoz.sol:PozzlenautsONFTPoz",
        "label": "tokenURIs",
        "offset": 0,
        "slot": "24",
        "type": "t_mapping(t_uint256,t_string_storage)"
      },
      {
        "astId": 3901,
        "contract": "contracts/PozzlenautsONFTPoz.sol:PozzlenautsONFTPoz",
        "label": "glMerkleRoot",
        "offset": 0,
        "slot": "25",
        "type": "t_bytes32"
      },
      {
        "astId": 3903,
        "contract": "contracts/PozzlenautsONFTPoz.sol:PozzlenautsONFTPoz",
        "label": "flMerkleRoot",
        "offset": 0,
        "slot": "26",
        "type": "t_bytes32"
      },
      {
        "astId": 3906,
        "contract": "contracts/PozzlenautsONFTPoz.sol:PozzlenautsONFTPoz",
        "label": "usdcToken",
        "offset": 0,
        "slot": "27",
        "type": "t_contract(IERC20Extented)3846"
      },
      {
        "astId": 3909,
        "contract": "contracts/PozzlenautsONFTPoz.sol:PozzlenautsONFTPoz",
        "label": "pozToken",
        "offset": 0,
        "slot": "28",
        "type": "t_contract(IERC20Extented)3846"
      },
      {
        "astId": 3911,
        "contract": "contracts/PozzlenautsONFTPoz.sol:PozzlenautsONFTPoz",
        "label": "treasuryWallet",
        "offset": 0,
        "slot": "29",
        "type": "t_address"
      }
    ],
    "types": {
      "t_address": {
        "encoding": "inplace",
        "label": "address",
        "numberOfBytes": "20"
      },
      "t_bool": {
        "encoding": "inplace",
        "label": "bool",
        "numberOfBytes": "1"
      },
      "t_bytes32": {
        "encoding": "inplace",
        "label": "bytes32",
        "numberOfBytes": "32"
      },
      "t_bytes_memory_ptr": {
        "encoding": "bytes",
        "label": "bytes",
        "numberOfBytes": "32"
      },
      "t_bytes_storage": {
        "encoding": "bytes",
        "label": "bytes",
        "numberOfBytes": "32"
      },
      "t_contract(IERC20Extented)3846": {
        "encoding": "inplace",
        "label": "contract IERC20Extented",
        "numberOfBytes": "20"
      },
      "t_mapping(t_address,t_bool)": {
        "encoding": "mapping",
        "key": "t_address",
        "label": "mapping(address => bool)",
        "numberOfBytes": "32",
        "value": "t_bool"
      },
      "t_mapping(t_address,t_mapping(t_address,t_bool))": {
        "encoding": "mapping",
        "key": "t_address",
        "label": "mapping(address => mapping(address => bool))",
        "numberOfBytes": "32",
        "value": "t_mapping(t_address,t_bool)"
      },
      "t_mapping(t_address,t_uint256)": {
        "encoding": "mapping",
        "key": "t_address",
        "label": "mapping(address => uint256)",
        "numberOfBytes": "32",
        "value": "t_uint256"
      },
      "t_mapping(t_bytes_memory_ptr,t_mapping(t_uint64,t_bytes32))": {
        "encoding": "mapping",
        "key": "t_bytes_memory_ptr",
        "label": "mapping(bytes => mapping(uint64 => bytes32))",
        "numberOfBytes": "32",
        "value": "t_mapping(t_uint64,t_bytes32)"
      },
      "t_mapping(t_uint16,t_bytes_storage)": {
        "encoding": "mapping",
        "key": "t_uint16",
        "label": "mapping(uint16 => bytes)",
        "numberOfBytes": "32",
        "value": "t_bytes_storage"
      },
      "t_mapping(t_uint16,t_mapping(t_bytes_memory_ptr,t_mapping(t_uint64,t_bytes32)))": {
        "encoding": "mapping",
        "key": "t_uint16",
        "label": "mapping(uint16 => mapping(bytes => mapping(uint64 => bytes32)))",
        "numberOfBytes": "32",
        "value": "t_mapping(t_bytes_memory_ptr,t_mapping(t_uint64,t_bytes32))"
      },
      "t_mapping(t_uint256,t_address)": {
        "encoding": "mapping",
        "key": "t_uint256",
        "label": "mapping(uint256 => address)",
        "numberOfBytes": "32",
        "value": "t_address"
      },
      "t_mapping(t_uint256,t_string_storage)": {
        "encoding": "mapping",
        "key": "t_uint256",
        "label": "mapping(uint256 => string)",
        "numberOfBytes": "32",
        "value": "t_string_storage"
      },
      "t_mapping(t_uint256,t_uint256)": {
        "encoding": "mapping",
        "key": "t_uint256",
        "label": "mapping(uint256 => uint256)",
        "numberOfBytes": "32",
        "value": "t_uint256"
      },
      "t_mapping(t_uint64,t_bytes32)": {
        "encoding": "mapping",
        "key": "t_uint64",
        "label": "mapping(uint64 => bytes32)",
        "numberOfBytes": "32",
        "value": "t_bytes32"
      },
      "t_string_storage": {
        "encoding": "bytes",
        "label": "string",
        "numberOfBytes": "32"
      },
      "t_uint16": {
        "encoding": "inplace",
        "label": "uint16",
        "numberOfBytes": "2"
      },
      "t_uint256": {
        "encoding": "inplace",
        "label": "uint256",
        "numberOfBytes": "32"
      },
      "t_uint64": {
        "encoding": "inplace",
        "label": "uint64",
        "numberOfBytes": "8"
      }
    }
  }
}